:020000040800F2
:10000000601800205D130008410300084303000846
:10001000470300084B0300084F03000800000000DE
:100020000000000000000000000000005303000872
:10003000550300080000000057030008751300086E
:100040007713000877130008771300087713000868
:100050007713000877130008771300087713000858
:10006000771300087713000877130008CB100008F7
:100070007713000877130008590300087713000866
:100080007713000877130008771300087713000828
:10009000F51100087713000877130008771300089C
:1000A0007713000877130008771300087713000808
:1000B00017990008771300087713000877130008D2
:1000C00077130008771300087713000877130008E8
:1000D000771300082F4000087713000877130008F3
:1000E00077130008771300087713000800F002F870
:1000F00000F05AF80AA090E8000C82448344AAF168
:100100000107DA4501D100F04FF8AFF2090EBAE865
:100110000F0013F0010F18BFFB1A43F0010318473B
:10012000A09D0000C09D00000A444FF0000C10F894
:10013000013B13F0070408BF10F8014B1D1108BF65
:1001400010F8015B641E05D010F8016B641E01F805
:10015000016BF9D113F0080F1EBF10F8014BAD1C55
:100160000C1B09D16D1E58BF01F801CBFAD505E073
:1001700014F8016B01F8016B6D1EF9D59142D6D3CD
:10018000704700000023002400250026103A28BFF5
:1001900078C1FBD8520728BF30C148BF0B607047F9
:1001A0001FB51FBD10B510BD09F090FD1146FFF73A
:1001B000F7FF00F009F809F0AEFD03B4FFF7F2FF16
:1001C00003BC03F0D1FE000008B503F031FE03F0DC
:1001D00099FE4FF4165003F0D6FE00F053FE00F0E7
:1001E000E3FD0020042308220721009000F080FF97
:1001F00009F072FB01214A4809F017F9002148482B
:1002000009F0ABF88BE0474804224749436844486B
:1002100098474548007800F001004449086042488A
:100220000078C0F340004249C1F898013E48007888
:10023000C0F38000C1F894013B480078C0F3C000CF
:10024000C1F8900138480078C0F30010C1F88C0163
:1002500035480078C0F340103649C1F8BC01324837
:100260000078C0F38010C1F8B0012F480078C0F3C7
:10027000C010C1F8AC012C480088C0F30020C1F8C0
:10028000A00129480088C0F340202949C1F8BC01D9
:1002900025480088C0F38020C1F8B80122480088B2
:1002A000C0F3C020C1F8B401234800682149D1F847
:1002B000041140EA41001F49D1F8101140EA8100C1
:1002C0001C49D1F8141140EAC1001A49D1F818119B
:1002D00040EA01101749D1F81C1140EA41101449B5
:1002E000D1F8001140EA81101149D1F8041140EA17
:1002F000C1100F49D1F8281140EA01200C49D1F86A
:100300002C1140EA41200A49D1F8301140EA8120FD
:100310000A4908600348042203680148984772E7C5
:10032000640A0020A00000209C0000209C81214243
:10033000008021420000214200012142980000205B
:10034000704700BFFEE700BFFEE700BFFEE700BF4B
:10035000FEE770477047704710B54FF4005001F04A
:1003600016FF38B14FF4005001F006FF002102489B
:1003700001F0D3FE10BD0000440002400CB5002087
:10038000019000906C48006840F480306A49086031
:1003900000BF6948006800F4003000900198401CDC
:1003A0000190009818B90198B0F5A06FF1D162489A
:1003B000006800F4003010B10120009001E000203E
:1003C00000900098012843D15C48006840F010007C
:1003D0005A4908600846006820F003000860084693
:1003E000006840F002000860534840685249486085
:1003F0000846406848600846406840F480604860AD
:100400000846406820F47C1048600846406840F484
:10041000E81048600846006840F08070086000BF3F
:100420004548006800F000700028F9D04248406854
:1004300020F00300404948600846406840F0020050
:10044000486000BF3C48406800F00C000828F9D123
:100450000CBD10B5FFF792FF10BD10B5364800680F
:1004600040F00100344908600846406834490840BB
:100470003149486008460068324908402E49086002
:100480000846006820F4802008600846406820F490
:10049000FE0048604FF41F008860FFF7DAFF4FF05E
:1004A00000602949086010BD10B50021002000221D
:1004B000214B5B6803F00C0121B1042906D0082907
:1004C00028D107E0214B224C236027E01F4B204C12
:1004D000236023E0184B5B6803F47010164B5B68D5
:1004E00003F48032022303EB904022B9194B4343BB
:1004F000174C23600DE0104B5B6803F4003323B10D
:10050000144B4343124C236003E0104B4343104C05
:10051000236003E00D4B0E4C236000BF00BF064B71
:100520005B68C3F303130C4CE15C094B1B68CB40C5
:10053000074C236010BD0000001002400020024064
:100540000000FFF8FFFFF6FE08ED00E000127A0061
:100550000000002000093D000400002030B50246E4
:100560000B464FF6FF70002112E0555C68400024F6
:100570000AE000F0010525B140104AF2010568408B
:1005800000E04010651CACB2082CF2DB4D1CA9B297
:100590009942EADB30BD2DE9F04104460E46092EB2
:1005A00029D2DFE806F0280C131A21282828050094
:1005B00004F18000F7494870082088701BE004F1BE
:1005C0008000F44948700120887014E004F1800034
:1005D000F0494870022088700DE004F18000ED4978
:1005E00048700320887006E004F18000E949087033
:1005F0000420487000BF00BF0321E648FFF7AEFFAC
:1006000005462F0A05F0FF08E24880F803800771CD
:100610000520E1490880BDE8F0812DE9F04FDF4871
:1006200090F8028090F8039090F804A090F805B03C
:1006300009EB082087B2D948857905EBD57107EB1E
:100640006101402904DD02211020FFF7A4FF30E002
:10065000002412E0082000EB4400D049085C072188
:1006600001EB4401CD4A515C00EB0120C0B23919C5
:10067000CB4A22F81100601C84B205EBD571B4EBB3
:10068000610FE7DB1020C3494870084680F80280FC
:1006900080F8039080F804A080F805B00621FFF7E9
:1006A0005DFF0646BB498E71300AC8710820BA4901
:1006B0000880BDE8F08F2DE9F047B848877890F8BA
:1006C000038090F8049090F805A008EB072084B20E
:1006D0000AEB092086B2402C04DD02210620FFF738
:1006E0005AFF26E0B6F5803F04DB03210620FFF722
:1006F00052FF1EE0AA4820F814600620A549487061
:100700000846877080F80380A54830F81400000A76
:100710000871A34810F81400487106219D48FFF79E
:100720001DFF05469B498D71280AC87108209A490A
:100730000880BDE8F0872DE9F043984890F80280E2
:1007400090F803900679477909EB082085B2402D8F
:1007500004DB02210120FFF71EFF1FE0FF2E03D163
:1007600017B901208F4948551EB917B900208D4986
:100770004855052087494870084680F8028080F86F
:100780000390067147710621FFF7E8FE0446814990
:100790008C71200AC87108207F490880BDE8F08369
:1007A0002DE9F84F7D4890F8029090F803A090F85A
:1007B00004B0407900900AEB092087B2009800EB62
:1007C0000B201FFA80F807EB0800402801DA012F00
:1007D00004DD02210120FFF7DEFE4CE002240AE0E6
:1007E000042404E0002070490855601C84B2202CC9
:1007F000F8DB601C84B2062CF2DB042065494870EB
:100800004FEA4860000E887000241AE00021E01CC6
:10081000604A1154002510E007EBC40028446249E7
:10082000085C00F00100A840E11C5A4A515C0844F1
:10083000C1B2E01C1154681C85B2082DECDB601CB1
:1008400084B254488078A042E0DC52488078C11CD1
:100850005048FFF783FE06464E488078C01C4D4A3C
:100860001654310A10468078001D115410468078C5
:10087000401D49490880BDE8F88F2DE9F04F4748F1
:1008800090F8028090F8039090F804A090F805B0DA
:1008900009EB082087B20BEB0A2084B238194028F4
:1008A00004DD02210320FFF776FE34E003203949FE
:1008B00048706006000E8870002513E078193849EA
:1008C00031F81000000A032101EB4501314A505470
:1008D0007819334911F81000042101EB45015054F7
:1008E000681C85B2A542E9DB032000EB440081B21D
:1008F0002848FFF733FE0646032101EB4401254A51
:100900005654300A042101EB44015054052000EBF9
:10091000440021490880BDE8F08F2DE9F84F1F48B9
:1009200090F8029090F803A090F804B040790090FD
:100930000AEB09201FFA80F8009800EB0B2084B224
:1009400008EB0400402802DAB8F10B0F04DD0221A5
:100950000120FFF720FE5EE002200E494870E117FB
:1009600004EB5171C910A4EBC10141B92046E11754
:1009700004EB5171C1F3C701064A917007E02046AC
:10098000E11704EB5171C910491C024A917000250E
:1009900027E00000800E002094000020000E0020C0
:1009A00014000020C00D0020800D00200021E81C54
:1009B000964A1154002610E008EBC50030449449D3
:1009C000085C00F00100B040E91C904A515C08440A
:1009D000C1B2E81C1154701C86B2082EECDB681CF6
:1009E00085B28A488078A842E0DC88488078C11CBB
:1009F0008648FFF7B3FD074684488078C01C834AC9
:100A00001754390A10468078001D1154104680781A
:100A1000401D80490880BDE8F88F2DE9F84F7E48D9
:100A200090F8029090F803A090F804B040790090FC
:100A30000AEB09201FFA80F8009800EB0B2084B223
:100A400008EB0400402804DB02210120FFF7A3FD8E
:100A500051E001206D494870E11704EB5171C91054
:100A6000A4EBC10141B92046E11704EB5171C1F378
:100A7000C701664A917007E02046E11704EB517107
:100A8000C910491C614A917000251AE00021E81C38
:100A90005E4A1154002610E008EBC50030445F495F
:100AA000085C00F00100B040E91C584A515C084461
:100AB000C1B2E81C1154701C86B2082EECDB681C15
:100AC00085B252488078A842E0DC50488078C11C4A
:100AD0004E48FFF743FD07464C488078C01C4B4A00
:100AE0001754390A10468078001D1154104680783A
:100AF000401D48490880BDE8F88F70B5042043497F
:100B0000087047480078801E81B24348FFF726FDF1
:100B10000446E5B2260A42480078801E3E49085C39
:100B2000A84234D13E480078401E085CB0422ED125
:100B300008464078042817D006DC01280BD002288C
:100B40000CD003281CD10CE0052810D0062811D0A9
:100B5000102815D111E0FFF760FF17E0FFF7DDFE69
:100B600014E0FFF78AFE11E0FFF71AFE0EE0FFF730
:100B7000E2FD0BE0FFF79FFD08E0FFF74EFD05E00B
:100B8000254948780421FFF706FD00BF36E02248DA
:100B9000407804281DD006DC01280BD002280ED096
:100BA00003282AD110E0052818D006281BD01028C9
:100BB00023D11DE008210120FFF7EDFC1DE00821F5
:100BC0000220FFF7E8FC18E008210320FFF7E3FC10
:100BD00013E008210420FFF7DEFC0EE008210520C9
:100BE000FFF7D9FC09E008210620FFF7D4FC04E058
:100BF00008211020FFF7CFFC00BF00BF70BD10B56B
:100C00000448008800F08FF910BD0000800E00201D
:100C1000800D002094000020000E0020C00D002058
:100C2000B00000202DE9F04707460E4690464FF0F1
:100C3000000AB8F1020F01D3022000E040468146CD
:100C400000242FE04E4931F81410306880EA010585
:100C50004C4830F81400A84222D04B480078E0B14C
:100C60004A4830F81400474931F8141069400840E8
:100C700088B9474830F81400424931F814108843C5
:100C8000284040B9434830F814003E4931F8141068
:100C90000840A84308B14FF0010A3A4921F814501E
:100CA000361D641CA9F10100A042CBD8BAF1000F97
:100CB00005D00020B968C880384604F0B6FB012092
:100CC000BDE8F0872DE9F04188B007460D4616468D
:100CD00001200590022E01D3022000E0304680461C
:100CE00000243EE00120022106AA05ABCDE9003236
:100CF000CDE9021007AB002241F20101384603F0B2
:100D0000DEFD384608F032FA042802D09DF81C00B7
:100D1000E0B1214830F81400204931F8141061EA9C
:100D200000001F4931F8141008401D4921F8140033
:100D3000194830F81400194931F8141008401849BE
:100D400031F814100843164921F81400144830F8FB
:100D50001400144931F81410484028602D1D601CFF
:100D6000C4B2A8F10100A042BCDC012008B0BDE87B
:100D7000F0810346002070470346002070470000C2
:100D8000EC000020EA000020E8000020F000002035
:100D9000F2000020F4000020FA000020FC000020F7
:100DA000F6000020F800002008B50121092000F01D
:100DB0007FFE01212F4800F090FC0121102000F05F
:100DC00077FE0121042000F073FE4FF40050ADF8CF
:100DD000000010208DF8030003208DF80200694602
:100DE000254800F0A9FB4FF40051234800F051FCC6
:100DF0004FF41940ADF8000010208DF803000320D7
:100E00008DF8020069461D4800F096FB4FF4194129
:100E10001A4800F03EFC4EF2F800ADF80000102039
:100E20008DF8030003208DF802006946144800F095
:100E300083FB48F2F801124800F02BFCF320ADF8D8
:100E4000000048208DF8030003208DF80200694659
:100E50000A4800F071FB41F60340ADF8000048205D
:100E60008DF8030003208DF802006946044800F065
:100E700063FB08BD00023000001001400008014083
:100E8000000C014000B58BB00121084600F003FEC4
:100E9000424801F075F84248009042480190002015
:100EA0000290802003900020049080200590002074
:100EB0000690079008904FF44050099000200A9047
:100EC0006946364801F0FEF80121344801F025F961
:100ED0003248143801F054F83148009032480190FB
:100EE0001020029080200390002004908020059024
:100EF00000200690079008904FF4005009900020C1
:100F00000A9069462548143801F0DCF801220221D4
:100F10002248143801F00DF901212048143801F05D
:100F2000FCF80BB000BD10B5044621461B48143830
:100F300001F008F901211948143801F0EEF810BD4C
:100F400000B58BB01548503801F01AF817480090DA
:100F50001748019000200290782003900020049010
:100F60008020059040000690800007902020089087
:100F70000002099000200A9069460848503801F0A4
:100F8000A1F801210548503801F0C7F801220221DB
:100F90000248503801F0CDF80BB000BD58000240B7
:100FA00004380140000E0020800E00204C24014037
:100FB000000F002000B587B00121084600F06BFD4E
:100FC00001214FF4017000F073FD0F20ADF8040013
:100FD00000208DF8070001A9414800F0ADFA4FF458
:100FE000004000F0C9FC3F4801F0F4F800200290F6
:100FF00001208DF80C008DF80D004FF46020049056
:101000000020059004208DF8180002A9354801F051
:1010100008F9012001F0C2FA07230122002131481A
:1010200001F097F90723022201212E4801F091F9DE
:101030000723032202212B4801F08BF90723042206
:101040000321284801F085F90121264801F015F90E
:101050000121244801F01CF9224801F030F900BFB9
:10106000204801F031F90028FAD11E4801F036F984
:1010700000BF1C4801F037F90028FAD101211948B6
:1010800001F03BF907B000BD2DE9F0410026002436
:1010900017E0002507E0144800EBC50030F8140005
:1010A0000644681CC5B21E2DF5DB1E2096FBF0F72A
:1010B000384608F03DFE0D4941F824000026601C2A
:1010C000C4B2042CE5DBBDE8F08110B5022001F0CC
:1010D0005EF820B1FFF7D8FF022001F06CF810BDD8
:1010E0000008014000240140000F0020F00F002004
:1010F0002DE9F0418AB004460D4616461F46DDF83C
:1011000040800121480600F0E0FC4FF40070ADF88B
:10111000240003208DF8260018208DF8270009A947
:10112000854800F009FA4FF48070ADF8240048209B
:101130008DF8270003208DF8260009A97E4800F0CD
:10114000FBF901214FF4EA1000F0C7FA7B4801F0E7
:1011500069FA06A801F08AFB00208DF81E008DF8C0
:101160001F008DF8200001208DF8210000208DF84F
:1011700022008DF823008DF81A808DF81B408DF821
:101180001C608DF81D50ADF8187006A96B4801F071
:1011900062FA00208DF812008DF8130001208DF8FE
:1011A00014000020ADF80800ADF80A00ADF80C00FE
:1011B000ADF80E00ADF8100001208DF8150002A862
:1011C00001F0D3FA012202215C4801F0CDFD142088
:1011D0008DF8040001208DF8050000208DF8060030
:1011E00001208DF8070001A800F0DDF800200AB00A
:1011F000BDE8F08110B586B0002401AA00214F4857
:1012000001F097FC4E49019808809DF80D00887008
:101210009DF80E00C87000BF07E00DF10F00015DE2
:101220004748001D0155601CC4B24548C078A04223
:10123000F3DC4349434807F09DFF06B010BD70B58D
:1012400086B00546002428880190002002908DF881
:101250000C00A8788DF80D00E8788DF80E0000BF1E
:1012600006E0281D015D0DF10F000155601C84B2E0
:10127000E878A042F5DC01A9304801F065FB06469C
:10128000002401E0601C84B231462C4801F0F4FBDC
:1012900018B940F6FF708442F4DB40F6FF708442D8
:1012A00002DB012006B070BD0020FBE730B585B041
:1012B000044600256A460021204801F03AFC0098C7
:1012C00020809DF80900A0709DF80A00E07000BF22
:1012D00006E00DF10B00415D201D4155681CC5B2B3
:1012E000E078A842F5DC05B030BD17480068174922
:1012F000D1F8001140EA41001549D1F81C1140EA2B
:1013000081001349D1F8181140EAC1001049D1F801
:10131000141140EA01100E49D1F8101140EA4110B1
:101320000B49D1F8041140EA81100A49096840EAE2
:10133000C110094908707047000C0140006400406A
:1013400000100020640A0020048121420080214214
:101350000000214200012142B200002009488047DC
:1013600009480047FEE7FEE7FEE7FEE7FEE7FEE787
:10137000FEE7FEE7FEE7FEE704480549054A064B9F
:10138000704700005B040008ED00000860120020B8
:1013900060180020601400206014002031490143CF
:1013A000314A1160704770B5002100230F22C478C4
:1013B00004B32D4C246804F4E064C4F5E064210A0D
:1013C000C1F10403CA40447804FA03F1847814405C
:1013D00021430901254C0678A155047804F01F0526
:1013E0000124AC4005786D11AD0005F1E025C5F88C
:1013F000004109E0047804F01F050124AC401C4DB5
:101400000678761145F8264070BD1A4A0A40024314
:10141000154B1B1F1A60704739B1134A121D126811
:101420000243114B1B1D1A6006E00F4A121D126881
:1014300082430D4B1B1D1A607047042808D14FF0E2
:10144000E021096941F004014FF0E022116107E059
:101450004FF0E021096921F004014FF0E022116111
:10146000704700000000FA050CED00E000E400E029
:1014700080E100E080FFFF1F10B50446CC488442A5
:1014800008D10121042000F02DFB0021042000F0F0
:1014900029FB46E0C748844208D10121082000F01A
:1014A00021FB0021082000F01DFB3AE0C2488442E5
:1014B00008D10121102000F015FB0021102000F0C0
:1014C00011FB2EE0BD48844208D10121202000F00C
:1014D00009FB0021202000F005FB22E0B8488442EF
:1014E00008D10121402000F0FDFA0021402000F049
:1014F000F9FA16E0B348844208D10121802000F0B7
:10150000F1FA0021802000F0EDFA0AE0AE488442B2
:1015100007D10121801500F0E5FA0021A01500F0A7
:10152000E1FA10BD10B50121084600F0DBFA0021F8
:10153000012000F0D7FA10BD2DE9F0410246002548
:101540000026002000230024002791F803C00CF09F
:101550000F0591F803C00CF0100CBCF1000F03D084
:1015600091F802C04CEA050591F800C0BCF1000FEB
:1015700031D0146800202BE04FF0010C0CFA00F37E
:10158000B1F800C00CEA03069E4220D183004FF060
:101590000F0C0CFA03F7BC4305FA03FC4CEA0404F5
:1015A00091F803C0BCF1280F06D14FF0010C0CFAE2
:1015B00000FCC2F814C00AE091F803C0BCF1480F67
:1015C00005D14FF0010C0CFA00FCC2F810C0401C11
:1015D0000828D1D31460B1F800C0BCF1FF0F34DD8E
:1015E000546800202EE000F1080C4FF0010808FAC2
:1015F0000CF3B1F800C00CEA03069E4221D183002F
:101600004FF00F0C0CFA03F7BC4305FA03FC4CEA4D
:10161000040491F803C0BCF1280F05D100F1080CB7
:1016200008FA0CF8C2F8148091F803C0BCF1480F16
:1016300007D100F1080C4FF0010808FA0CF8C2F8C5
:101640001080401C0828CED35460BDE8F0814FF6CE
:10165000FF710180022181700421C1707047024630
:10166000002093680B400BB1012000E00020704780
:101670000146886880B2704702460020D3680B405C
:101680000BB1012000E0002070470146C86880B21D
:10169000704701617047416170470AB1016100E024
:1016A00041617047C16070474FF480320A438261E4
:1016B0008161826182698269704702460020434BE2
:1016C00018684FF68073184040EA021008433F4BF9
:1016D000186070473E49C8617047F0B50A4600235C
:1016E00000240021002500F00046B6F1004F02D191
:1016F000364EF16901E0354E7168C0F3034583B29F
:1017000000F44016B6F5401F08D121F070612F4E4D
:10171000766826F070662D4F7E6012E000F4801629
:10172000B6F5801F06D1032606FA05F4A14341F061
:10173000706106E0460D360103FA06F6B14341F04A
:10174000706122B1460D360103FA06F6314300F00E
:101750000046B6F1004F02D11C4EF16101E01B4E74
:101760007160F0BD30B500228B071C0F0F2303FA08
:1017700004F2164B08338C1053F824309343134C67
:1017800008348D1044F8253023468C1053F824304B
:101790008C07240F00FA04F423430C4C08348D10FA
:1017A00044F8253030BD0A49DC310860704700003C
:1017B00000080140000C01400010014000140140ED
:1017C00000180140001C01400020014000000140C1
:1017D00000002042DF48006840F00100DD49086059
:1017E00008464068DC490840DA4948600846006815
:1017F000DA490840D74908600846006820F480208C
:1018000008600846406820F4FE0048604FF41F005E
:1018100088607047CF49096821F48031CD4A116052
:101820001146096821F480211160B0F5803F03D092
:10183000B0F5802F0ED106E0C649096841F4803129
:10184000C44A116007E0C349096841F4A021C14AB4
:10185000116000E000BF00BF704710B501460022D4
:10186000002300204A11012A02D1BA4C236806E065
:10187000022A02D1B74C236A01E0B64C636A01F038
:101880001F02012494401C400CB1012000E0002004
:1018900010BD38B5002000900024002500BF312085
:1018A000FFF7DBFF05460098401C00900098B0F55C
:1018B000A06F01D0002DF2D03120FFF7CEFF08B18C
:1018C000012400E00024204638BD01460020A14A42
:1018D000106820F0F80040EAC10010607047A0498D
:1018E00008607047024600209A4B586820F47C102C
:1018F00042EA01031843974B5860704798490866BD
:10190000704701460020934A506820F003000843C6
:10191000506070478F48406800F00C0070470146E7
:1019200000208C4A506820F0F00008435060704757
:1019300001460020874A506820F4E0600843506068
:10194000704701460020834A506820F4605040EA06
:10195000C1005060704729B17E4A527A02437D4BE4
:101960005A7204E07B4A527A82437A4B5A72704729
:101970007B49D8310860704701460020754A50689D
:1019800020F440400843506070470021714A2032E3
:101990001170704A82F82010012802D004280AD160
:1019A00004E001216B4A2032117005E00521694AEB
:1019B0002032117000E000BF00BF70476949086025
:1019C00070476449096A0143624A11627047654978
:1019D00044390860704730B50021002200240023FC
:1019E0005C4D6D6805F00C0121B1042905D0082972
:1019F00023D105E05C4D056022E05B4D05601FE0F2
:101A0000544D6D6805F47012524D6D6805F48034C4
:101A1000022505EB92421CB9544D554305600BE07D
:101A20004C4D6D6805F400351DB1504D55430560B2
:101A300002E04D4D5543056002E04B4D056000BF8F
:101A400000BF444D6D6805F0F0010909484D6B5C1D
:101A50000568DD4045603F4D6D6805F4E061090AA9
:101A6000434D6B5C4568DD4085603A4D6D6805F41B
:101A70006051C90A3E4D6B5C4568DD40C560354D1F
:101A80006D6805F44041890B3A4D6B5CC568B5FB48
:101A9000F3F5056130BD29B12E4A526902432D4B41
:101AA0005A6104E02B4A526982432A4B5A617047BB
:101AB00029B1284A92690243264B9A6104E0254ADB
:101AC00092698243234B9A61704729B1214AD269B6
:101AD0000243204BDA6104E01E4AD26982431D4B67
:101AE000DA61704729B11B4AD2680243194BDA60A8
:101AF00004E0184AD2688243164BDA60704729B175
:101B0000144A12690243134B1A6104E0114A126924
:101B10008243104B1A617047124940390860704780
:101B20000F49C86470470B49C87170470948406A3B
:101B300040F0807007494862704701460020054A1E
:101B400092680A400AB1012000E000207047014974
:101B500088727047001002400000FFF8FFFFF6FE99
:101B6000000042428004424200127A0000093D0017
:101B7000B3000020C300002010B50446FB48844297
:101B800009D101218803FFF7ADFF00214FF4804008
:101B9000FFF7A8FF32E0F648844209D1012148044A
:101BA000FFF7ADFF00214FF40030FFF7A8FF25E05D
:101BB000F048844209D101218804FFF7A0FF0021E9
:101BC0004FF48020FFF79BFF18E0EB48844209D1D7
:101BD0000121C804FFF793FF00214FF40020FFF715
:101BE0008EFF0BE0E548844208D101210805FFF78C
:101BF00086FF00214FF48010FFF781FF10BD2DE913
:101C0000F04786B005460E460024A24600BFA14616
:101C10000027B08900B100BF2F462C8A4CF6FF7018
:101C20000440F08804432C82AC894EF6F310044043
:101C3000B08831890843718908430443AC81AC8A78
:101C40004FF6FF400440B0890443AC8201A8FFF77F
:101C5000C2FEC648874202D1DDF810A001E0DDF8DF
:101C60000CA0A88900F4004040B10AEBCA0000EBC8
:101C70000A1031684900B0FBF1F807E00AEBCA002E
:101C800000EB0A1031688900B0FBF1F86420B8FB62
:101C9000F0F004012009642101FB1089A88900F4F7
:101CA000004040B1322000EBC900B0FBF1F000F081
:101CB0000700044308E0322000EB09106421B0FB68
:101CC000F1F000F00F0004432C8106B0BDE8F0876E
:101CD0004FF41651016000218180C18001810C21E7
:101CE000418100218181704710B502460020108A91
:101CF0004FF2FF0318400B884C8823438C88234302
:101D0000CC8823431843108210BD002101804180FC
:101D10008180C180704721B1828942F40052828162
:101D200004E082894DF6FF731A4082817047F0B556
:101D30000346002400260025002040F66A17B94219
:101D400000D100BF1846C1F3421401F01F0601275D
:101D500007FA06F5012C01D10C3004E0022C01D168
:101D6000103000E014301AB107682F43076002E01A
:101D70000768AF430760F0BD1AB1838A0B438382C3
:101D800002E0838A8B4383827047028A4FF6F073A6
:101D90001A400282028A0A430282704782894FF205
:101DA000FF731A40828182890A438281704721B180
:101DB000828942F00202828104E082894FF6FD733B
:101DC0001A4082817047028A4FF6DF731A400282FE
:101DD000028A0A430282704721B1028A42F4804299
:101DE000028204E0028A4BF6FF731A4002827047B7
:101DF000C1F308028280704701468888C0F308005A
:101E00007047818941F0010181817047028BD2B214
:101E10000283028B42EA012202837047028B02F4A2
:101E20007F420283028B0A430283704721B1828A78
:101E300042F02002828204E0828A4FF6DF731A4069
:101E40008282704721B1828A42F01002828204E0CD
:101E5000828A4FF6EF731A408282704721B1828ADC
:101E600042F00802828204E0828A4FF6F7731A4039
:101E70008282704721B1828942F40042828103E06C
:101E80008289C2F30E028281704721B1828A42F4B4
:101E90000062828204E0828A4FF2FF731A408282DB
:101EA0007047828A4FF6FB731A408282828A0A4305
:101EB0008282704721B1828A42F00202828204E06B
:101EC000828A4FF6FD731A408282704702460020D4
:101ED000B1F5007F00D100BF13880B400BB101208A
:101EE00000E00020704701F40072B2F5007F00D1DD
:101EF00000BFCA430280704770B502460024002329
:101F00000025002040F66A16B14200D100BFC1F39F
:101F1000421501F01F03012606FA03F3012D02D139
:101F20009689334006E0022D02D1168A334001E043
:101F3000968A33400C12012606FA04F416883440BF
:101F400013B10CB1012000E0002070BD10B50022DB
:101F5000002340F66A14A14200D100BF0A120124F6
:101F60009440A3B2DC43048010BD0000003801405F
:101F70000044004000480040004C00400050004039
:101F800001684FF6FE72114001600021016041605E
:101F90008160C1608D49884208D18C4908394968FF
:101FA00041F00F01894A083A51608AE087491431AB
:101FB000884208D185490839496841F0F001834ACF
:101FC000083A51607DE081492831884208D17F4933
:101FD0000839496841F470617C4A083A516070E000
:101FE0007A493C31884208D178490839496841F436
:101FF0007041764A083A516063E074495031884232
:1020000008D172490839496841F470216F4A083A89
:10201000516056E06D496431884208D16B490839F6
:10202000496841F47001694A083A516049E06749DA
:102030007831884208D165490839496841F07061B2
:10204000624A083A51603CE06149884206D1011F6A
:10205000096841F00F01021F116032E05C49143140
:10206000884208D15A49091F096841F0F001584ACD
:10207000121F116025E056492831884208D1544981
:10208000091F096841F47061514A121F116018E07C
:102090004F493C31884208D14D49091F096841F434
:1020A00070414B4A121F11600BE049495031884280
:1020B00007D14749091F096841F47021444A121F9A
:1020C0001160704710B50022026847F6F0739A431A
:1020D0000C6A8B6823430C6923434C6923438C6946
:1020E0002343CC6923434C6A23438C6A23431A431A
:1020F0000260CB6843600B6883604B68C36010BDAF
:102100000021016041608160C160016141618161C4
:10211000C161016241628162704721B1026842F08F
:102120000102026004E002684FF6FE731A4002608A
:1021300070471AB103680B43036002E003688B43E6
:1021400003607047416070470146486880B270473D
:1021500001460020002201F080531BB11C4B083BBC
:102160001A6802E0194B083B1A6802EA01030BB136
:10217000012000E00020704700F0805119B114499F
:10218000091F086002E0114908394860704701469C
:102190000020002201F080531BB10D4B083B1A6850
:1021A00002E00A4B083B1A6802EA01030BB1012066
:1021B00000E00020704700F0805119B10449091F68
:1021C000086002E001490839486070470800024091
:1021D0000804024010B50446FA48844208D101219F
:1021E0004015FFF77FFC00216015FFF77BFC17E02F
:1021F000F548844208D101210015FFF773FC002146
:102200002015FFF76FFC0BE0F048844208D1012154
:10221000C803FFF767FC00214FF40040FFF762FCA2
:1022200010BD30B50246002000235068E84C204025
:102230000D790C6844EA0524204350609068E54C11
:102240002040D1E902542C434D7944EA450420430F
:102250009060D06A20F470000C7C641EE4B22343CA
:1022600040EA0350D06230BD00210160017141712C
:102270008160C16001210174704721B1826842F020
:102280000102826003E0826822F0010282607047EE
:1022900021B1826842F48072826003E0826822F495
:1022A00080728260704710B50023CBB21AB14468C7
:1022B0001C43446002E044689C43446010BD816854
:1022C00041F0080181607047014600208A6802F0F1
:1022D00008020AB1012000E000207047816841F047
:1022E000040181607047014600208A6802F0040200
:1022F0000AB1012000E00020704721B1826842F459
:10230000A002826003E0826822F4A002826070472B
:10231000014600208A6802F480020AB1012000E030
:102320000020704710B50A4600210023416821F4BF
:102330006041531E41EA4331416010BD21B1426802
:1023400042F40062426003E0426822F400624260AC
:102350007047F0B504460D4600200021092D11DD1F
:10236000E068A5F10A0606EB4607072606FA07F11C
:102370008843A5F10A0606EB460603FA06F1084370
:10238000E0600CE0206905EB4507072606FA07F137
:10239000884305EB450603FA06F108432061072A46
:1023A0000FDA606B561E06EB86071F2606FA07F14A
:1023B0008843561E06EB860605FA06F1084360635D
:1023C00022E00D2A0FDA206BD61F06EB86071F26A8
:1023D00006FA07F18843D61F06EB860605FA06F1D2
:1023E0000843206310E0E06AA2F10D0606EB8607C1
:1023F0001F2606FA07F18843A2F10D0606EB8606B2
:1024000005FA06F10843E062F0BD21B1826842F4AA
:102410008012826003E0826822F48012826070473A
:102420000146C86C80B2704766484C3000687047FF
:1024300021B1426842F48062426003E0426822F4C3
:1024400080624260704721B1426842F4805242602B
:1024500003E0426822F48052426070470A4600213D
:10246000816821F4E04111438160704721B18268A5
:1024700042F40042826003E0826822F400428260FB
:10248000704721B1826842F40212826003E08268E0
:1024900022F4021282607047014600208A6802F42A
:1024A00000120AB1012000E000207047F0B5044698
:1024B0001546002000220026092911DDE068A1F15F
:1024C0000A0707EB470C072707FA0CF29043A1F124
:1024D0000A0707EB470703FA07F21043E0600CE036
:1024E000206901EB410C072707FA0CF2904301EB3E
:1024F000410703FA07F210432061A06BC0F30156B5
:10250000EF1C06F1010CA7EB0C0707EB870C1F274C
:1025100007FA0CF29043EF1C06F1010CA7EB0C0735
:1025200007EB870701FA07F21043A063F0BD10B56F
:102530000A4600210023816B21F44011531E41EA19
:102540000351816310BD08B5002300930090009BE8
:102550000B440093009B1A6008BD08B5024600209A
:102560000090009201F12800009B18440090009810
:10257000006880B208BD0A4600214168164B194028
:102580001143416070474162826270470A460021F0
:10259000416821F01F0111434160704740B1094972
:1025A0000831096841F40001064A0832116007E069
:1025B00004490831096821F40001024A0832116017
:1025C000704700000024014000280140003C014009
:1025D000FFFEF0FFFDF7F1FFFFFD3FFF0246002089
:1025E00013680B400BB1012000E000207047CA4384
:1025F0000260704770B502460020002300240B12D1
:102600005568CEB205EA060415681D4015B10CB137
:10261000012000E0002070BD00220A12D3430360B5
:102620007047000010B50446FE48844209D10121DC
:102630004806FFF764FA00214FF00070FFF75FFAD9
:1026400008E001218806FFF75AFA00214FF0806068
:10265000FFF755FA10BD30B502460020002314687C
:1026600024F002041460146844F00104146000E0D3
:102670005B1C546804F001041CB94FF6FF74A342BC
:10268000F6D1546804F001040CB900206CE08C7998
:10269000012C04D1146844F08004146003E0146831
:1026A00024F080041460CC79012C04D1146844F027
:1026B0004004146003E0146824F0400414600C7AB1
:1026C000012C04D1146844F02004146003E0146861
:1026D00024F0200414604C7A012C04D1146844F0D6
:1026E0001004146003E0146824F0100414608C7A61
:1026F000012C04D1146844F00804146003E0146849
:1027000024F008041460CC7A012C04D1146844F03D
:102710000404146003E0146824F0040414608C784A
:10272000A407CD7844EA05640D7944EA05444D795F
:1027300044EA05540D886D1E2C43D461146824F0BE
:1027400001041460002300E05B1C546804F00104E1
:102750001CB14FF6FF74A342F6D1546804F0010493
:102760000CB1002000E0012030BD10B50021837ABB
:10277000012202FA03F1AC4A126842F00102AA4BAC
:102780001A60A94A1C3212688A43A74B1C331A608C
:10279000027BCAB9A44A0C3212688A43A24B0C339A
:1027A0001A604288C38842EA03439F4A4032847ACF
:1027B00042F834300288838842EA03439A4A40321E
:1027C000847A02EBC4025360027B012A19D1964A33
:1027D0000C3212680A43944B0C331A604288038807
:1027E00042EA0343904A4032847A42F83430C28845
:1027F000838842EA03438C4A4032847A02EBC40263
:102800005360C27A3AB9884A121D12688A43864BCD
:102810001B1D1A6006E0844A121D12680A43824B8F
:102820001B1D1A60028932B97F4A143212688A432A
:102830007D4B14331A600289012A06D17A4A143278
:1028400012680A43784B14331A60427B012A06D17E
:10285000754A1C3212680A43734B1C331A60724A61
:10286000126822F00102704B1A6010BD00218171C4
:10287000C171017241728172C1728170C170032194
:102880000171022141710121018070476649096887
:1028900041F00101644A11601146096843F60E7265
:1028A0009143614A11601146096841EA00211160B3
:1028B0001146096821F001011160704721B10268D9
:1028C00042F48032026003E0026822F48032026047
:1028D0007047E1B1026842F0800202604FF4C272B8
:1028E000125842F480734FF4C27213504FF4CA72FC
:1028F000125842F480734FF4CA7213504FF4D272DC
:10290000125842F480734FF4D27213501BE00268E5
:1029100022F0800202604FF4C272125822F48073D7
:102920004FF4C27213504FF4CA72125822F48073DB
:102930004FF4CA7213504FF4D272125822F48073BB
:102940004FF4D2721350704710B5024600209368BE
:1029500003F08063B3F1806F00D110E0936803F05F
:102960000063B3F1006F01D1012008E0936803F028
:102970008053B3F1805F01D1022000E004200428DD
:1029800079D002F5C07303EB00131B6803F0010458
:1029900002F5C07303EB00131C600B7A7BB94B7A12
:1029A0000C8843EA445302F5C07404EB0014246815
:1029B000234302F5C07404EB0014236010E00B7A8B
:1029C0004C6843EAC4034C7A234302F5C07404EB19
:1029D00000142468234302F5C07404EB0014236040
:1029E0008B7A03F00F038B7202F5C07303EB0013B5
:1029F0005B6823F00F0402F5C07303EB00135C6007
:102A000002F5C07303EB00135B688C7A234302F575
:102A1000C07404EB001463608B7B1C064B7B44EAA0
:102A2000034403E000640040006600400B7B44EA7E
:102A30000323CC7A234302F5C07404EB0014A36093
:102A40008B7C1C064B7C44EA03440B7C44EA032346
:102A5000CC7B234302F5C07404EB0014E36002F561
:102A6000C07303EB00131B6843F0010402F5C0734D
:102A700003EB00131C6010BD10B50246002321B10A
:102A8000012907D002290FD109E09068F94C00EA2A
:102A900004030BE09068F84C00EA040306E0906839
:102AA000F64C00EA040301E0002300BF00BFF44C31
:102AB000181BA34216D007DC83B16FF08060184466
:102AC00070B1022818D111E0B0F5007F10D0ED4CA4
:102AD000204448B1B0F5003F0ED10BE002230DE0D9
:102AE00000230BE0002309E0002307E0012305E0B9
:102AF000012303E0012301E0002300BF00BFD8B29F
:102B000010BD21B1012907D002290FD109E0826847
:102B100042F0800282600AE0826842F400428260F1
:102B200005E0826842F40002826000E000BF00BF5E
:102B3000704710B500F5D87303EB01131B6803F061
:102B400004031372137A53B900F5D87303EB01131E
:102B50001B6840F2FF7404EA5353136009E000F568
:102B6000D87303EB01131B686FF0604404EAD303CE
:102B7000536000F5D87303EB01131B6803F00203E5
:102B8000537200F5D87303EB01135B6803F00F0376
:102B9000937200F5D87303EB01135B681B0AD374BF
:102BA00000F5D87303EB01139B68D37200F5D8735B
:102BB00003EB01139B681C0A147300F5D87303EB35
:102BC00001139B681C0C547300F5D87303EB0113BD
:102BD0009B681B0E937300F5D87303EB0113DB683E
:102BE000D37300F5D87303EB0113DB681C0A14746C
:102BF00000F5D87303EB0113DB681C0C547400F56B
:102C0000D87303EB0113DB681B0E937421B9C368FF
:102C100043F02003C36003E0036943F02003036132
:102C200010BD21B9C26842F02002C26003E002690F
:102C300042F02002026170470246002019B9D368B1
:102C400003F0030006E0012903D1136903F0030038
:102C500000E00020704710B502460B4600204FF6FA
:102C6000FF71BBB9146824F0020444F0010414603D
:102C700000E0491E546804F00304012C01D000292F
:102C8000F7D1546804F00304012C01D0002032E095
:102C9000012030E0012B13D1146824F003041460E8
:102CA00000E0491E546804F003040CB10029F8D177
:102CB000546804F003040CB100201CE001201AE069
:102CC000022B17D1146824F0010444F002041460AC
:102CD00000E0491E546804F00304022C01D00029CE
:102CE000F7D1546804F00304022C01D0002002E064
:102CF000012000E0002010BD014600200A6822F0FB
:102D0000010242F002020A604A6802F00302022A4B
:102D100000D10120704701464FF6FF7200200B687A
:102D200023F002030B6000E0521E4B6803F0020325
:102D3000022B01D1002AF7D14B6803F00203022BCA
:102D400000D001207047014600208A6902F070001F
:102D50007047014600208A69100E70470146002026
:102D60008A69C2F3074070471AB143690B43436154
:102D700002E043698B434361704710B5024600206F
:102D800001F4700343B19369C1F3130423400BB101
:102D900001202DE000202BE001F0807343B1536847
:102DA000C1F3130423400BB1012021E000201FE0F8
:102DB00001F0006343B19368C1F3130423400BB1E6
:102DC000012015E0002013E001F0007343B1D36847
:102DD000C1F3130423400BB1012009E0002007E0F8
:102DE0001369C1F3130423400BB1012000E000205C
:102DF00010BD0022244B994202D10023836111E0CF
:102E0000C1F3130201F000730BB1C2600AE001F0DC
:102E100080630BB1026105E001F000630BB18260D9
:102E200000E0426070470246002002EA01030BB155
:102E3000012000E00020704770B504460D460026D2
:102E400060692840002872D0B5F5807F69D01DDC0C
:102E5000082D42D006DC012D2DD0022D31D0042DBD
:102E60007FD134E0102D3ED0202D42D0402D78D19E
:102E700045E0000003000004000300080000031008
:102E8000000100080001FFF77000F030B5F5004FB9
:102E900061D009DCB5F5007F4AD0B5F5806F4DD023
:102EA000B5F5006F5DD150E0B5F5803F2DD0B5F59B
:102EB000003F56D12FE0A0685549FFF7B4FF064602
:102EC00051E0E0680321FFF7AEFF06464BE0E06803
:102ED0000821FFF7A8FF064645E0E0681021FFF74C
:102EE000A2FF06463FE020690321FFF79CFF06464C
:102EF00039E020690821FFF796FF064633E0206994
:102F00001021FFF790FF06462DE060680821FFF7CB
:102F10008AFF064627E060681021FFF784FF064617
:102F200021E0A0690121FFF77EFF06461BE01BE0C0
:102F3000A0690221FFF777FF064614E0A06904218B
:102F4000FFF771FF06460EE00BE0A0697021FFF766
:102F50006AFF064607E060680421FFF764FF064643
:102F600001E0002600BF00E00026304670BDB1F54C
:102F7000007F3AD00FDC202928D006DC01291CD0A4
:102F800004291DD0082940D11DE0402921D0B1F5E8
:102F9000807F3AD126E0B1F5004F31D006DCB1F5A3
:102FA000806F25D0B1F5006F2FD124E0B1F5803FBF
:102FB00012D0B1F5003F28D111E0154A826025E01A
:102FC0000822C26022E01022C2601FE008220261D3
:102FD0001CE01022026119E00822426016E0102273
:102FE000426013E00422426010E0042242600DE0DF
:102FF000042242600AE0002282610422426005E06D
:10300000002282610422426000E000BF00BF7047DE
:103010000101010010B50446FE48844208D1012197
:10302000C014FEF75FFD0021E014FEF75BFDC4E075
:10303000B4F1804F08D101210846FEF760FD002160
:103040000120FEF75CFDB8E0F348844208D101217D
:103050000220FEF754FD00210220FEF750FDACE0F7
:10306000EE48844208D101210420FEF748FD0021EA
:103070000420FEF744FDA0E0E948844208D1012184
:103080000820FEF73CFD00210820FEF738FD94E003
:10309000E448844208D101211020FEF730FD0021D0
:1030A0001020FEF72CFD88E0DF48844208D1012182
:1030B0002020FEF724FD00212020FEF720FD7CE0EB
:1030C000DA48844208D101214014FEF70BFD0021AB
:1030D0006014FEF707FD70E0D548844209D1012154
:1030E000C804FEF7FFFC00214FF40020FEF7FAFCB5
:1030F00063E0D048844209D101210805FEF7F2FCC3
:1031000000214FF48010FEF7EDFC56E0CA488442DF
:1031100009D101214805FEF7E5FC00214FF400101C
:10312000FEF7E0FC49E0C548844208D10121402077
:10313000FEF7E5FC00214020FEF7E1FC3DE0C04841
:10314000844208D101218020FEF7D9FC0021802093
:10315000FEF7D5FC31E0BB48844208D1012180153F
:10316000FEF7CDFC0021A015FEF7C9FC25E0B6480E
:10317000844209D101210804FEF7B4FC00214FF478
:103180008030FEF7AFFC18E0B048844209D101213D
:103190004804FEF7A7FC00214FF40030FEF7A2FC24
:1031A0000BE0AB48844208D101218804FEF79AFC69
:1031B00000214FF48020FEF795FC10BD002202880C
:1031C000944B98420ED0994B98420BD0B0F1804F5F
:1031D00008D0914B984205D0904B984202D0904B2A
:1031E000984204D14FF68F731A404B881A438D4B87
:1031F000984207D08C4B984204D04FF6FF431A40B8
:10320000CB881A4302808B8883850B880385814B8A
:1032100098420BD0854B984208D08B4B984205D0F2
:103220008A4B984202D08A4B984201D10B7A03868E
:1032300001238382704770B5002400220023058C8F
:103240004FF6FE7635400584028C8388048B4FF65A
:103250008F752C40B51E2C400D882C43751E2A40BE
:103260000D892A434D882A436A4DA8420BD06F4DE1
:10327000A84208D0744DA84205D0744DA84202D08F
:10328000734DA84213D14FF6F7752A404D892A4352
:103290004FF6FB752A408D882A434FF6FF652B4079
:1032A0004FF6FF552B408D892B43CD892B438380CF
:1032B0000483CD888586028470BD70B50024002209
:1032C0000023058C4FF6EF7635400584028C838809
:1032D000048B48F6FF752C404FF6FF452C400D88B7
:1032E0004FF6FF7606EA05252C434FF6DF752A4098
:1032F0000D8906EA05152A434D8806EA05152A4375
:10330000444DA84202D0494DA8421DD14FF67F75C9
:103310002A404D894FF6FF7606EA05152A434FF6F7
:10332000BF752A408D8806EA05152A434FF6FF35FA
:103330002B404FF2FF752B408D8906EA85052B4304
:10334000CD8906EA85052B4383800483CD880587D4
:10335000028470BD70B5002400220023058C4FF656
:10336000FF6635400584028C8388848B4FF68F7509
:103370002C404FF6FC752C400D882C434FF6FF5522
:103380002A400D894FF6FF7606EA05252A434D8827
:1033900006EA05252A431F4DA84202D0234DA84224
:1033A0001DD14FF2FF752A404D894FF6FF7606EA90
:1033B00005252A434FF6FF352A408D8806EA052564
:1033C0002A434EF6FF752B404DF6FF752B408D8935
:1033D00006EA05152B43CD8906EA05152B438380A4
:1033E0008483CD888587028470BD70B50022002358
:1033F0000024058C4EF6FF7635400584038C8488C6
:10340000828B48F6FF752A404FF6FF452A400D880B
:1034100020E00000002C01400004004000080040B3
:10342000000C004000100040001400400034014037
:10343000004C014000500140005401400018004081
:10344000001C0040002000400040014000440140BA
:10345000004801404FF6FF7606EA05252A434DF65F
:10346000FF752B400D8906EA05352B434D8806EA8A
:1034700005352B43FA4DA84202D0FA4DA84208D197
:103480004BF6FF752C408D894FF6FF7606EA8515C1
:103490002C4384808283CD88A0F84050038470BD83
:1034A000828B4FF2FF331A408283828B4FF6FF7379
:1034B00003EA01231A4382837047F0B50C46154690
:1034C000002200210026078C4EF6FF7C07EA0C073D
:1034D0000784828B018C4FF6FF7707EA043640F6AB
:1034E000FF473A404FF6FF7707EA05273A434FF682
:1034F000FF7707EA03373A43D94FB8420ED0D94F86
:10350000B8420BD0B0F1804F08D0D74FB84205D0A9
:10351000D64FB84202D0D64FB84206D14DF6FF770B
:10352000394046F48057394305E047F6FF573940A4
:1035300044F48057394382830184F0BD828B4FF677
:10354000F3731A408283828B0A4382837047F0B5FB
:103550000C461546002200210026078C4FF6FF6C12
:1035600007EA0C070784828B018C4FF6FF7707EA86
:1035700004264FF60C773A404FF6FF7707EA031719
:103580002F433A43B64FB8420ED0B64FB8420BD095
:10359000B0F1804F08D0B44FB84205D0B34FB84215
:1035A00002D0B34FB84206D14FF6FF57394046F428
:1035B0008077394305E04FF2FF57394044F4807774
:1035C000394382830184F0BD028B4FF2FF331A40EE
:1035D0000283028B4FF6FF7303EA01231A4302832F
:1035E0007047F0B50C461546002200210026078CD6
:1035F0004FF6EF7C07EA0C070784028B018C4FF62D
:10360000FF7707EA041640F6FF473A404FF6FF7788
:1036100007EA03373A434FF6FF7707EA05273A43AD
:103620008F4FB8420ED08F4FB8420BD0B0F1804FC1
:1036300008D08D4FB84205D08C4FB84202D08C4F85
:10364000B84206D14FF6DF77394046F010073943CC
:1036500005E04FF65F77394044F0100739430283A5
:103660000184F0BD028B4FF6F3731A400283028B84
:103670000A4302837047F0B50C461546002200212C
:10368000068C4FF6FE773E400684028B018C4FF687
:103690000C7632407E1C06EA03162E433243704EEF
:1036A000B0420ED06F4EB0420BD0B0F1804F08D078
:1036B0006D4EB04205D06D4EB04202D06C4EB0425D
:1036C00006D14FF6FD76314044F00106314305E066
:1036D0004FF6F576314044F0010631430283018410
:1036E000F0BD70B505460C465D4885420ED05D487C
:1036F00085420BD0B5F1804F08D05B48854205D09C
:103700005A48854202D05A48854200D100E000BFA5
:10371000208850B92389A28861882846FFF7ABFF2B
:10372000E1882846FFF79EFF25E0208804280AD17B
:103730002389A28861882846FFF753FFE18828463D
:10374000FFF742FF17E0208808280AD12389A288C2
:1037500061882846FFF7FBFEE1882846FFF7EEFE6A
:1037600009E02389A28861882846FFF7A6FEE18840
:103770002846FFF795FE70BD2DE9F04105460C4641
:1037800000260127608808B9022600E00026A088EC
:10379000012801D1022700E001272088A0B9238950
:1037A000A28861882846FFF766FFE1882846FFF770
:1037B00059FF23893A4631462846FFF712FFE18830
:1037C0002846FFF701FF13E02389A2886188284675
:1037D000FFF707FFE1882846FFF7F6FE23893A4600
:1037E00031462846FFF747FFE1882846FFF73AFFB2
:1037F000BDE8F0810A884B881A438B881A43CB882E
:103800001A430B891A434B891A438B891A43A0F830
:10381000442070474FF6FF71818000210180C180F4
:103820004180017270470021018041808180C18008
:10383000018141818181C1817047002101804180E6
:10384000012181800021C180018170470021018018
:1038500041808180C1800181418181817047000068
:10386000002C0140003401400004004000080040EA
:10387000000C004021B1028842F00102028004E005
:1038800002884FF6FE731A400280704731B1B0F8DB
:10389000442042F40042A0F8442005E0B0F844205F
:1038A000C2F30E02A0F8442070471AB183890B437B
:1038B000838102E083898B438381704781827047D3
:1038C00041EA0203A0F8483070471AB183890B43DC
:1038D000838102E083898B438381704701894FF69E
:1038E000F8721140018170470A46002101894FF6A4
:1038F0008F73194011430181704730B504460D465E
:1039000029462046FFF7F0FF208940F0070020817C
:1039100030BD2DE9F04104460D4616461F46602D88
:1039200006D13B46012231462046FFF75AFE05E00C
:103930003B46012231462046FFF79DFE29462046A0
:10394000FFF7D2FF208940F007002081BDE8F08119
:1039500030B50C4600210189C9B24FF6FF7505EA62
:103960000325154325432943018130BD2DE9F0414D
:1039700005460E4617469846002443463A463146C9
:103980002846FFF7E5FF2C894FF6F870044044F015
:1039900007044FF68F70044044F070042C81BDE89A
:1039A000F081F0B504460D4616461F463B463246AA
:1039B00029462046FFF7CCFF208940F48040208133
:1039C000F0BD0185828270470A46002101884FF6CA
:1039D0008F731940114301807047F0B50C461546AE
:1039E0001E460021002200230189028B038C4FF622
:1039F000F877394021434FF6FC473A4040F201172F
:103A00003A434FF6DD773B404FF6FF7707EA06175C
:103A10002F433B43018102830384F0BD0A4600210A
:103A2000018B4FF68F7319401143018370470A468B
:103A30000021018B48F6FF7319404FF6FF7303EA2C
:103A400002231943018370470A460021818B4FF6F8
:103A50008F7319401143818370470A460021818B7F
:103A600048F6FF7319404FF6FF7303EA0223194328
:103A70008183704721B1028842F08002028004E015
:103A800002884FF67F731A400280704721B1828806
:103A900042F00402828004E082884FF6FB731A40F1
:103AA0008280704721B1828842F00802828004E05F
:103AB00082884FF6F7731A408280704721B182885E
:103AC00042F00102828004E082884FF6FE731A40C1
:103AD000828070470A460021018B4FF6F773194028
:103AE0001143018370470A460021018B4FF2FF7397
:103AF00019404FF6FF7303EA02231943018370470D
:103B00000A460021818B4FF6F773194011438183D8
:103B100070470A460021818B4FF2FF7319404FF620
:103B2000FF7303EA02231943818370470A46002189
:103B3000018B4FF6FB7319401143018370470A460E
:103B40000021018B4FF6FF3319404FF6FF7303EA54
:103B500002231943018370470A460021818B4FF6E7
:103B6000FB7319401143818370470A460021818B02
:103B70004FF6FF3319404FF6FF7303EA0223194350
:103B8000818370470A460021018B4FF67F731940ED
:103B90001143018370470A460021018BC1F30E01D6
:103BA0004FF6FF7303EA02231943018370470A4665
:103BB0000021818B4FF67F73194011438183704739
:103BC0000A460021818BC1F30E014FF6FF7303EA11
:103BD00002231943818370470A460021018C4FF666
:103BE000FD7319401143018470470A460021018C7E
:103BF0004FF6F77319401143018470470A460021BC
:103C0000018C4FF6DF7319404FF6FF7303EA02137E
:103C10001943018470470A460021018C4FF67F73D7
:103C200019404FF6FF7303EA0213194301847047EA
:103C30000A460021018C4FF6FF5319404FF6FF73DF
:103C400003EA02231943018470470A460021018CCC
:103C50004FF2FF7319404FF6FF7303EA0223194333
:103C6000018470470A460021018C4DF6FF7319400C
:103C70004FF6FF7303EA023319430184704730B5EE
:103C8000002301248C40A3B2048C9C430484048C44
:103C900002FA01F5ADB22C43048430BD30B50023E7
:103CA00004248C40A3B2048C9C430484048C02FA48
:103CB00001F5ADB22C43048430BD70B5034600203D
:103CC00000241846183001258D40ACB21D8CA54348
:103CD0001D8409B1082909D100EB6100056825F0B0
:103CE000700505600568154305600EE00D1FC5F3FE
:103CF0004E052844056825F4E045056005684FF643
:103D0000FF7606EA02263543056070BD21B10288C0
:103D100042F00202028004E002884FF6FD731A406E
:103D20000280704721B1028842F00402028004E060
:103D300002884FF6FB731A400280704721B18288D7
:103D400042F08002828004E082884FF67F731A403E
:103D50008280704702884FF6F7731A40028002880B
:103D60000A430280704782884FF68F731A40828020
:103D700082880A438280704702894FF6F8731A409E
:103D8000028102890A430281704702894FF67F73DC
:103D90001A40028102890A43028170478184704778
:103DA000818570478186704701877047818770479A
:103DB000A0F84010704702884FF6FF431A40028077
:103DC00002880A43028070470146888E7047014688
:103DD000088F70470146888F70470146B1F8400050
:103DE00070470146888C70470146088D704702462F
:103DF0000020138A0B400BB1012000E00020704727
:103E0000CA430282704730B50246002000230024D6
:103E1000158A05EA0103958905EA010413B10CB17D
:103E2000012000E0002030BDCA430282704700003C
:103E300010B56FF00400FDF700FB2E4800682E4916
:103E4000B0FBF1F02D4908700846007800EB400106
:103E5000C1EBC0104FF6FF7101EAC000284908808D
:103E600010BD0146254A12784A434FF0E0235A61BB
:103E700000229A611A46126942F001021A6100BFDB
:103E80004FF0E022106900F001021AB100F4803214
:103E9000002AF5D04FF0E022126922F001024FF023
:103EA000E0231A6100229A6170470146144A128881
:103EB0004A434FF0E0235A6100229A611A46126980
:103EC00042F001021A6100BF4FF0E022106900F0D9
:103ED00001021AB100F48032002AF5D04FF0E0223E
:103EE000126922F001024FF0E0231A6100229A6168
:103EF000704700000000002000127A00C800002077
:103F0000CA00002008B54FF4A060FDF747FA25204D
:103F10008DF8000003208DF801008DF802000120CB
:103F20008DF803006846FDF73EFA0E208DF800007C
:103F300002208DF8010001208DF802008DF80300A9
:103F40006846FDF730FA0B208DF8000001208DF84F
:103F5000010000208DF8020001208DF80300684662
:103F6000FDF721FA08BD0000014600BF704700BF01
:103F70004A4A128802F04002002AF9D0C2B2474BE6
:103F80001B1D1A80704710B586B00446012144F20B
:103F90000400FDF78DFD4FF40070ADF81400032010
:103FA0008DF8160018208DF8170005A93C48FDF77C
:103FB000C3FA4FF48060ADF8140004208DF81700A8
:103FC00005A93748FDF7B8FA01940020ADF80800BC
:103FD000ADF80A00ADF80C00ADF810000C20ADF8FB
:103FE0000E0001A92D48FDF70AFE002240F22661CD
:103FF0002A48FDF79CFE002240F225512748FDF794
:1040000096FE012240F224412448FDF790FE012251
:1040100040212248FDF7B0FE012280211F48FDF714
:10402000ABFE01211D48FDF776FE06B010BD10B5B0
:1040300040F224411948FDF75FFF68B30021194899
:10404000FEF76BF815480088174908701348001DE3
:10405000008808701348FEF777F8C0F18000124915
:10406000087080200F495839C8650F48007800282B
:104070000EDD0E480078042802D00C48007838B9CC
:10408000FCF73BFD09480078042801D1FCF7B7FD97
:1040900001210448FEF741F810BD0000003801403E
:1040A0000008014058000240B0000020000E00202F
:1040B00030B503460C46D3F8E802007860B9002119
:1040C00006E00020D3F8EC5245F82100481CC1B2AC
:1040D00093F8E5028842F4DC002030BD10B50446B8
:1040E000AFF23303002241F20301204600F036FD17
:1040F0000020D4F8E812087010BD70472DE9FE4387
:1041000004460D4690461E460A9FD4F8F4020088E5
:1041100080B2ADF8000000208DF80200E8B28DF802
:104120000400290A8DF805108DF8068066B9002173
:104130008DF807108DF808108DF809108DF80A1009
:104140008DF80B10052708E0052F00DD05273A46FE
:1041500031460DF1070005F03EFDF81CC0B28DF8A8
:1041600003006946D4F8C00205F0E2FBBDE8FE8317
:104170002DE9F84304460E4690469946002517E07F
:1041800004F53E7030F82500B0420FD104F53E70C2
:1041900000EB8500C07810B10020BDE8F883012154
:1041A00004F53E7000EB8500C17003E0681CC5B2E9
:1041B000082DE5DB00BF082D0DD1002508E004F532
:1041C0003E7000EB8500C07800B903E0681CC5B202
:1041D000082DF4DB00BF082D01D10120DDE704F537
:1041E0003E7020F8256000EB850080F802800121F8
:1041F00004F53E7000EB8500C170012084F8E402F4
:10420000002500270EE004F53E7000EB8500C07825
:10421000012805D104F53E7000EB85008078074346
:10422000681CC5B2082DEEDBD4F8F002077094F8D4
:10423000E502401EC5B20BE0D4F8EC0200EB8500AD
:1042400050F8040CD4F8EC1241F82500681EC5B2F1
:10425000002DF1DC46EA0940D4F8EC120860D4F8ED
:10426000E802007894F8E512884206DAD4F8E80209
:104270000078401CD4F8E812087040F25B10005D32
:1042800050B100200090D4F8F002027800233146AB
:104290002046FFF733FF80E701207EE72DE9F84352
:1042A00005460F464FF00008002408E005F53E7073
:1042B00030F82400B84200D103E0601CC4B2082CDE
:1042C000F4DB00BF082C36D005F53E7000EB84000F
:1042D000C07801282FD1002105F53E7000EB840045
:1042E000C170002400260FE005F53E7000EB84004D
:1042F000C078012806D1804605F53E7000EB8400A9
:1043000080780643601CC4B2082CEDDBB8F1000FC6
:104310000ED1002085F8E40240F25B10405D38B118
:10432000002003460246014600902846FFF7E6FEBD
:10433000D5F8F0020670BDE8F8832DE9F041054696
:104340000C46E078082801D0BDE8F081207800F024
:104350007F062179607941EA002794F80680434678
:104360003A4631462846D5F818C3E04700BFEBE788
:104370007047000002460F20802902DA02F5C87358
:10438000585C704770B504460D46D4F87C0150F86F
:104390002500C0F307464FF0FF30D4F8801121F814
:1043A0001500012104F5C870815531462046D4F826
:1043B0008C21904770BD2DE9FE4F04460F4638789A
:1043C00000F07F05B878012829D120680078A8423C
:1043D00077D12068007800F5E066ADF80060012034
:1043E0008DF8030000208DF8020094F858018DF834
:1043F000040094F8BC0248B19DF8040040F080002D
:104400008DF80400002084F8BC0202E0012084F84A
:10441000BC026946D4F8C00205F08AFA51E0387946
:1044200000F07F08D4F81C02017804F508704155AB
:104430009038405D404509D0424629462046D4F890
:10444000B832984704F5C87000F8058004F5C870C4
:10445000405D20B929462046D4F8B422904704F59F
:10446000C870405D0F282BD0002623E0D4F87C01D3
:1044700050F82600C0F307494D4519D1D4F87C0106
:1044800030F826001FFA80FAD4F8801131F91600AE
:1044900005F07DF900205346AFF217123146009027
:1044A000204605F021F9D4F8801121F8160000BF4C
:1044B000701CC6B2D4F878010078B042D6DC00BFD8
:1044C00000BFBDE8FE8FFEB504460E46D4F8840159
:1044D0000088A8B12068007800F5E065ADF80050CC
:1044E00001208DF8030000208DF8020094F8580197
:1044F0008DF804006946D4F8C00205F019FA05E009
:10450000B4F9880105F043F9A4F88801FEBD70B53F
:1045100004460E46D4F81802008860B3002527E050
:1045200004F5C870405D0F2820D020680078A842AC
:104530001CD004F50870405D00280BDCD4F8140290
:1045400020B129462046D4F814229047012104F5D1
:10455000C870415504F50870405D401EC1B204F5B5
:10456000087041552946204600F0F0F8681CC5B295
:10457000802DD5DB05E0B4F9100205F008F9A4F8A8
:10458000100270BDF8B50446634B002241F20C01E5
:10459000204600F0E3FA604B002241F20D01204674
:1045A00000F0DCFAD4F81802008830B3D4F81C020A
:1045B000007810B3D4F8180206883346AFF2B1027F
:1045C00000212046009605F08FF8A4F8100200257F
:1045D00010E004F5C870405D0F2809D0206800780D
:1045E000A84205D0D4F81C02017804F508704155A2
:1045F000681CC5B2802DECDB00BFF8BD10B50446C9
:10460000B4F9100205F0C3F8A4F8100210BD70B59B
:1046100004460D4616462046FFF7F0FF2046FFF7FA
:10462000B1FF002070BDF8B504463C4B002241F2BA
:104630001701204600F092FA002084F8BC02002501
:1046400014E0D4F87C0130F8250086B266B1002071
:104650003346AFF2CF2229460090204605F044F8B9
:10466000D4F8801121F81500681CC5B2D4F878017F
:104670000078A842E5DCD4F88401008868B1D4F859
:10468000840106883346AFF2C1120021204600960D
:1046900005F02AF8A4F8880100BFF8BD70B50446FB
:1046A00000250BE0D4F8801131F9150005F06FF802
:1046B000D4F8801121F81500681CC5B2D4F878012F
:1046C0000078A842EEDCB4F9880105F060F8A4F89F
:1046D000880170BD70B504460D4616462046FFF7AA
:1046E000DDFF2046FFF79FFF002070BD10B5044698
:1046F0002046FFF798FF2046FFF744FF10BD10B596
:1047000004462046FFF7CAFF2046FFF777FF10BD9B
:1047100070477047704770470F460008D54600083D
:10472000FEB504460D4616460020ADF800008DF893
:10473000020002208DF803008DF804608DF805500A
:104740006946D4F8C00205F0F3F8FEBDFEB5044694
:104750000D4645F4E066ADF8006001208DF80200DA
:1047600000208DF803006946D4F8C00205F0E0F897
:10477000FEBD70B504460D460F2104F5C8704155C5
:104780005DB9002000BF05E00F2204F5C8710A548E
:10479000411CC8B28028F7DB00BF29462046FFF73E
:1047A000D5FF70BD70B504460D4694F858017F28BA
:1047B00007D094F85801052803D094F8580104282C
:1047C0005FD1687920B1687921680978884258D129
:1047D0002879802824D004DC012807D002284FD172
:1047E00011E0812829D082284AD132E094F858017A
:1047F0007F2803D094F85801042803D105212046CE
:1048000004F0ABFD3CE094F858017F2803D094F805
:104810005801052803D10421204604F09EFD2FE015
:1048200094F85801052803D094F85801042803D1BE
:104830007F21204604F091FD22E0D4F8700118B1E8
:104840002046D4F8701188470021204604F085FDE9
:1048500016E0204604F0E5FD0646D4F8740118B1D0
:104860002046D4F874118847FF202168087031462B
:10487000204604F0DAFD0021204604F06EFD00BF62
:1048800000BF70BD3EB504462168097841F4E06080
:10489000ADF8000000208DF8020001208DF8030023
:1048A00000208DF804006946D4F8C00205F040F8F5
:1048B0003EBD000030B50546039C002030BD2DE90B
:1048C000FE4F81468A4614461F46DDE90C6B01AA5D
:1048D00002A95046D9F8C43298470546029810B14B
:1048E0000298BDE8FE8F2879A04209DCA948002380
:1048F0001A46214600905046FFF7DCFFA548F0E736
:104900000E9888B104EB4401286810F8210000F0EB
:10491000010048B1A04800231A46214600905046A5
:10492000FFF7C8FF9C48DCE717B94FF00060D8E7F5
:1049300004EB4401286800EB81004068316888423C
:1049400008D904EB4401286800EB8100406830601E
:104950009248C6E704EB4401286800EB81004078E8
:104960008BF8000004EB4401286800EB8100D0F8CC
:1049700004809BF8000009280CD004EB440228684E
:1049800000EB820042468168384605F024F9C6F8FB
:1049900000802DE004EB440ED5F800C00CEB8E0C2B
:1049A000DCF808000346D6F800C0BCF1000F02D0C6
:1049B000D6F800C000E0C4460CEB0002394603E024
:1049C00010F801CB01F801CB90F800C0BCF1000F4A
:1049D00001D09042F4D3A0EB030CC6F800C0D6F887
:1049E00000C0C44503D24FF0000C80F800C000BFE7
:1049F000002076E72DE9FE4F80468A4615469B4605
:104A00000C9C01AA02A95046D8F8C4329847064621
:104A1000029810B10298BDE8FE8F3079A84209DCF7
:104A20005C4800900022294650462368FFF742FF69
:104A30005848F0E70D9890B105EB4501306810F843
:104A4000210002280BD15448401C00900022294626
:104A500050462368FFF72EFF4F48401CDBE705EB6D
:104A60004501306800EB810090F8019005EB4501AD
:104A7000306800EB81004768206840B12068B84288
:104A800005D0B9F1090F50D12068B8424DD259462E
:104A90004846D8F8242090470290029848B10298DE
:104AA00000903A46294650462368FFF703FF0298D4
:104AB000B1E705EB4503316801EB8301886859468E
:104AC000226805F088F8B9F1090F0BD12068B842C7
:104AD00008D2002005EB4502316801EB82018968AC
:104AE000226888542760019878B1019850F8250011
:104AF00058B1019850F825302A463146404698472B
:104B00000290029808B1029885E705EB45013068EC
:104B100010F8210000F0040028B12A465146404612
:104B2000D8F8C8329847002075E727601C480090E5
:104B30003A46294650462368FFF7BCFE18486AE704
:104B40002DE9F04104460D4616461F463A463146C9
:104B50002846D4F8C4329847BDE8F0812DE9FC41DD
:104B600006460F4614461D466B4601AA3946304696
:104B7000FFF7E6FF8046019840B9009830B198F8F9
:104B80000400A04202DD009840F824500198BDE8DE
:104B9000FC817047110009060100010605000405AB
:104BA000100007062DE9FF4FDDE90D456CE0A5EB90
:104BB000020A4FFA8AF3002B04DD91F800A00AFAEA
:104BC00003FA05E091F800A0C3F1000B4AFA0BFAD2
:104BD0000AF0FF0C002B02DDC5F1080A01E0C2F16A
:104BE000080A0AF0FF08804501DD824600E0C2465F
:104BF000564605EB060B4FF0FF0A0AFA0BFAC5F111
:104C0000080E4FF0FF0B4BFA0EFB4AEA0B0A0AF0B4
:104C1000FF072CEA070994F800A00AEA070A84F8BB
:104C200000A094F800A04AEA090A84F800A002EB68
:104C3000060A0AF0FF0A5246BAF1070F0BDD0022FE
:104C4000DDF80CA0BAF1000F02D04FF0FF3A01E0FE
:104C50004FF0010A514405EB060A0AF0FF0A5546D7
:104C6000BAF1070F0BDD0025DDF83CA0BAF1000F0B
:104C700002D04FF0FF3A01E04FF0010A5444A0EB9C
:104C8000060A0AF0FF0000BF002890DCBDE8FF8F95
:104C90002DE9F04F8DB004468846154661690989B3
:104CA000606800EBC10000EBC8000C9061694989A5
:104CB000606800EBC10000EBC80B4FF00009002654
:104CC000DBF8000080680B900C9800684069008851
:104CD000C0F30A0028800020A87000BF00200890C0
:104CE000099009F1010000EB4000DBF8001001EB36
:104CF0008000D0F808A0DAF80000000C07909AF8BD
:104D000000707FB3F01940282CD8781E012101EBE8
:104D1000D0000690BAF80000C0F3072005900120EB
:104D200000210AAA06ABCDE90032CDE9021008AB9A
:104D30002046059A0799FFF7C2FD18B1FF200DB074
:104D4000BDE8F08F002206F00700291D01EBD60117
:104D5000CDE901020091F8B2134608A9FFF722FF3E
:104D60003E4400BF09F1010000F0FF090B980078F4
:104D70004845B3DC701E012101EBD000E870002033
:104D8000DDE72DE9FE4304460E4660698588A0698B
:104D9000B0F804804FF4AF70005D10B90020BDE89A
:104DA000FE83E5B1B6F5A05F19DBA6F5A050284457
:104DB00085B2454512DC606850F83500476938888F
:104DC000ADF8000001208DF8020000208DF80300EE
:104DD0006946D4F8C00204F0ABFDE0E700BFFF2055
:104DE000DDE770B504460E46154606EBC601A06821
:104DF00000EB4100296840F8061F69684160A96816
:104E000081602946D4F8C00204F092FD70BD70B5EF
:104E100005460C464FF0FF3004EBC402A96801EBD5
:104E20004201888004EBC401A86810F8110020F04A
:104E3000010004EBC402A96801F81200E1B228469F
:104E400000F001F870BD2DE9FF4704460D464FF410
:104E5000AF70005D38B105EBC501A06810F8110016
:104E600000F0010018B1002004B0BDE8F0876069CF
:104E70000089284486B2002001900290039001AA84
:104E800029462046FFF704FF08B10020ECE705EBB8
:104E9000C501A06800EB4100C088BDF8041088423D
:104EA00017D105EBC501A06800EB4100407A9DF8E1
:104EB000071088420DD105EBC502A16801EB420144
:104EC00001F10A00082202A904F059FE08B90020E5
:104ED000CAE7606850F83600406C0788606850F890
:104EE0003600C06AB0F80080B7B105EBC502A16812
:104EF00001EB4201B1F9020004F049FC00203B46FD
:104F0000F74A29460090204604F0EEFB05EBC50267
:104F1000A16801EB42014880B8F1000F2AD005EBEF
:104F2000C502A16801EB4201B1F9040004F02FFCB5
:104F3000642008FB00F04FF47A71B0FBF1F9002017
:104F40004B46AFF2351229460090204604F0CCFBC8
:104F500005EBC502A16801EB4201888005EBC501A4
:104F6000A06810F8110040F0010005EBC502A1682F
:104F700001F8120001AA29462046FFF732FF00BFC0
:104F8000012071E770B505460C464FF0FF3004EB89
:104F9000C402A96801EB42014880002004EBC4026E
:104FA000A96801EB4201C880E1B22846FFF74BFF38
:104FB00070BD2DE9F04F8DB004460F4600200B90D8
:104FC000824683460A90022009904FF0000800258F
:104FD00000200C90B87800287DD160698688A0698F
:104FE00080880790002E77D0AAE00998022802D086
:104FF00004280CD113E0606850F8360040690A902C
:105000000A9800883988884202D10420099096E0E5
:10501000681CC5B2701C86B2022009908FE06069DE
:10502000C688A069C0880790606800EBC60050F889
:10503000350080680B9000200C905EE00020059009
:105040000690606800EBC60050F835100C98401CC4
:1050500000EB400001EB8000D0F808A0BAF1000F8F
:1050600003D1FF200DB0BDE8F08F9AF80090B9F1A0
:10507000000F3DD008EB0900F978B0EBC10F37DC29
:10508000002005AACDE90020CDE902084FEAE8702A
:1050900008EB5070C010A8EBC000C2B2381D00EB86
:1050A000E80100234846FFF77DFDA9F10100012139
:1050B00001EBE00004900120002104AACDE90021C9
:1050C0000290BAF80000C0F30722DAF80000010CE1
:1050D00005AB204601E038E0BEE0FFF78BFC08900E
:1050E000089808B1FF20BDE708EB090000F0FF08B1
:1050F0000C98401CC0B20C9000BF0B9801780C9823
:1051000081429BDCE068C0B1606850F83600406CBA
:1051100000880690069878B1E16831F9150004F02E
:1051200036FB00200090226929462046069B04F0A9
:10513000DBFAE16821F8150000BF002092E700BF0C
:10514000079886427FF751AF9DE0B8780128FBD1E0
:10515000099060690689A06900890790002E7BD0BC
:105160008DE00998012804D0042816D005280CD118
:1051700075E0606850F8360040690A900A98008827
:105180003988884202D10420099077E0681CC5B2B2
:10519000701C86B20120099070E0606850F83600FB
:1051A000D0F820B09BF80000FD2802D1052009901E
:1051B00064E09BF80000FC2816D105EBC501A0684F
:1051C00010F8110000F0010058B105EBC503A2680A
:1051D00002EB4302911DD4F8C00204F0A9FB0020A9
:1051E00040E70520099049E09BF80000FF2803D024
:1051F0009BF80000FE2830D105EBC502A16801EB49
:105200004201B1F9020004F0C2FA05EBC502A1683F
:1052100001EB4201488005EBC502A16801EB4201A8
:10522000B1F9040004F0B3FA05EBC502A16801EB83
:105230004201888005EBC501A06810F8110020F03C
:10524000010005EBC502A16801F8120029462046BD
:10525000FFF798FE002005E715E0FF2002E704AA0B
:1052600029462046FFF714FD08B1FF20FAE604A9FD
:10527000D4F8C00204F05CFB0020F3E600BF0798FE
:1052800086427FF76EAF0020ECE62DE9FE4F044624
:105290000F46002500264FF003096069B0F808802A
:1052A0006069B0F80AA0A069B0F808B04FF4AF7018
:1052B000005D10B90020BDE8FE8FB8F1000F76D078
:1052C0000020009001900290A9E0B9F1030F09D0ED
:1052D000B9F1050F6CD0B9F10B0F6BD18FE0000065
:1052E000854F0008606850F838004069006800F099
:1052F000004010B14FF00B0990E0606850F83800A2
:10530000066A4FB33078012826DB3078F02823DC9A
:1053100005EBC501A06810F81100401CC0B205EBF8
:10532000C502A16801F812003178884214D100202A
:1053300005EBC502A16801F81200009001900290EF
:105340006A4629462046FFF7A3FC10B14FF00B092F
:1053500064E04FF0050949E05FB33078FC282AD1BA
:1053600005EBC501A06800EB4100821D29462046DF
:10537000FFF78EFC60B105EBC501A06810F81100C5
:1053800020F0010005EBC502A16801F812000BE056
:1053900005EBC501A06810F8110040F0010005EB15
:1053A000C502A16801F812004FF00B0936E03AE09F
:1053B0001DE000E030E00FB1307870B1A7B930786F
:1053C000FF2802D03078FE280ED105EBC501A06879
:1053D00010F8110000F0010030B929462046FFF70F
:1053E00032FD4FF00B0901E04FF00B0916E06A4661
:1053F00029462046FFF7F5FC4FF00B090EE0681C2C
:10540000C5B208F101001FFA80F80AF101001FFA85
:1054100080FA4FF0030901E0FF204CE700BFD845B8
:105420007FF753AF00BF002045E710B504460021C9
:105430002046FFF72AFF10BD70472DE9F0410446D2
:105440000E4617464FF4AF70005DE0B3022F04D054
:10545000032F03D0052F37D101E000BF00BF6169E2
:105460000989606800EBC108A6EB0800C0F3C70516
:1054700005EBC502A16801EB4201B1F9020004F09D
:1054800086F905EBC502A16801EB4201488005EBF6
:10549000C502A16801EB4201B1F9040004F077F9FB
:1054A00005EBC502A16801EB42018880002005EBF5
:1054B000C502A16801F8120029462046FFF762FDE7
:1054C0000020BDE8F08101E000BF00BF0020F8E748
:1054D0002DE9FC4104464FF4C05660690589A06976
:1054E0000789CDB116E06B4601AA31462046FFF789
:1054F00027FB019848B9009838B1AFF2C100009974
:1055000088600099C86000994861701C86B2681C68
:1055100085B200BFBD42E6DD00212046FFF7B5FEA3
:10552000BDE8FC812DE9F04104460025606906894B
:10553000A069078986B32DE005EBC502A16801EBE0
:105540004201B1F9020004F022F905EBC502A1689D
:1055500001EB4201488005EBC502A16801EB420165
:10556000B1F9040004F013F905EBC502A16801EBE1
:1055700042018880002005EBC502A16801F81200F5
:1055800005EBC502A16801EB4201C880681CC5B2E9
:10559000701C86B2BE42CFDDBDE8F0812DE9F84334
:1055A00004460D4617469846DDE90896022E05D0BA
:1055B000032E03D0042E01D0052E13D1002040F677
:1055C000B833FE4A29460090204604F08DF805EBDA
:1055D000450101EB051204F1280101EB0211A1F8CC
:1055E0002A0115E005EB450101EB051204F1280144
:1055F00001EB0211B1F92A0104F0C9F805EB4501EC
:1056000001EB051204F1280101EB0211A1F82A01B6
:1056100005EB450000EB051104F1280000EB01103B
:10562000077005EB450000EB051104F1280000EBC5
:105630000110A0F8088005EB450000EB051104F10E
:10564000280000EB011080F80A9005EB450000EB04
:10565000051104F1280000EB01108670002105EB14
:10566000450000EB051204F1280000EB0210C170A8
:1056700005EB450000EB051204F1280000EB0210D9
:10568000C16005EB450000EB051204F1280000EBBA
:105690000210016105EB450000EB051204F1280042
:1056A00000EB021080F8141105EB450000EB051229
:1056B00004F1280000EB021080F8151105EB4500FD
:1056C00000EB051204F1280000EB021080F816111F
:1056D00005EB450000EB051204F1280000EB021079
:1056E000C0F8181105EB450000EB051204F1280085
:1056F00000EB021080F81C1105EB450000EB0512D1
:1057000004F1280000EB021080F81D1105EB4500A4
:1057100000EB051204F1280000EB021080F81E11C6
:1057200005EB450000EB051204F1280000EB021028
:1057300080F81F1105EB450000EB051204F128006D
:1057400000EB021080F8281105EB450000EB051274
:1057500004F1280000EB0210C0F82C110020BDE875
:10576000F8837CB504460D460020009003460246AF
:10577000294601902046FFF711FF00260BE000218B
:1057800005EB450000EB051204F1280000EB0210C8
:1057900014308155761CFF2EF1D9002105EB450010
:1057A00000EB051204F1280000EB0210417005EB3C
:1057B000450000EB051204F1280000EB02104160E7
:1057C0007CBD2DE9FE43044688461646994694F86A
:1057D0005801052806D094F858017F2802D0FF20F0
:1057E000BDE8FE83B8F1010F13D16069058825B1CA
:1057F000A819A1690988884201DDFF20F0E7A919ED
:10580000606850F83100006A008880B2ADF800008E
:1058100012E06069458825B1A819A16949888842C4
:1058200001DDFF20DCE7A919606850F8310040690C
:10583000008880B2ADF8000000208DF8020008203A
:105840008DF80300002705E019F8071001A8C155DD
:10585000781CC7B2082FF7DB6946D4F8C00204F001
:1058600067F8BDE72DE9FC4706460F4690461D4602
:10587000DDE90A9480208DF80000E8B28DF801007F
:10588000280A8DF802008DF80390E0B28DF804002C
:10589000200A8DF80500200C8DF80600200E8DF8EA
:1058A00007006B46424639463046FFF78AFF82467C
:1058B0005046BDE8FC872DE9FC4104460D46606971
:1058C00046886EB105EB450000EB051104F1280098
:1058D00000EB011000783044A1694988884201DD5D
:1058E000BDE8FC8105EB450000EB051204F1280042
:1058F00000EB021000783044616851F83000C06A53
:1059000007784FF0FF3105EB450000EB051204F17D
:10591000280000EB0210A0F82A11852105EB4500B4
:1059200000EB051204F1280000EB021081702449FD
:1059300005EB450000EB051204F1280000EB021016
:10594000807ACDE9000105EB450000EB051C04F170
:10595000280000EB0C10038905EB450000EB051C4B
:1059600004F1280000EB0C10027805EB450000EB79
:10597000051C04F1280000EB0C1041782046FFF7CD
:1059800071FF0F4905EB450000EB051204F12800FB
:1059900000EB0210416005EB450000EB051104F13E
:1059A000280000EB0110D0F82C0190B105EB450068
:1059B00000EB051104F1280004E00000B7580008CE
:1059C0000000040500EB01103946D0F82C212046D8
:1059D000904705EB450000EB051104F1280000EBB2
:1059E00001104068FE49884203D1E9B22046FFF722
:1059F000B8FE00BF74E770B50546002405E02146F7
:105A00002846FFF7AEFE601CC4B2012CF7DB70BD68
:105A10002DE9FF4104460D4605EB450000EB05115D
:105A200004F1280000EB0110C06888B905EB4500BF
:105A300000EB051104F1280000EB0110016905EBF2
:105A4000450000EB051204F1280000EB0210C160D4
:105A500005EB450000EB051104F1280000EB0110F7
:105A6000C0680390012003AACDE90020029005EB55
:105A7000450000EB051704F1280000EB071000F1CA
:105A8000140305EB450000EB051704F1280000EBBB
:105A90000710827A05EB450000EB051704F128009A
:105AA00000EB071001892046FEF7A4FF06461EB151
:105AB000304604B0BDE8F0810020FAE7F0B587B0C9
:105AC00004460D464FF480700690012005AA06ABEF
:105AD000CDE901200093039005EB450000EB05178D
