:020000040800F2
:1000000088B100207D020008992900089F26000879
:100010002F290008650D0008498A0008000000002B
:10002000000000000000000000000000B976000899
:1000300009240008000000006F090008E1770008AB
:10004000970200089702000897020008970200082C
:10005000970200089702000897020008970200081C
:10006000970200089702000897020008970200080C
:100070009702000897020008211A0008511A000888
:1000800097020008911A00089702000897020008DA
:10009000690E0008970200089702000897020008FE
:1000A0006578000897020008970200089702000888
:1000B000AD780008757900089702000897020008DB
:1000C00097020008970200089702000897020008AC
:1000D0009702000897020008D58100089583000860
:1000E000970200089702000897020008970200088C
:1000F000970200089702000897020008C11A00083A
:10010000970200089702000897020008970200086B
:10011000697F0008298000089702000897020008FC
:10012000011B0008970200089702000897020008C8
:10013000970200089702000897020008970200083B
:10014000A110000897020008970200089702000813
:1001500097020008970200086D1B000879870008C5
:10016000970200089702000897020008970200080B
:1001700097020008970200089702000897020008FB
:10018000970200089702000800F002F800F067F8F4
:100190000AA090E8000C82448344AAF10107DA45E2
:1001A00001D100F05CF8AFF2090EBAE80F0013F0CD
:1001B000010F18BFFB1A43F00103184774B2000087
:1001C00094B200000A444FF0000C10F8013B13F009
:1001D000070408BF10F8014B1D1108BF10F8015BA0
:1001E000641E05D010F8016B641E01F8016BF9D193
:1001F00013F0080F1EBF10F8014BAD1C0C1B09D1EA
:100200006D1E58BF01F801CBFAD505E014F8016B5B
:1002100001F8016B6D1EF9D59142D6D370470000ED
:100220000023002400250026103A28BF78C1FBD8FF
:10023000520728BF30C148BF0B607047642900F0E7
:10024000B580782900F01981732900F029830020F6
:1002500070471FB50AF00CFF1FBD10B510BD00F0B0
:1002600039FB1146FFF7F5FF09F004F900F057FBE1
:1002700003B4FFF7F2FF03BC08F0DFFC0948804736
:1002800009480047FEE7FEE7FEE7FEE7FEE7FEE778
:10029000FEE7FEE7FEE7FEE704480549054A064B90
:1002A00070470000FD7700088901000888A300203E
:1002B00088B1002088A5002088A5002072B670476C
:1002C00062B67047EFF3108072B6704780F3108803
:1002D000704730BF704720BF7047B0FA80F070475A
:1002E00090FAA0F0B0FA80F0704790FAA0F0704752
:1002F000704700000FB4044910B503AA029800F03B
:10030000D3FA10BC5DF814FB7000002070B50446F1
:1003100085690068C10601D5302600E02026C007A7
:1003200007D070BDD4E9012130469047206A401CB7
:1003300020626D1EF6D570BD70B5044685690078E3
:10034000C00707D170BDD4E9012120209047206A61
:10035000401C20626D1EF6D570BD70B50C4605467A
:10036000012A05D02878800600D5EA69002302E03A
:10037000012305E05B1C934202D2E05C0028F9D126
:10038000A869E618C01AA861286A18442862284695
:10039000FFF7BCFF04E0D5E9012114F8010B9047F9
:1003A000B442F8D32846FFF7C7FF70BD2DE9F041EE
:1003B0000646002410687529314616A510D0AFF303
:1003C0000080002802DA404213A507E031688A075E
:1003D00001D512A502E0490704D511A5012401E0C9
:1003E000AFF3008000210A2206F1240709E0B0FBE8
:1003F000F2FCB0FBF2F302FB1C00303078541846DC
:10040000491C0028F3D123462A463046BDE8F04176
:1004100000F0C2B9000000002D0000002B00000019
:1004200020000000F0B40D460188090502D5214CDA
:100430007C4402E01F4C7C440E34002100F1240671
:1004400008E002F00F071209E75D42EA03721B0998
:100450007754491C52EA0307F3D1027800231207AC
:1004600004D5702D06D009B1022311342246F0BC08
:1004700000F092B901231034F8E770B504460D4638
:1004800021461068AFF30080024629462046BDE8A9
:1004900070400023C6E7D21D22F00703D3E90023F2
:1004A000C0E70368126843F0200303600823C361B8
:1004B0000023B7E770AE00002DE9F05F89460446DF
:1004C0004FF0000ADFF874B1FB44C0F820A02046CA
:1004D000E1688847002874D0252806D0D4E9012196
:1004E0009047206A401C2062F1E700265F462046C4
:1004F000E16888472028054607DB312D05D27819A9
:1005000010F8200C08B10643F1E7B00701D526F03A
:100510000406C4F81CA00027C4F818A02A2D09D08E
:10052000284608F083FB38B304EB8708303DC8F851
:10053000185019E059F8041B204604EB870291611A
:10054000E1688847012F054618D1E069002820DAC4
:1005500026F020061DE0D8F8180000EB800005EB1F
:1005600040003038C8F818002046E1688847054642
:1005700008F05CFB0028EED1012F0AD02E2D08D107
:100580002046E16888477F1C0546022F46F020067A
:10059000C4DBA069002803DA404246F00106A061EE
:1005A000F00701D026F010066C2D0BD0682D09D075
:1005B0004C2D39D06A2D35D0742D35D07A2D33D0CD
:1005C00016E038E0E1682F4620468847B8420546E5
:1005D00009D16C2F26D04FF48060E1680643204695
:1005E0008847054604E06C2F1AD04FF4807006430C
:1005F0000DB3A5F14100192802D8203546F4006654
:100600004A462946204626604E46FFF717FE80B12F
:1006100001280BD0F61D26F0070000F1080956E767
:100620004020E4E78020D8E70020D6E706F104095F
:100630004DE7284652E7206ABDE8F09F00AE000073
:1006400030B505460B462A4613F8014B12F8010B4C
:1006500008B1A042F8D01CB1002802D06D1CF1E70F
:10066000284630BD10B5431C02E010F8011B71B1E3
:100670008107FAD14FF0013202C88C1A8C4314EA78
:10068000C211F9D0C01A0A0603D0C01E10BDC01A8C
:1006900010BD0A0401D0801E10BD0902FCD0401E0E
:1006A00010BD032A40F2308010F0030C00F01580DA
:1006B00011F8013BBCF1020F624498BF11F801CB65
:1006C00000F8013B38BF11F8013BA2F1040298BFCA
:1006D00000F801CB38BF00F8013B11F0030300F034
:1006E0002580083AC0F0088051F8043B083A51F8D8
:1006F00004CBA0E80810F5E7121D5CBF51F8043BDD
:1007000040F8043BAFF30080D20724BF11F8013B4F
:1007100011F801CB48BF11F8012B24BF00F8013BB1
:1007200000F801CB48BF00F8012B704710B5203A04
:10073000C0F00B80B1E81850203AA0E81850B1E89A
:100740001850A0E81850BFF4F5AF5FEA027C24BF50
:10075000B1E81850A0E8185044BF18C918C0BDE847
:1007600010405FEA827C24BF51F8043B40F8043B10
:1007700008BF7047D20728BF31F8023B48BF11F8C5
:10078000012B28BF20F8023B48BF00F8012B70471F
:1007900070477047704770472DE9F0470D469946FE
:1007A0009246044600F124080168880604D5E069F1
:1007B00021F01001216000E00120A84201DD471B6B
:1007C00000E00027A1697A1902EB0900081AA0616C
:1007D0002078C00602D42046FFF798FD002608E0E6
:1007E000D4E901211AF806009047206A401C761CC3
:1007F00020624E45F4DB2078C0060AD52046FFF77C
:1008000085FD06E0D4E9012130209047206A401C94
:100810002062381EA7F10107F4DC07E0D4E90121CA
:1008200018F805009047206A401C2062281EA5F198
:100830000105F3DC2046FFF77FFD2078000602D596
:100840000220BDE8F0870120FBE7000001694A1C97
:1008500002610878704700B58FB0CDE90131002101
:10086000059105497944CDE9031011466846FFF723
:1008700023FE0FB000BD0000E5FFFFFF10B5436988
:1008800013B1AFF3008001E0FFF767FD012010BD59
:10089000127800F124010A7000224A700122EDE76B
:1008A00011684FF0FF32E9E7074B70B50D467B4406
:1008B000FFF7D1FF0446284600F008F810B14FF0CA
:1008C000FF3070BD204670BD73870000007B00F0D4
:1008D00080007047754600F02BF8AE46050069466B
:1008E000534620F00700854618B020B5FFF7D4FC2A
:1008F000BDE820404FF000064FF000074FF0000821
:100900004FF0000B21F00701AC46ACE8C009ACE8A1
:10091000C009ACE8C009ACE8C0098D46704710B505
:100920000446AFF300802046BDE81040FFF7A0BCAE
:100930000048704728A3002022484FF6FF7101703D
:10094000002080F309882048016881F308881F4847
:100950004FF08051016062B6FEE71C484FF08051B5
:100960000160704719484FF080510160704772B6BE
:10097000EFF3098050B11EF0100F08BF20ED108A70
:10098000203880E8F00F12490968086000B5114866
:1009900080475DF804EB104810490A7802700C4853
:1009A0000F490A680260106890E8F00F20301EF0CE
:1009B000100F08BFB0EC108A80F309884EF0040EC7
:1009C00062B6704722ED00E0E801002004ED00E08F
:1009D000E00100202D3D00086E0100206F01002085
:1009E000E401002000B58DB00121042006F002FAD8
:1009F0000121080206F01EFA30200B9003208DF82A
:100A0000300000208DF833000BA9264801F0D8FDF6
:100A100001200B9003208DF8300000208DF833006A
:100A20000BA9214801F0CCFD002007900A90099005
:100A30004FF48030089007A800F046F8002001909D
:100A400001208DF808008DF8090000200390059022
:100A500003208DF8180001A9144800F063F807235B
:100A600001220E21114800F087F8072302220F21EE
:100A70000E4800F081F80723032208210B4800F0FC
:100A80007BF80121094800F042F80121074800F0F5
:100A900033F80121054800F00BF8044800F0C8F8CD
:100AA0000DB000BD000802400004024000200140DB
:100AB00021B1826842F00102826003E0826822F084
:100AC00001028260704700000021084A1168084A4C
:100AD0001140D0E900231A4383681A43C3681A43BC
:100AE0001143044AC2F80413704700000423014074
:100AF000E030FCFF0020014021B1826842F48072A6
:100B0000826003E0826822F480728260704721B1C3
:100B1000826842F40072826003E0826822F400720C
:100B20008260704730B50246002000235068104CA8
:100B300020400D790C6844EA0524204350609068F9
:100B40000C4C2040D1E903542C438D682C434D7943
:100B500044EA450420439060D06A20F470000C7D84
:100B6000641EE4B2234340EA0350D06230BD00006B
:100B7000FFFEFFFCFDF7FFC0F0B504460D46002068
:100B80000021092D11DDE068A5F10A0606EB4607F4
:100B9000072606FA07F18843A5F10A0606EB460682
:100BA00003FA06F10843E0600CE0206905EB450715
:100BB000072606FA07F1884305EB450603FA06F116
:100BC00008432061072A0FDA606B561E06EB860782
:100BD0001F2606FA07F18843561E06EB860605FA1D
:100BE00006F10843606322E00D2A0FDA206BD61F5E
:100BF00006EB86071F2606FA07F18843D61F06EB89
:100C0000860605FA06F10843206310E0E06AA2F1C7
:100C10000D0606EB86071F2606FA07F18843A2F1A8
:100C20000D0606EB860605FA06F10843E062F0BD04
:100C3000816841F0804181607047000070B53F4895
:100C40000078801E81B23E4800F082FD0446E5B285
:100C5000260A3A480078801E3949085CA84234D1F7
:100C600036480078401E085CB0422ED108464078D5
:100C7000042817D006DC01280BD002280CD003284A
:100C80001CD10CE0052810D0062811D0102815D151
:100C900011E006F063F917E006F0DEF914E006F063
:100CA00079FA11E006F0D4FA0EE006F04DFB0BE005
:100CB00006F08EFB08E006F0D9FB05E020494878F5
:100CC000042108F05DF900BF36E01D484078042893
:100CD0001DD006DC01280BD002280ED003282AD113
:100CE00010E0052818D006281BD0102823D11DE0BD
:100CF0000821012008F044F91DE00821022008F035
:100D00003FF918E00821032008F03AF913E0082120
:100D1000042008F035F90EE00821052008F030F92C
:100D200009E00821062008F02BF904E00821102032
:100D300008F026F900BF00BF70BD000025000020AC
:100D4000BA7D002000BF05E00523002211461046B1
:100D500008F070F8F8E71FB5684606F08BF80198C0
:100D600004B010BD00BFFEE72DE9F0418AB0044693
:100D70000D4616461F46DDF840800121022006F090
:100D800039F80121480606F045F84FF44070089004
:100D900002208DF8240000208DF8260003208DF815
:100DA000250001208DF8270008A92D4801F008FC36
:100DB000092208212A4801F04BFC09221146284843
:100DC00001F046FC00208DF81A008DF81B008DF80C
:100DD0001C0001208DF81D0000208DF81E008DF8EC
:100DE0001F008DF816808DF817408DF818608DF86B
:100DF0001950ADF8147005A91A4800F072FA0020D5
:100E00008DF80E008DF80F0001208DF810000020E5
:100E1000ADF80400ADF80600ADF80800ADF80A0022
:100E2000ADF80C0001208DF8110001A800F0CCF9FC
:100E3000012202210B4800F04BFA14208DF800002B
:100E400001208DF8010000208DF8020001208DF8AE
:100E50000300684601F0A2FD00200AB0BDE8F08161
:100E6000000402400064004010B500242C4A002118
:100E70002C4800F0C0FA2A4800680C2829D100BF8D
:100E80000BE02748C07A80F0FF00204100F001000D
:100E900080F0010024490855641C082CF1DB002473
:100EA0000DE01F48007B80F0FF00204100F00100B2
:100EB00080F001011C4A04F108001154641C042C48
:100EC000EFDB1748407B552803D10421174800F079
:100ED00031F8134800680A2820D11148C07A144913
:100EE000A1F84E000E48007BA1F850000C48407B52
:100EF000A1F852000A48807BA1F854000848C07B42
:100F0000A1F856000648007CA1F858000448407C2F
:100F1000A1F85A000248807CA1F85C0010BD0000D6
:100F2000A4840020006400404C00002076000020D3
:100F300004860020F0B585B007460D460024102039
:100F40000090019000208DF808008DF80A5000BF35
:100F500005E0395D0DF10B000155601C84B2AC4217
:100F6000F7DB69460C4800F0BEFA0646002401E0B3
:100F7000601C84B23146084800F048FB18B940F6BE
:100F8000FF708442F4DB40F6FF70844202DB0120F4
:100F900005B0F0BD0020FBE7006400402DE9F04102
:100FA0008AB004460D4616461F46DDF840800121F2
:100FB000022005F01FFF01214FF0C06005F02AFF5D
:100FC0006020089002208DF8240000208DF8260073
:100FD00003208DF8250001208DF8270008A92E4850
:100FE00001F0EEFA092205212B4801F031FB09221C
:100FF0000621294801F02CFB00208DF81A008DF8FD
:101000001B008DF81C0001208DF81D0000208DF8BC
:101010001E008DF81F008DF816808DF817408DF892
:1010200018608DF81950ADF8147005A91B4800F030
:1010300058F90E208DF80E0000208DF80F000120C9
:101040008DF810000020ADF80400ADF80600ADF8F2
:101050000800ADF80A00ADF80C0001208DF8110071
:1010600001A800F0B1F8012202210C4800F030F98B
:1010700040208DF8000001208DF8010002208DF83D
:10108000020001208DF80300684601F087FC002073
:101090000AB0BDE8F0810000000402400068004092
:1010A00000B587B0264A0021264800F0A4F924485C
:1010B000006830281ED12248007B2149C97A40EAC5
:1010C000012021490880084600882049A1F84800ED
:1010D0001F48037808221C480188684601F096F9E9
:1010E0001C2269461B48FFF721FB1A48808A1749D2
:1010F000A1F84A001248006804281ED11048007B5D
:101100000F49C97A40EA012013490880084600883F
:101110000E49A1F89C000E48037808220E48018869
:10112000684601F073F91C2269460C48FFF7FEFA85
:101130000A48808A0549A1F89A0007B000BD00005E
:10114000A48400200068004058000020048600208D
:101150007B000020B88400205A000020D4840020A6
:10116000F0B585B007460D4600241320009001908D
:1011700000208DF808008DF80A5000BF05E0395DA9
:101180000DF10B000155601C84B2AC42F7DB6946DF
:101190000C4800F0A8F90646002401E0601C84B267
:1011A0003146084800F032FA18B940F6FF70844220
:1011B000F4DB40F6FF70844202DB012005B0F0BD95
:1011C0000020FBE70068004010B50021837A01226F
:1011D00002FA03F13D4A126842F001023B4B1A60E9
:1011E0003A4A1C3212688A43384B1C331A60027B1D
:1011F000CAB9364A0C3212688A43344B0C331A602F
:101200004288C38842EA0343304A4032847A42F833
:1012100034300288838842EA03432C4A4032847A7D
:1012200002EBC4025360027B012A19D1274A0C3217
:1012300012680A43254B0C331A604288038842EA3D
:101240000343224A4032847A42F83430C288838889
:1012500042EA03431D4A4032847A02EBC4025360DF
:10126000C27A3AB9194A121D12688A43174B1B1DDC
:101270001A6006E0154A121D12680A43134B1B1D23
:101280001A60028932B9114A143212688A430F4B2C
:1012900014331A600289012A06D10C4A14321268EA
:1012A0000A430A4B14331A60427B012A06D1074ACB
:1012B0001C3212680A43054B1C331A60034A126839
:1012C00022F00102014B1A6010BD000000660040D0
:1012D0001AB143690B43436102E043698B434361A5
:1012E000704730B5024600200023146824F0020441
:1012F0001460146844F00104146000E05B1C54683E
:1013000004F001041CB94FF6FF74A342F6D15468EF
:1013100004F001040CB900206CE08C79012C04D19C
:10132000146844F08004146003E0146824F080041E
:101330001460CC79012C04D1146844F0400414608A
:1013400003E0146824F0400414600C7A012C04D1EA
:10135000146844F02004146003E0146824F02004AE
:1013600014604C7A012C04D1146844F01004146009
:1013700003E0146824F0100414608C7A012C04D16A
:10138000146844F00804146003E0146824F00804AE
:101390001460CC7A012C04D1146844F00404146065
:1013A00003E0146824F0040414608C78A407CD785A
:1013B00044EA05640D7944EA05444D7944EA05544C
:1013C0000D886D1E2C43D461146824F00104146050
:1013D000002300E05B1C546804F001041CB14FF6CC
:1013E000FF74A342F6D1546804F001040CB100204C
:1013F00000E0012030BD10B500F5D87303EB0113F8
:101400001B6803F004031372137A53B900F5D87301
:1014100003EB01131B6840F2FF7404EA535313609B
:1014200009E000F5D87303EB01131B686FF060440B
:1014300004EAD303536000F5D87303EB01131B6870
:1014400003F00203537200F5D87303EB01135B68DA
:1014500003F00F03937200F5D87303EB01135B687D
:101460001B0AD37400F5D87303EB01139B68D37286
:1014700000F5D87303EB01139B681C0A147300F585
:10148000D87303EB01139B681C0C547300F5D873DD
:1014900003EB01139B681B0E937300F5D87303EBEA
:1014A0000113DB68D37300F5D87303EB0113DB681A
:1014B0001C0A147400F5D87303EB0113DB681C0CD1
:1014C000547400F5D87303EB0113DB681B0E93749F
:1014D00021B9C36843F02003C36003E0036943F00C
:1014E0002003036110BD10B502460020936803F08D
:1014F0008063B3F1806F00D110E0936803F0006364
:10150000B3F1006F01D1012008E0936803F080532C
:10151000B3F1805F01D1022000E00420042874D0E0
:1015200002F5C07303EB00131B6803F0010402F51E
:10153000C07303EB00131C600B7A7BB94B7A0C88E9
:1015400043EA445302F5C07404EB001424682343B7
:1015500002F5C07404EB0014236010E00B7A4C68B1
:1015600043EAC4034C7A234302F5C07404EB00142D
:101570002468234302F5C07404EB001423608B7AC3
:1015800003F00F038B7202F5C07303EB00135B686B
:1015900023F00F0402F5C07303EB00135C6002F547
:1015A000C07303EB00135B688C7A234302F5C074AD
:1015B00004EB001463608B7B1C064B7B44EA034402
:1015C0000B7B44EA0323CC7A234302F5C07404EB7B
:1015D0000014A3608B7C1C064B7C44EA03440B7C08
:1015E00044EA0323CC7B234302F5C07404EB0014CC
:1015F000E36002F5C07303EB00131B6843F00104C2
:1016000002F5C07303EB00131C6010BD10B5024659
:10161000002321B1012907D002290FD109E09068E8
:101620001D4C00EA04030BE090681C4C00EA040324
:1016300006E090681A4C00EA040301E0002300BFB2
:1016400000BF184C181BA34216D007DC83B16FF003
:101650008060184470B1022818D111E0B0F5007F05
:1016600010D0114C204448B1B0F5003F0ED10BE032
:1016700002230DE000230BE0002309E0002307E034
:10168000012305E0012303E0012301E0002300BF63
:1016900000BFD8B210BD0000030000040003000822
:1016A00000000310000100080001FFF710B500F072
:1016B0001FF800F019F810BD10B5002400BF00BFDE
:1016C000FEF700FE044600BF00BF1021054801F0F0
:1016D00030F900BF00BF2046FEF7F8FD00BF00BF95
:1016E00010BD0000A687002010B5FFF7E5FF10BD74
:1016F00010B500200249086000F00AF810BD000093
:101700001401002001490860704700001401002006
:1017100010B5FFF720FB04460848006840F08070D1
:10172000064908600020064948600846006840F005
:10173000010008602046FFF7E5FF10BDFCED00E06A
:10174000001000E00149486870470000001000E008
:1017500030B502460B464FF6FF70002112E0555C93
:10176000684000240AE000F0010525B140104AF26B
:101770000105684000E04010651CACB2082CF2DBAB
:101780004D1CA9B29942EADB30BD00002DED068B5D
:1017900064E0334890ED001BB0EE410AF0EE610AC0
:1017A0009FED301B53EC112B51EC100B09F062FB39
:1017B00041EC1A0B9FED2D0B53EC102B09F05AFB4B
:1017C00041EC190B9FED2B0B53EC102B09F0E2F9B8
:1017D00041EC180B09F0ACF928490860204890ED5D
:1017E000021BB0EE410AF0EE610A9FED1E1B53ECA6
:1017F000112B51EC100B09F03DFB41EC190B9FED47
:101800001D0B53EC102B09F0C5F941EC180B09F036
:101810008FF91B490860124890ED041BB0EE410A95
:10182000F0EE610A9FED0F1B53EC112B51EC100BE6
:1018300009F020FB41EC190B9FED0E0B53EC102B24
:1018400009F0A8F941EC180B09F072F90D4908608C
:10185000052300221146104607F0ECFA99E7000034
:10186000A87C00206666666666660A400000000086
:1018700000002640000000000000B04020000020D2
:10188000180000201C00002086B00024274B0FCB3E
:10189000CDE90323CDE9010107F07EFF2449254866
:1018A00008F06EF92449254808F07EF924492548B6
:1018B00008F08EF901A9012007F030FA401C20B988
:1018C00021A0FEF717FD00BFFEE700BF05A90F200E
:1018D00007F024FA401C10B922A0FEF70BFD9DF87A
:1018E00014000028F2D007F08BFE1DE041F2883290
:1018F0002349002007F068FC041E03DA214621A0DA
:10190000FEF7F8FC40F6B8321D49012007F020FD33
:10191000041E03DA21461BA0FEF7ECFC0A2300227A
:101920001146104607F086FAE0E7000084B0000890
:10193000737600086976000825750008317500087F
:1019400025760008F575000857495A434849502044
:10195000496E697469616C697A6564206661696C55
:101960002E0D0A00556E6B6E6F776E205048592011
:101970004C696E6B207374617574732E0D0A0000D0
:10198000E0730020534F434B4554204552524F5271
:10199000203A20256C640D0A0000000000240CE0B1
:1019A000601C84B2142C02D1002400F09DFE05239B
:1019B00000221146104607F03DFAF1E725E013A09A
:1019C00008F088FB0020124908601248D0F88C0209
:1019D000C0431049C1F88C020846D0F89002C043B9
:1019E000C1F890020C48D0F88002C0430A49C1F8FF
:1019F00080020846D0F88402C043084908600023EA
:101A000002221946184607F015FAD8E74F4B000096
:101A10009C82404200804042000042428402424296
:101A200010B501F063F90849084800F08DF938B1A4
:101A30000549064800F0B2F80021044800F0C8F853
:101A400001F06AF910BD00000080001858600240E3
:101A500010B501F04BF90B490B4800F075F968B16E
:101A6000012240F22661094806F01CFF054906489C
:101A700000F094F80021044800F0AAF801F04CF9B5
:101A800010BD00002080002070600240004C00402B
:101A900010B501F02BF90849084800F055F938B1A4
:101AA0000549064800F07AF80021044800F090F853
:101AB00001F032F910BD000000802020A06002403B
:101AC00010B501F013F90B490B4800F03DF968B16E
:101AD000012240F22661094806F0E4FE0549064865
:101AE00000F05CF80021044800F072F801F014F9ED
:101AF00010BD000000800028B86002400050004087
:101B00002DE9F04100261549154800F01DF910B3E4
:101B100000241AE0002509E005EB4500114901EB1E
:101B2000400030F814000644681CC5B21E2DF3DBDB
:101B30001E2096FBF0F7384609F084F90A4A02EBBA
:101B4000C40203C20026601CC4B2032CE2DB0349BA
:101B5000034800F023F8BDE8F08100002080001069
:101B600010640240F07B0020A87C002010B50849DA
:101B7000084800F0E9F850B10549064800F00EF8B1
:101B80000021044800F024F801200349087010BD2A
:101B900000800028B8640240B00000200246094BD3
:101BA0009A4201D2084801E00648103801F000537B
:101BB0001BB1064B0B40C36002E0044B0B4083603B
:101BC0007047000010640240006002407D0F7D0FEE
:101BD00021B1026842F00102026003E0026822F0D3
:101BE0000102026070470000016821F001010160FC
:101BF0000021016041608160C1600161212141617A
:101C00004A49884204D13D21484A103A91608CE00B
:101C100046491831884205D14FF47461434A103A5D
:101C2000916082E041493031884205D14FF474110E
:101C30003E4A103A916078E03C494831884205D1EB
:101C40004FF07461394A103A91606EE03749603163
:101C5000884204D13649354A103AD16065E03349AB
:101C60007831884204D13349304A103AD1605CE07F
:101C70002E499031884204D12F492C4A103AD16024
:101C800053E02A49A831884205D14FF03D51274AF7
:101C9000103AD16049E02949884204D13D21274AC0
:101CA000083A116041E025491831884205D14FF4C6
:101CB0007461224A083A116037E020493031884285
:101CC00005D14FF474111D4A083A11602DE01B49EB
:101CD0004831884205D14FF07461184A083A1160C2
:101CE00023E016496031884204D11149134A121F7A
:101CF00011601AE011497831884204D10D490F4A28
:101D0000121F116011E00D499031884204D10A4937
:101D10000A4A121F116008E00849A831884204D11C
:101D20004FF03D51054A121F11607047106002408C
:101D30003D000020400F002000003D2010640240C4
:101D40000146486880B2704770B502460020002402
:101D50000025124EB24201D2114B01E00F4B103B55
:101D6000104E0E4036B11E2606EAD124166806EA49
:101D7000040502E0566906F0800501F000560EB138
:101D80005C6800E01C68084E344004EA010616B1A5
:101D90000DB1012000E0002070BD00001064024081
:101DA000006002403C0F3C0F7D0F7D0F10B501F02D
:101DB00080034BB122B1436943F08003436103E0E8
:101DC000436923F08003436180290BD02AB1036863
:101DD00001F01E042343036004E0036801F01E04C5
:101DE000A343036010BD000010B500220268134B2E
:101DF0001A40CC680B6823434C6923438C69234306
:101E0000CC6923430C6A23434C6A23438C6A2343E3
:101E10004C6B23438C6B23431A430260426922F0CC
:101E20000702D1E90B3423431A4342610B69436033
:101E30004B6883608B68C36010BD00003F801CF05E
:101E40004160704700B591B00121480504F0D2FF10
:101E500000213A48FFF7BCFE3848FFF7C5FE4FF0B7
:101E6000006001903648029036480390402004906C
:101E7000FA200590002006904FF480600790002023
:101E8000089009904FF480700A9000200C90032075
:101E90000D9000040B9000200E900F9001A9274890
:101EA000FFF7A2FF00212548FFF792FE0122102133
:101EB0002248FFF77BFF002120481838FFF788FEF3
:101EC0001E481838FFF790FE4FF0006001901C4844
:101ED00002901D48039000200490FA2005900020F5
:101EE00006904FF4806007900020089009904FF40E
:101EF00080700A9000200C9003200D9000040B903D
:101F000000200E900F9001A90C481838FFF76CFFC5
:101F100001210A481838FFF75BFE11208DF84000B8
:101F200002208DF841008DF8420001208DF8430019
:101F300010A800F033FD11B000BD0000A060024009
:101F400004440040AE7F0020B47E002000B591B074
:101F50000121480504F04EFF00213A48FFF738FE02
:101F60003848FFF741FE4FF000600190364802907C
:101F7000364803904020049082200590002006906F
:101F80004FF4806007900020089009904FF4807013
:101F90000A9000200C9003200D9000040B9000206C
:101FA0000E900F9001A92748FFF71EFF002125483A
:101FB000FFF70EFE012210212248FFF7F7FE002155
:101FC00020483038FFF704FE1E483038FFF70CFE7B
:101FD0004FF0006001901C4802901D4803900020C3
:101FE000049082200590002006904FF480600790B6
:101FF0000020089009904FF480700A9000200C9007
:1020000003200D9000040B9000200E900F9001A96A
:102010000C483038FFF7E8FE01210A483038FFF756
:10202000D7FD0E208DF8400002208DF841008DF87C
:10203000420001208DF8430010A800F0AFFC11B061
:1020400000BD000058600240044800401E8300208C
:102050009C82002000B591B00121480504F0CAFE21
:1020600000213A48FFF7B4FD3848FFF7BDFD4FF0B7
:10207000006001903648029036480390402004905A
:10208000FA200590002006904FF480600790002011
:10209000089009904FF480700A9000200C90032063
:1020A0000D9000040B9000200E900F9001A927487E
:1020B000FFF79AFE00212548FFF78AFD0122102133
:1020C0002248FFF773FE002120483038FFF780FDDB
:1020D0001E483038FFF788FD4FF0006001901C4823
:1020E00002901D48039000200490FA2005900020E3
:1020F00006904FF4806007900020089009904FF4FC
:1021000080700A9000200C9003200D9000040B902A
:1021100000200E900F9001A90C483038FFF764FEA4
:1021200001210A483038FFF753FD0F208DF8400099
:1021300002208DF841008DF8420001208DF8430007
:1021400010A800F02BFC11B000BD00007060024030
:10215000044C0040C07C0020BA7D002000B591B046
:102160000121480504F046FE00213A48FFF730FD02
:102170003848FFF739FD4FF0006001903648029073
:10218000364803904020049082200590002006905D
:102190004FF4806007900020089009904FF4807001
:1021A0000A9000200C9003200D9000040B9000205A
:1021B0000E900F9001A92748FFF716FE0021254831
:1021C000FFF706FD012210212248FFF7EFFD002155
:1021D0002048A838FFF7FCFC1E48A838FFF704FD8C
:1021E0004FF0006001901C4802901D4803900020B1
:1021F000049082200590002006904FF480600790A4
:102200000020089009904FF480700A9000200C90F4
:1022100003200D9000040B9000200E900F9001A958
:102220000C48A838FFF7E0FD01210A48A838FFF75D
:10223000CFFC2F208DF8400002208DF841008DF852
:10224000420001208DF8430010A800F0A7FB11B058
:1022500000BD0000B860024004500040228400200D
:10226000A083002000B591B00121880504F0C2FDD3
:1022700000213A48FFF7ACFC3848FFF7B5FC4FF0B7
:102280002060019036480290364803904020049028
:10229000FA200590002006904FF4806007900020FF
:1022A000089009904FF480700A9000200C90032051
:1022B0000D9000040B9000200E900F9001A927486C
:1022C000FFF792FD00212548FFF782FC0122102133
:1022D0002248FFF76BFD002120489038FFF778FC7B
:1022E0001E489038FFF780FC4FF0206001901C489A
:1022F00002901D48039000200490FA2005900020D1
:1023000006904FF4806007900020089009904FF4E9
:1023100080700A9000200C9003200D9000040B9018
:1023200000200E900F9001A90C489038FFF75CFD3B
:1023300001210A489038FFF74BFC46208DF84000F9
:1023400002208DF841008DF8420001208DF84300F5
:1023500010A800F023FB11B000BD0000B8640240DB
:1023600004140140A2810020A880002000B591B093
:102370000121880504F03EFD00212048FFF728FCDC
:102380001E48FFF731FC002001901D4802901D48B7
:102390000390002004905A200590002006904FF4EE
:1023A00080600790400008900990C0100A900020BB
:1023B0000C9003200D9000040B9000200E900F90C5
:1023C00001A90E48FFF710FD012210210B48FFF76D
:1023D000EDFC01210948FFF7FBFB38208DF8400098
:1023E00002208DF8410003208DF8420001208DF875
:1023F000430010A800F0D2FA11B000BD10640240F2
:102400004C200140F07B0020704700002DE9FF4F79
:1024100087B0884691469A460024D3466FEA080062
:1024200085B20026002700BF00208DF800008DF83F
:1024300011008DF8120005908DF8180000240CE0B2
:1024400045FA04F000F0010028B19DF81200401C8C
:10245000C0B28DF81200601C84B2102CF0DB002496
:102460000AE045FA04F000F0010010B9701C86B2D1
:1024700000E01024601C84B2102CF2DB00240AE07F
:1024800005FA04F000F4004010B9781C87B200E0AF
:102490001024601C84B2102CF2DB344611E045FAA3
:1024A00004F000F0010050B99DF800200DF101008A
:1024B00084549DF80000401CC0B28DF80000601CE0
:1024C00084B2C7F11000A042E9DC9DF800000028AA
:1024D0001FDD01208DF811009DF80000012818DD96
:1024E000002411E00DF10100611C415C005D081A3F
:1024F000012800D106E09DF81100401CC0B28DF803
:10250000110000BF601C84B29DF80000401EA04274
:10251000E8DC9DF8120028B91020059001208DF804
:1025200018003EE09DF80000002830DD9DF8110005
:10253000012836D1BBF1020F10D134460BE045FA29
:1025400004F000F0010018B10120A040854300E034
:102550001024601C84B2102CF1DB65E7BBF1010F85
:1025600011D13C460CE005FA04F000F4004020B123
:102570004FF400402041854300E01024601C84B2E9
:10258000102CF0DB50E701208DF8180009E09DF8D1
:102590001200484502DCB81B059002E001208DF8CE
:1025A00018001C2269460548FEF7C0F81C2269463F
:1025B0000798FEF7BBF80BB0BDE8F08F2885002028
:1025C000F0B50A4600210023002400BF3DE00125AC
:1025D00005FA01F3156805EA03049C4234D1056845
:1025E0004F000326BE40B543056015794E00B54047
:1025F0000668354305601579012D02D01579022D45
:1026000016D185684F000326BE40B54385605579D5
:102610004E00B540866835438560456801268E408A
:10262000B5434560456896798E40B6B235434560FE
:10263000C5684F000326BE40B543C560D5794E003E
:10264000B540C6683543C560491C1029BFD3F0BDED
:10265000F0B5002300244D07ED0E02FA05F3CE106D
:1026600000F1200555F826504E07F70E0F26BE4004
:10267000B543CF1000F1200646F82750CE1000F1E8
:10268000200555F8265045EA0304CE1000F1200538
:1026900045F82640F0BD418370470183704700BF75
:1026A000FEE7302805DB392803DCA0F13001C8B291
:1026B00010E0412805DB462803DCA0F13701C8B251
:1026C00008E0612805DB662803DCA0F15701C8B2E9
:1026D00000E0FF20704700004CF6CC400149086044
:1026E000704700000030004010B500F013F810BD36
:1026F00070B505460C4645F2555000F01FF82846C7
:1027000000F010F8204600F013F800F003F8FFF78F
:10271000E3FF70BD4AF6AA20014908607047000037
:102720000030004001494860704700000030004020
:10273000014988607047000000300040014908608E
:1027400070470000003000401CB50121202004F03B
:1027500051FB0121022004F04DFB0121402004F037
:1027600049FB0121084604F045FB0121042004F047
:1027700041FB0121082004F03DFB0121102004F061
:1027800039FB4FF68070009000208DF80400032084
:102790008DF8050001208DF8070069465248FFF7C3
:1027A0000FFF0320009000208DF8040003208DF817
:1027B000050001208DF8070069464C48FFF700FF2F
:1027C0001020009001208DF8040000208DF80600F4
:1027D00003208DF8050001208DF807006946444864
:1027E000FFF7EEFE01204349086018200090012009
:1027F0008DF8040000208DF8060003208DF80500F8
:1028000001208DF8070069463B48FFF7D9FE80207C
:10281000009001208DF8040000208DF806000320B0
:102820008DF8050001208DF8070069463348FFF751
:10283000C7FE00203249C1F89C020320009001200D
:102840008DF8040000208DF8060003208DF80500A7
:1028500001208DF8070069462348FFF7B1FE0120EB
:10286000284908602849C1F884020F2000900120FF
:102870008DF8040000208DF8060003208DF8050077
:1028800001208DF8070069462048FFF799FE0120D6
:102890001F490860091D0860091D08601D49C1F82D
:1028A0008C024FF47E40009001208DF8040000203F
:1028B0008DF8060003208DF8050001208DF8070033
:1028C00069460A48FFF77CFE002013490860091D8D
:1028D0000860091D0860091D0860091D0860091DC0
:1028E0000860091D08601CBD00100240001802406D
:1028F000000002409002404200040240000C0240EE
:1029000000804142800242420000424200140240E4
:102910008082424200804242A402434200BF05E05E
:102920000A2300221146104606F084FAF8E700BF99
:10293000FEE730B505460C4622460021284600F049
:1029400001F830BD2DE9F04105460B4694460027BD
:10295000002402E03F021F43641C042CFAD36046AB
:1029600005F00306294646B1344603E001F8013B71
:10297000401E641C08B1042CF8D30A4601E080C252
:10298000001F0428FBD2114602E001F8013B401E63
:102990000028FAD1BDE8F0817047000070B5002131
:1029A00000230F22C4781CB3174C246804F4E0649D
:1029B000C4F5E064C4F30721C1F10404E3B20A41A1
:1029C00044789C40E1B28478144021430C07210EE6
:1029D0000E4C05786155047804F01F050124AC40C5
:1029E00005786D11AD0005F1E025C5F8004109E05D
:1029F000047804F01F050124AC40054D06787611DB
:102A000045F8264070BD00000CED00E000E400E059
:102A100080E100E002490143024A11607047000072
:102A20000000FA050CED00E0154816481648174856
:102A3000174818481848194819481A481A481B488E
:102A40001B481C481C481D481D481E481E481F485E
:102A50001F4820482048214821482248224823482E
:102A600023482448244825482548264826482748FE
:102A70002748284828482948294800BF70470000AF
:102A800034B1000894B0000898B000089CB0000869
:102A9000A0B00008A4B00008A8B00008ACB00008BE
:102AA000B0B00008B4B00008B8B00008BCB000086E
:102AB000C0B00008C4B00008C8B00008CCB000081E
:102AC000D0B00008D4B00008D8B00008DCB00008CE
:102AD000E0B00008E4B00008E8B00008ECB000087E
:102AE000F0B00008F4B00008F8B00008FCB000082E
:102AF00000B1000804B1000808B100080CB10008DA
:102B000010B1000814B1000818B100081CB1000889
:102B100020B1000824B1000828B100082CB1000839
:102B200030B1000810B50348006810B101480068D2
:102B3000804710BD2C01002070B5044600F0C2F89B
:102B400000204849087048490870484908704849B9
:102B50000860484908604849087048490870484971
:102B60000870484908604849086048490860484971
:102B70000870484800680A21B0FBF1F04649086037
:102B80004648006858B14648056845B1434806685C
:102B900003E0761E002028602D1D002EF9D10020B4
:102BA0004049086040490860404908604049086061
:102BB0004049086040490860404908604049087041
:102BC00002F0ECF902F0CCFA204601F07BFB208801
:102BD00000B170BD204601F05DFF208800B1F8E72C
:102BE000204601F07FFF208800B1F2E7204602F086
:102BF0004BF8208800B1ECE7204602F0FFF920886E
:102C000000B1E6E7204602F01FFC208800B1E0E7B3
:102C1000204602F041FF208800B1DAE7204601F0AB
:102C2000A5FE208800B1D4E7204601F0BDFC208835
:102C300000B1CEE7204603F09FFE208800B1C8E730
:102C4000204602F06DFE208800B1C2E7204603F066
:102C5000EFFE208800B1BCE701F05CFAFFF7E4FE6C
:102C600000BFB6E74001002041010020880100209C
:102C7000E0010020E40100206E0100206F0100202F
:102C8000700100207C0100208001002084010020D0
:102C900090010020F4B000088C010020C4B00008AE
:102CA000C0B00008200100202401002028010020DD
:102CB0002C010020300100203401002038010020C8
:102CC000BE010020064800680649096800EB810043
:102CD000054908600846006820F007000860704752
:102CE000C0B00008C4B00008E8010020084800781F
:102CF000012800D0704707480078FA2800DBF9E780
:102D000004480078401C0349087000BFF2E7000047
:102D1000410100204001002010B500242D4800781A
:102D2000012800D010BD00BFFDF7CCFA044600BF5B
:102D30002948007828B900BF2046FDF7C7FA00BF30
:102D4000F0E725480078401E2349087008460078BF
:102D5000002805DD00BF2046FDF7B8FA00BFE1E717
:102D60001E480078002805DD00BF2046FDF7AEFABA
:102D700000BFD7E702F0FEF819490870084600784E
:102D800000EB4000174951F8200017490860084639
:102D9000006816490968884205D100BF2046FDF742
:102DA00095FA00BFBEE710480068D0F89000401CBC
:102DB0000D490968C1F890000D480068401C0C4995
:102DC0000860FDF7CFFD00BF2046FDF77FFA00BF8A
:102DD00000BFA7E74101002040010020880100203A
:102DE0006F010020DC9D0020E4010020E0010020B4
:102DF000B401002010B500241F480078002800DD31
:102E000010BD1E480078002800DDF9E700BFFDF77F
:102E100059FA044600BF02F0ADF819490870084697
:102E2000007800EB4000174951F82000164908606F
:102E30000846006815490968884205D100BF204648
:102E4000FDF744FA00BFDBE70F480068D0F89000B8
:102E5000401C0D490968C1F890000D480068401CED
:102E60000B490860FDF779FD00BF2046FDF72EFAFB
:102E700000BF00BFC4E7000040010020880100201F
:102E80006F010020DC9D0020E4010020E001002013
:102E9000B401002070B504460025184800780028C9
:102EA00003DD46F66250208070BD15480078012889
:102EB00003D045F689602080F6E712480078FA28AA
:102EC00003DB45F209202080EEE700BF00BFFDF7DD
:102ED000F9F9054600BF00BF0A480078401C0949BF
:102EE000087002F01DFA00BF00BF2846FDF7EEF99A
:102EF00000BF00BF0020208000BFD5E740010020B8
:102F000041010020880100202DE9F04105460C46D2
:102F10001646002700BF00BFFDF7D4F9074600BFE3
:102F200000BF012D03D000200D49087002E00120F0
:102F30000B49087014B10B48046006E00A480068A9
:102F40000A21B0FBF1F00749086000BF00BF384616
:102F5000FDF7BCF900BF00BF00203080BDE8F08164
:102F6000900100208C010020F4B0000870B50446E8
:102F7000002520480078002803DD46F665502080B3
:102F800070BD1D480078012803D045F68960208077
:102F9000F6E71A48007818B946F664502080EFE743
:102FA00000BF00BFFDF78EF9054600BF00BF134804
:102FB0000078401E114908700846007800280ADD94
:102FC00000BF00BF2846FDF781F900BF00BF46F6ED
:102FD00063502080D4E702F0B1F900BF00BF28465B
:102FE000FDF774F900BF00BFFFF704FF0020208049
:102FF00000BFC5E7400100204101002088010020FA
:1030000010B5044612480078E8B901F0B3FF114941
:10301000087008460078104908700E48007800EBE8
:1030200040000E4951F820000D490860084600682C
:103030000C490860012006490870FDF77DFC43F645
:103040009920208002E045F68A60208010BD0000B3
:10305000410100206F0100206E010020DC9D002056
:10306000E4010020E00100202DE9F04107464FF087
:10307000000800BF00BFFDF725F9804600BF00BF74
:1030800000203D4908603D4908803D4908803D4990
:1030900008603D4908603D4908603D4908603D4978
:1030A000088100BF00BF4046FDF710F900BF00BF18
:1030B00000BF00BFFDF706F9804600BF00BF3648DD
:1030C000046800BF00BF4046FDF700F900BF00BF25
:1030D00021E000BF00BFFDF7F5F8804600BF00BF4C
:1030E00000207834E06320602063A061A082E08249
:1030F0006062A062FEF726FB2062783C04F1640661
:103100000020B081D4F8BC4000BF00BF4046FDF7AE
:10311000DDF800BF00BF002CDBD100BF00BFFDF712
:10312000D1F8804600BF00BF1C48056800BF00BF43
:103130004046FDF7CBF800BF00BF12E000BF00BF64
:10314000FDF7C0F8804600BF00BF05F12006002053
:10315000B081AD6900BF00BF4046FDF7B7F800BFC2
:1031600000BF002DEAD103F0E3FA03F05DFD00207B
:103170003880BDE8F0810000540100204E0100209D
:103180009E010020B0010020C4010020D0010020D9
:1031900080010020D09D0020B80100207401002093
:1031A000F8B5044600266946324800F08FFDBDF8A8
:1031B000000018B1BDF800002080F8BD6A4600216B
:1031C000022000F0F7FDBDF8000018B1BDF80000C6
:1031D0002080F2E700BF00BFFDF774F8064600BF8D
:1031E00000BF00202449086000BF00BF3046FDF743
:1031F0006DF800BF00BF002520480068204909681D
:10320000884205D91D4800681D490968B0FBF1F5E1
:1032100025B91A4800680A21B0FBF1F56A46002179
:10322000284600F0C7FD6946124800F063FABDF871
:10323000000018B1BDF800002080BEE700BF00BF4D
:10324000FDF740F8064600BF00BF00200D490860AA
:10325000094800680C49086001200C49087000BF4B
:1032600000BF3046FDF732F800BF00BF00202080CD
:1032700000BFA2E764A20020A0010020F4B0000873
:10328000DCB00008B0010020A4010020AC01002047
:1032900010B50348006810B101480068804710BDB0
:1032A000300100202DE9FF4F87B004469046DDE94C
:1032B0001BA5DDE91496179F00200390874800782E
:1032C000002805DD47F24A1028800BB0BDE8F08FDA
:1032D0001CB947F2AD102880F7E7B8F1000F03D111
:1032E00047F24F102880F0E71EB946F62F6028807D
:1032F000EBE77B480068874203D246F630602880BF
:10330000E3E71698B84203D346F631602880DCE73D
:10331000B9F1400F03D346F273202880D5E7B9F105
:10332000000F06D16F48844203D046F273202880F4
:10333000CBE7B9F13F0F06D16B48844203D046F288
:1033400073202880C1E7204602F0B6FB00202880C9
:103350000AF0010090B10AF0020078B10596002051
:10336000069008E00021059801600598001D059071
:103370000698401C06900698B842F3D3169806EBC0
:1033800080000490CDE9007A32464046049B0A99B9
:1033900000F06EFB0590C4F828800A98E062089857
:1033A000206284F83790059820600498A0601998EE
:1033B0006065199818B94D480068A06501E0199832
:1033C000A0651A9860606662A763A4F83CA04FF0FD
:1033D000000B08E0002104F17C0040F82B100BF1F9
:1033E000010000F0FF0BBBF1000FF3D004F164000B
:1033F000189901F0C3FB204600F082F800BF00BF1F
:1034000000BFFCF75FFF039000BF00BF38480078A3
:10341000401C3749087000BF00BF0398FCF756FFF7
:1034200000BF00BF00BF94F8370001F0C3FD204685
:1034300001F0DEFE204602F0F5FA2E480088401C1E
:103440002C4908802C48007801282DD000BF00BFEF
:1034500000BFFCF737FF039000BF00BF244800788F
:10346000401E2349087008460078A0B92348008808
:10347000002809DD00BF00BF0398FCF727FF00BF4D
:1034800000BF01F023FF0DE000BF00BF0398FCF771
:103490001DFF00BF06E000BF00BF0398FCF716FF4A
:1034A00000BF00BF00BF10E700BF00BF00BFFCF7B8
:1034B00009FF039000BF00BF0D480078401E0C4973
:1034C000087000BF00BF0398FCF700FF00BF00BFFB
:1034D00000BFFFF78FFC00BFF7E6000040010020AF
:1034E000F0B000080C9D0020489C00208C010020BA
:1034F00088010020BC010020410100204C01002077
:1035000010B504460348006818B12046014909680F
:10351000884710BD2001002070B504460D460026E6
:1035200067480078002803DD47F24E10288070BD00
:103530006448844203D147F24C102880F7E7624880
:10354000844203D147F24D102880F0E77CB900BFD8
:1035500000BFFCF7B7FE064600BF00BF5B4804682B
:1035600000BF00BF3046FCF7B1FE00BF00BF00BF88
:1035700000BF00BFFCF7A6FE064600BF00BF5448D0
:103580000078401C5249087000BF00BF3046FCF76D
:103590009DFE00BF00BF00BF94F8360008282DD262
:1035A000DFE800F004090E10080A0F11204601F0B0
:1035B0005FFE54E053E000BF204603F09DF84EE06C
:1035C00000BF00BF00BF204603F096F894F8340017
:1035D000082810D2DFE800F004070508090A0B06E6
:1035E00000BF00BF08E000BF00BF00BF00BF204613
:1035F00001F011FC00E000BF00BF30E000BF00BFE1
:1036000000BFFCF75FFE064600BF00BF30480078F1
:10361000401E2F49087008460078A0B92D48008840
:10362000002809DD00BF00BF3046FCF74FFE00BF99
:1036300000BF01F04BFE0DE000BF00BF3046FCF7BD
:1036400045FE00BF06E000BF00BF3046FCF73EFE6F
:1036500000BF00BF00BF46F62D60288067E700BFAF
:1036600004F1640001F068FA204600F037F82046C3
:1036700002F0F0F918480088401E174908802046DB
:1036800002F01AFAFF2084F8360000BF00BF00BF26
:10369000FCF718FE064600BF00BF0D480078401E2C
:1036A0000B49087000BF00BF3046FCF70FFE00BF9B
:1036B00000BF00BF00202880FFF79CFB00BF36E75B
:1036C00040010020489C00200C9D0020E0010020CB
:1036D000880100204C010020BC01002010B50446E8
:1036E0000348006818B1204601490968884710BDA1
:1036F000240100207FB504460D46002600BF00BF10
:10370000FCF7E0FD064600BF00BF1CB1154800688D
:1037100084420AD100BF00BF3046FCF7D7FD00BF8E
:1037200000BF47F2571028807FBD00BF00BF304662
:10373000FCF7CCFD00BF00BF0B48007800280BDD74
:10374000002000900190034602462146CDE9020583
:10375000064800F061FFE7E72946204602F024FB17
:1037600000BFE1E7E0010020400100205452455332
:1037700010B504460348006818B12046014909689D
:10378000884710BD280100202DE9F04780460E46ED
:1037900014461D464FF000097D480078002805DDDD
:1037A00046F2AE1028800020BDE8F0871EB1B6F5C5
:1037B000004F02D100E000BF04E045F625602880FC
:1037C0000020F1E700BF0CB10020206000BF00BF67
:1037D000FCF778FD814600BF00BF6E480068406C72
:1037E000A8B36C480068406C401E6A490968486488
:1037F00068480068476C1CB166480068006C20602F
:10380000FDF7A0FF63490968096C401A614909681E
:10381000C1F8A4005F480068D0F8A8005D490968B5
:10382000D1F8A410884207D25A480068D0F8A40002
:1038300058490968C1F8A80000BF00BF4846FCF716
:1038400045FD00BF00BF002028803846ACE7FFE7F9
:1038500006F4004058B100BF00BF4846FCF736FDF3
:1038600000BF00BF46F2B010288000209CE74A4805
:10387000007800280BDD00BF00BF4846FCF726FD9E
:1038800000BF00BF46F66350288000208CE700BFD1
:1038900041480078401C4049087000BF00BF4846BE
:1038A000FCF714FD00BF00BF00BF43460722002104
:1038B000084601F0F5F900BF00BF00BFFCF702FDAC
:1038C000814600BF00BF34480078401E324908706E
:1038D00000BF00BF4846FCF7F9FC00BF00BF00BFB7
:1038E000FFF788FA00BF00BFFCF7ECFC814600BF81
:1038F00000BF2848006890F8350020B1012826D084
:10390000032834D12CE0FCB122480068006C206010
:10391000FDF718FF1F490968096C401A1D4909681D
:10392000C1F8A4001B480068D0F8A800194909682C
:10393000D1F8A410884207D216480068D0F8A40035
:1039400014490968C1F8A8000020288013E01CB1C0
:1039500010480068006C206046F2A91028800AE038
:103960000CB10020206047F2D920288003E046F601
:103970002E60288000BF00BF06480068476C00BF6B
:1039800000BF4846FCF7A2FC00BF00BF38460BE76B
:1039900040010020E0010020880100202DE9F047CF
:1039A00005460E4617461C464FF0000A2E48007882
:1039B000002804DD47F259102080BDE8F0871EB9C9
:1039C00046F2D5202080F8E71FB946F2D5202080A6
:1039D000F3E700BF00BFFCF775FC824600BF00BFE5
:1039E0000DB922480568286868B900BF00BF504675
:1039F000FCF76CFC00BF00BF00203060386047F26D
:103A000052102080D9E795F83C0000F0010068B919
:103A100000BF00BF5046FCF759FC00BF00BF0020AC
:103A20003060386047F254102080C6E700BF00BF06
:103A30005046FCF74BFC00BF00BF4FF00008D5F824
:103A4000249003E009F1040908F10108D9F8000005
:103A50000028F7D0C6F80080A86BA0EB08003860FB
:103A60000020208000BFA8E740010020E0010020E6
:103A7000F0B50446DDE9055602EB850020F00700AD
:103A80004FF0000C071F3846C7F800C04FF4805CA9
:103A9000071F3846C7F800C04FF0150C071F3846FF
:103AA000C7F800C04FF0140C071F3846C7F800C015
:103AB0004FF0130C071F3846C7F800C04FF0120C28
:103AC000071F3846C7F800C04FF0110C071F3846D3
:103AD000C7F800C04FF0100C071F3846C7F800C0E9
:103AE0004FF0090C071F3846C7F800C04FF0080C0C
:103AF000071F3846C7F800C04FF0070C071F3846AD
:103B0000C7F800C04FF0060C071F3846C7F800C0C2
:103B10004FF0050C071F3846C7F800C04FF0040CE3
:103B2000071F3846C7F800C04FF0030C071F384680
:103B3000C7F800C04FF0020C071F3846C7F800C096
:103B40004FF0010C071F3846C7F800C04FF0000CBB
:103B5000071F3846C7F800C04FF0807C071F384663
:103B6000C7F800C0071F38463C60DFF85CC1071F7C
:103B70003846C7F800C04FF0123C071F3846C7F858
:103B800000C04FF0033C071F3846C7F800C04FF095
:103B9000023C071F3846C7F800C0071F38463B6085
:103BA000071F384639604FF0310C071F3846C7F8F9
:103BB00000C04FF0300C071F3846C7F800C04FF068
:103BC000290C071F3846C7F800C04FF0280C071F04
:103BD0003846C7F800C04FF0270C071F3846C7F813
:103BE00000C04FF0260C071F3846C7F800C04FF042
:103BF000250C071F3846C7F800C04FF0240C071FDC
:103C00003846C7F800C04FF0230C071F3846C7F8E6
:103C100000C04FF0220C071F3846C7F800C04FF015
:103C2000210C071F3846C7F800C04FF0200C071FB3
:103C30003846C7F800C04FF0190C071F3846C7F8C0
:103C400000C04FF0180C071F3846C7F800C04FF0EF
:103C5000170C071F3846C7F800C04FF0160C071F97
:103C60003846C7F800C04FF0113C071F3846C7F868
:103C700000C04FF0103C071F3846C7F800C04FF097
:103C8000093C071F3846C7F800C04FF0083C071F23
:103C90003846C7F800C04FF0073C071F3846C7F842
:103CA00000C04FF0063C071F3846C7F800C04FF071
:103CB000053C071F3846C7F800C04FF0043C071FFB
:103CC0003846C7F800C0F0BDE95E00087FB505467C
:103CD0000C461248854203D147F25B1020807FBD1D
:103CE0000F48854203D147F25C102080F7E70D486A
:103CF000007800280BDD002000900190034602466A
:103D00002946CDE90204084800F086FCE7E7214691
:103D1000284602F057FB00BFE1E70000489C002066
:103D20000C9D0020400100205453555310B51D48F0
:103D3000006810B11B4800688047FDF703FD04468A
:103D40001948006819490968884215D01648006862
:103D5000D0F89800201A14490968C1F89400124854
:103D60000068D0F89C0010490968D1F89410084404
:103D70000D490968C1F89C000C480068C0F89840DB
:103D800009480068D0F8B40009490968884205D29A
:103D90000748006804490968C1F8B40000200449D4
:103DA000086010BD34010020E0010020E401002083
:103DB000840100202DE9F04105460E4614460027F7
:103DC0003F480078002804DD47F275202080BDE8D8
:103DD000F0813C480078002803DD46F663502080DF
:103DE000F5E736B1022E05D0042E0AD0082E09D1EF
:103DF00001E000BF00BF1DB947F27E202080E6E74A
:103E000004E003E045F625602080E0E700BF00BF46
:103E100000BF00BFFCF756FA074600BF00BF2948A5
:103E20000078401C2749087000BF00BF3846FCF7E7
:103E30004DFA00BF00BF00BF01202349096881F887
:103E400036002346324629461F48006802F076FBBA
:103E50002088A8B100BF00BF00BFFCF733FA0746B7
:103E600000BF00BF17480078401E1649087000BF09
:103E700000BF3846FCF72AFA00BF00BF00BFA6E724
:103E80001148006801F0F4F900BF00BF00BFFCF763
:103E900019FA074600BF00BF0A480078401E0949CA
:103EA000087000BF00BF3846FCF710FA00BF00BF23
:103EB00000BFFEF79FFF0020208000BF87E70000C3
:103EC0004001002088010020E00100202DE9FF5F73
:103ED00005460E4617469846DDE90EA400200090E0
:103EE00072480078002804DD47F275202080BDE884
:103EF000FF9F6F480078002803DD46F6635020805E
:103F0000F5E70AF00E0BBBF1000F09D0BBF1020F71
:103F100007D0BBF1040F10D0BBF1080F0ED101E0A8
:103F200000BF00BFB8F1000F06D12FB926B91DB9E7
:103F300047F27E202080DAE704E003E045F62560C2
:103F40002080D4E700BF2AF01E0008B1012000E065
:103F5000002003900398012803D145F625602080B6
:103F6000C5E7CAF3001002900298C0B9B8F57A7F8D
:103F700003D347F27B202080B9E73B2F03DD47F2D4
:103F80007A202080B3E73B2E03DD47F279202080A2
:103F9000ADE7632D12DD47F278202080A7E742F2DB
:103FA0000F70864203DD47F2792020809FE7B5F548
:103FB0007A7F03DB47F27820208098E73D48D0F8ED
:103FC00000904FF4FA70B0FBF9F0404400FB09F0A8
:103FD0004FF47A71B0FBF1F14FF461606843C6EBC6
:103FE000061200EB8200384400FB09100190019892
:103FF000002856D000BF00BF00BFFCF763F9009057
:1040000000BF00BF2A480078401C2949087000BF43
:1040100000BF0098FCF75AF900BF00BF00BF0120A5
:104020002549096881F8360023465A4622480199F5
:10403000006802F083FA2088A8B100BF00BF00BF6B
:10404000FCF740F9009000BF00BF19480078401EFF
:104050001749087000BF00BF0098FCF737F900BF90
:1040600000BF00BF43E71448006801F001F900BF3A
:1040700000BF00BFFCF726F9009000BF00BF0C484E
:104080000078401E0A49087000BF00BF0098FCF786
:104090001DF900BF00BF00BFFEF7ACFE002020806E
:1040A00002E047F27E20208000BF20E74001002090
:1040B00088010020F4B00008E001002010B586B0AF
:1040C00000F01EF8FDF73EFB044605A80021009114
:1040D000CDE9011403900748007800EB4000064A40
:1040E00002EB800100231A46044800F095FA06B05E
:1040F00010BD00006E010020DC9D00205449434BA0
:1041000010B50348006810B101480068804710BD31
:1041100038010020244825482548264826482748B5
:10412000274828482848294829482A482A482B4807
:104130002B482C482C482D482D482E482E482F48D7
:104140002F483048304831483148324832483348A7
:104150003348344834483548354836483648374877
:10416000374838483848394839483A483A483B4847
:104170003B483C483C483D483D483E483E483F4817
:104180003F484048404841484148424842484348E7
:1041900043484448444845484548464846484748B7
:1041A000474800BF7047000038B10008A0B20008BF
:1041B0003AB100083BB100083CB1000840B100082A
:1041C00044B1000841B100086CB100086DB10008AD
:1041D0006EB1000870B1000872B1000874B1000837
:1041E00076B1000878B1000898B100089AB10008CB
:1041F0009CB100089EB10008A0B10008A2B100085F
:10420000A4B10008D0B10008D1B10008D2B10008B3
:10421000D4B10008D6B10008D7B10008D8B1000861
:10422000DAB10008DCB10008DEB10008E0B1000836
:10423000E2B10008E4B1000814B2000815B20008A9
:1042400016B2000817B2000818B200081AB2000827
:104250001CB2000844B2000845B2000846B200088B
:1042600047B2000848B200084AB200084CB2000841
:1042700050B2000851B2000852B2000853B2000810
:1042800054B2000855B2000856B2000857B20008F0
:1042900058B200085AB200085BB200085CB20008CD
:1042A0005EB2000860B2000861B2000864B20008A3
:1042B00098B2000899B200089AB200089CB20008AF
:1042C0009EB200080021034A1160034A1180018058
:1042D00070470000580100205C0100202DE9F04FDC
:1042E00085B00446894692469B46DDF8388000201A
:1042F000009000BF00BFFBF7E5FF009000BF00BFCC
:10430000BAF1000F0AD0BAF1010F0DD0BAF5004F83
:1043100005D06FF40040504460B906E000BF206A49
:1043200040EA0900206214E000BF206A20EA090088
:1043300020620EE000BF00BF0098FBF7C7FF00BF80
:1043400000BF45F62560A8F80000002005B0BDE8D4
:10435000F08F00BFC4F824B004F108000190019868
:10436000008958B900BF00BF0098FBF7AFFF00BF3E
:1043700000BF0020A8F80000206AE7E700BF6148FE
:104380000078401C5F49087000BF00BF0098FBF731
:104390009DFF00BF00BF00BF01980768BD687FE0B8
:1043A0007868029095F8880000F00F000390039859
:1043B000012821D002282ED0042802D0082836D186
:1043C0000EE0206AD5F8801000EA0106D5F88000DA
:1043D000B04204D15A463146284600F097F859E0D9
:1043E000206AD5F8801000EA010626B15A46314607
:1043F000284600F08BF84DE0D5F88000216A20EACD
:104400000106D5F88000B04204D15A46314628460C
:1044100000F07CF83EE0D5F88000216A20EA010631
:1044200026B15A463146284600F070F832E000BF07
:1044300000BF00BFFBF746FF009000BF00BF314840
:104440000078401E2F49087008460078A0B92E4811
:104450000088002809DD00BF00BF0098FBF736FF89
:1044600000BF00BF00F032FF0DE000BF00BF0098AA
:10447000FBF72CFF00BF06E000BF00BF0098FBF772
:1044800025FF00BF00BF00BF43F6FF20A8F80000D3
:1044900000205BE700BF029F0FB1BD6800E0002570
:1044A000002D7FF47DAF00BF00BF00BFFBF70AFF08
:1044B000009000BF00BF13480078401E11490870EB
:1044C00000BF00BF0098FBF701FF00BF00BF00BFA7
:1044D0000AF4004008B9FEF78DFC00BF00BFFBF7EF
:1044E000F1FE009000BF00BF206A049000BF00BF33
:1044F0000098FBF7EBFE00BF00BF0020A8F800000B
:10450000049823E7880100204C01002070B5044680
:104510000E46154634342665002060702070E56034
:10452000A078343C082816D2DFE800F0040508091A
:104530000706101100BF00BF00BF0DE000BF2046FE
:1045400001F024FC002084F8360005E000BF0420C0
:1045500084F8360000E000BF00BF204600F05BFC9E
:1045600070BD0000002400BF19E000BF00BFFBF7D2
:10457000A9FE044600BF00BF09480068401C084966
:10458000086008480068401C0649086000BF00BF7A
:104590002046FBF79BFE00BF00BFFEF7C3FAE4E72F
:1045A0003C010020A001002010B58AB00446002084
:1045B0000E4908600B2000210591CDE90704069102
:1045C00008460B4909680B4A12680B4B1B68CDE97A
:1045D0000132CDE903103F200023084A08A10090D2
:1045E0000C48FEF75FFE0AB010BD00003C01002041
:1045F0009CB0000898B0000894B000086545000819
:1046000075432F4F532D4949492049646C65205407
:1046100061736B00489C00202DE9F84F04460D465D
:1046200016461F46DDE90BABDDF82890DDF8348037
:104630000020009000BF00BFFBF744FE009000BFC9
:1046400000BF2B4800882B49098888423EDA284859
:104650000088401C2649088027480088098888422D
:1046600003DA23480088244908802448006804604D
:1046700022480068856021480068C6601F480068BD
:1046800007821E480068C0F814901C480068A0F813
:1046900018A01A480068C0F81CB0184800684068A4
:1046A00016490860012016490881164808604860CC
:1046B000002000F07FFC1448007818B11248007800
:1046C000124908700020A8F8000008E0104800888F
:1046D000401C0F49088044F25360A8F8000000BF56
:1046E00000BF0098FBF7F2FD00BF00BFBDE8F88FE8
:1046F0004C010020A8B000084E0100204401002019
:10470000DC9D00200C9D00206E0100207001002027
:10471000500100203EB5594800680068584A811A87
:10472000904279D00FDC5749084400283ED05649C2
:104730000844A8B155490844002860D054490844A9
:1047400000286AD13FE053480844002850D052491D
:104750000844002862D0514908440028F1D110E0F3
:1047600002A8464D00902D68EB69444D2D682A8BB8
:10477000424D2D686969414D2D68A868FFF7AEFD6F
:104780007AE002A93D480068C0693C4DCDE90001CE
:104790002D682B8B394D2D682A8A384D2D68E96894
:1047A000364D2D68A86800F035FC65E0334B1B687A
:1047B000DA69324B1B68198B304B1B68986802AB67
:1047C00000F04EFE58E002A92C480068C0692B4D4D
:1047D000CDE900012D682B8B284D2D682A8A274DA5
:1047E0002D68E968254D2D68A86801F0C9F943E0F6
:1047F00022490968886802A901F0D6FA3CE01F4BFB
:104800001B68DA691D4B1B68198B1C4B1B68986869
:1048100002AB01F075FB2FE007E02CE017490968B7
:10482000886802A901F0CEFD26E01D49097801EB58
:1048300041011C4A02EB810000F09EFD0F48006818
:1048400002AB0021C269184801F05AFB1748006802
:10485000401E164908600846006858B914480068A8
:104860000860FCF76FFF044602AB224600211148A6
:1048700001F046FB00E000BF00BF3EBD4801002044
:104880005449434BADBAB2BE0DF90BFAF2F8F7FF3B
:104890000006F6FF00F7FDF700FFEFFF03FE0FFE37
:1048A00070010020DC9D0020A0A10020DC01002080
:1048B000D801002064A20020002700BF4CE00026A1
:1048C00048E000BF00BFFBF7FDFC074600BF00BF8C
:1048D0002248008888B90020214908810860486082
:1048E00000F07AFB00BF00BF3846FBF7EFFC00BFCB
:1048F00000BFFEF77FFA01262CE000BF00BF38465C
:10490000FBF7E4FC00BF00BFFCF71CFF0546FFF708
:1049100001FFFCF717FF441B12480068A04201D2B8
:104920001048046000BF00BFFBF7CCFC074600BF87
:1049300000BF0D48006840680B49086007480088C0
:10494000401E0649088000BF00BF3846FBF7BEFC8A
:1049500000BF00BF002EB4D0B1E700004C01002022
:10496000DC9D00205401002048010020F0B589B0F2
:1049700005460020314908803148006820B944F2DA
:104980005260288009B0F0BD2E480088022803DA62
:1049900044F254602880F5E700202B49086028483D
:1049A00004682646203600270CE0284820600020B6
:1049B000A060E06020826061208366602034203641
:1049C000781C87B21F4800888742EEDB203C1C48D9
:1049D000066866601E4806601E48066000201E4984
:1049E00008801E4908801E48006818B944F25560C6
:1049F0002880C7E71B4800681B490968884203D222
:104A000044F256602880BDE7032000210591CDE9DE
:104A10000705069113480068144A1268104B1B687A
:104A2000CDE90301CDE9013200910B46104A11A1F5
:104A30001748FEF737FC00BFA4E700005001002034
:104A4000A4B00008A8B00008540100204E4F4E4505
:104A500044010020480100204C0100204E010020AC
:104A6000B0B00008B8B00008F0B00008B4B000085A
:104A7000B948000875432F4F532D494949204953E0
:104A800052205175657565205461736B00000000FC
:104A90000C9D00200021034A1160034A118001800F
:104AA00070470000600100206401002070B50246DC
:104AB0000B461046114610315E1EB5B2002408E0C8
:104AC0000160002646600681C66010301031661C09
:104AD000B4B2AC42F4DB0026066046600681C660D4
:104AE00070BD000010B504461048006818B945F2C2
:104AF0001E70208010BD0E48008818B945F21D7048
:104B00002080F7E70A48018808480068FFF7CEFFD1
:104B1000064800680749086005480088888000202A
:104B2000C8800881208000BFE4E70000D4B00008FE
:104B3000CCB00008D09D002010B5014648894B89B3
:104B4000002B17DD0A680C4B1B6813600A4C4B687E
:104B500023602346DB884C891B1B074CE3802346DC
:104B60009B884C892344044CA38000234B818B8178
:104B70000B604B6010BD0000D09D00200181002221
:104B80004281828102604260704700002DE9F0415D
:104B90000D46DDE90674B0F80AC0B0F80880C445D7
:104BA00005DB46F2935CA4F800C0BDE8F081DFF8B5
:104BB000D4C0BCF804C0BCF1000F04D145F21D7C88
:104BC000A4F800C0F1E7DFF8BCC0DCF80010DFF8A3
:104BD000B480D1F800C0C8F800C0C446BCF804C016
:104BE000ACF1010CA8F804C0C446BCF806C00CF136
:104BF000010CA8F806C0C446BCF808C0B8F8068086
:104C0000C44507DADFF87CC0BCF806C0DFF8748062
:104C1000A8F808C0B0F80AC0BCF1000F06D10160C6
:104C200041604FF0010CA0F80AC017E003F0100C2F
:104C3000BCF1000F07D1066831604FF0000CC1F8DD
:104C400000C0016004E0D0F804C0C1F800C04160B9
:104C5000B0F80AC00CF1010CA0F80AC0B0F80CC002
:104C6000B0F80A80C44503DAB0F80AC0A0F80CC056
:104C70004D600A81CF604FF0000CA4F800C000BF67
:104C800093E70000D09D00200021034A1160034AF1
:104C90001180018070470000680100206C01002035
:104CA0002DE9F04105460C4616461F46154800689A
:104CB00080F8346000201349096881F835003946CE
:104CC0001048006800F092FE6CB104F10808EC6036
:104CD000012229460B48006800F016F82946404694
:104CE00000F066F806E0002006490968C887054913
:104CF0000968086303480168204600F019F8BDE818
:104D0000F0810000E001002010B5C287016300239C
:104D10000AE000244C600C600C614C610C83CC6197
:104D2000886020315C1CA3B29342F2DB10BD00000E
:104D300030B548B14568C1F8C05000F10804226898
:104D400093681D6AC56113E091F83450022D02D0BA
:104D5000072D08D103E007A5C1F8C05007E007A55B
:104D6000C1F8C05003E008A5C1F8C05000BF00BFA3
:104D700030BD00005461736B205100005461736BAF
:104D80002053656D000000002000000030B507A52D
:104D9000C1F8C05000F1080422681AB193681D6A76
:104DA000C56101E001A5C56130BD00002000000023
:104DB000F0B58E6896F8375007893FB9012707810B
:104DC00000274F600F600160416023E007897F1C6E
:104DD0000781026806E0946894F83770AF4200DDFE
:104DE00002E05268002AF6D100BF32B900274F60B6
:104DF00043680B60596041600CE017682FB911607F
:104E000000270F604A60016004E013680B604A608D
:104E100059601160F0BD2DE9F0410446256BE68F25
:104E20000AE0D5F80C8008F108072946384600F05A
:104E30000AF82035701E86B2002EF2DC0020E087D2
:104E40002063BDE8F08110B50489012C03D1002452
:104E50000460446011E00C6824B94A6800241460BE
:104E600002600AE04C6824B90B6800245C6043606F
:104E700003E00B684A685A6013600489641E048169
:104E800000244C600C6010BD2DE9F84306460C462A
:104E900017469846089D94F83600082850D2DFE857
:104EA00000F00405080906072B2C00BF00BF00BF57
:104EB00047E000BF94F83400032807D143463A4640
:104EC00021463046009500F03FF803E0E765A4F87E
:104ED0006080256436B12046FFF79DFF21463046AD
:104EE000FFF754FF204600F051FF00203434A0703B
:104EF000607004F8340924E000BF94F834000328FB
:104F000007D143463A4621463046009500F01CF84A
:104F100003E0E765A4F860802564204601F0ECFB1F
:104F200036B12046FFF777FF21463046FFF72EFFC8
:104F300004203434A0700020607004F8340900E0CC
:104F400000BF00BFBDE8F883F0B50446059E086BBE
:104F5000CD8F0AE0C768A74204D104614261038390
:104F6000C66104E020306F1EBDB2002DF2DC00BF30
:104F7000F0BD000070B50025074C03E005F12000EE
:104F8000C5B2241D20680028F8D02068FBF7A5F9D9
:104F90002844C5B2284670BD18010020002004E056
:104FA0000021034A42F82010401C0228F8D3704721
:104FB0001801002030B5420900F01F030121C3F1A0
:104FC0001F04A140034C54F822400C43014D45F806
:104FD000224030BD1801002030B5420900F01F0307
:104FE0000121C3F11F04A140034C54F822408C431B
:104FF000014D45F8224030BD180100200021034A30
:105000001160034A11800180704700007401002084
:10501000780100202DE9F04F85B007468A46934677
:105020001C460020029000BF00BF00BFFBF74AF9FA
:10503000029000BF00BF48480078401C46490870F5
:1050400000BF00BF0298FBF741F900BF00BF00BFDF
:1050500007F108063089002842D104F0100010B989
:105060004FF0000801E04FF01008DDE90E01434663
:105070005A46CDE90001514607F12000FFF786FDB1
:1050800000BF00BF00BFFBF71DF9029000BF00BFCB
:1050900031480078401E3049087008460078A0B9B1
:1050A0002E480088002809DD00BF00BF0298FBF7EA
:1050B0000DF900BF00BF00F009F90DE000BF00BF0F
:1050C0000298FBF703F900BF06E000BF00BF02989B
:1050D000FBF7FCF800BF00BF00BF05B0BDE8F08FD4
:1050E00004F4007008B1358900E00125D6F800907D
:1050F00011E0D9F808000390D9F8040004900E9844
:105100005B465246009038460399FFF7BDFEDDF836
:105110001090681E85B2002DEBD100BF00BF00BF0C
:10512000FBF7D0F8029000BF00BF0B480078401E8C
:105130000949087000BF00BF0298FBF7C7F800BF1D
:1051400000BF00BF04F4004008B9FDF753FE002182
:105150000F98018000BFC0E7880100204C010020AB
:1051600000210AE001EB4102054B03EB8200002223
:105170000281026042604A1CD1B24029F2D37047DA
:10518000DC9D002010B5044694F83700FFF712FFAD
:1051900094F8370005490978884203D1204600F089
:1051A00027F802E0204600F003F810BD6E01002051
:1051B00010B590F8373003EB43030C4C04EB83013C
:1051C0000B893BB901230B810023C3600361086095
:1051D000486009E00B895B1C0B810B68C3600023EE
:1051E00003610A681061086010BD0000DC9D0020AA
:1051F00010B590F8373003EB43030B4C04EB8301FD
:105200000B893BB901230B810023C3600361086054
:10521000486008E00B895B1C0B810023C3604A686F
:105220000261D060486010BDDC9D002010B50146D1
:105230000C8924B1012C03D0022C0CD101E000BF59
:1052400014E008684A6802610024C4601461D060F8
:105250000A6048600AE008684A68C36800241C6164
:10526000C4600261D0600B60486000BF00BF10BD29
:105270002DE9F041054695F8370000EB4000124952
:1052800001EB80042F69EE6887B946B900202081C0
:105290002060606095F83700FFF79EFE0EE02089E1
:1052A000401E208100203061266007E02089401EDA
:1052B0002081FE600EB9676000E037610020286140
:1052C000E860BDE8F0810000DC9D002010B50024FE
:1052D00000BFFAF7F7FF044600BF00200C49087032
:1052E0000C480D49086008460068D0F89000401C42
:1052F0000968C1F8900009480068401C0749086027
:10530000FBF72BFB00BF2046FAF7E0FF00BF10BD04
:105310006F0100200C9D0020E4010020B40100205A
:1053200010B504480078012803D1FCF70BFA0249B4
:10533000086010BD880100207C01002010B50A48DB
:10534000007880B9FCF7FEF908490968441A084852
:105350000068A04201D20648046006480068A042E6
:1053600001D20448046010BD880100207C010020A7
:10537000800100208401002070B5054600262E48DB
:105380000078012800D070BD00BF00BFFAF79AFF77
:10539000064600BF00BF2C683CB900BF00BF3046C6
:1053A000FAF794FF00BF00BFEDE72448844207D11D
:1053B00000BF00BF3046FAF789FF00BF00BFE2E739
:1053C000A06D10B1A06D401EA065A06D38B100BFEA
:1053D00000BF3046FAF77AFF00BF00BFD3E7288945
:1053E000022807DA00BF00BF3046FAF76FFF00BFA0
:1053F00000BFC8E712480078002807DD00BF00BFE3
:105400003046FAF763FF00BF00BFBCE72846FFF74E
:105410000DFF2C68606D18B90A480068A06501E0AE
:10542000606DA06500BF00BF3046FAF74FFF00BFB8
:1054300000BF00BFA7E7000090010020489C0020AB
:10544000880100208C0100200021034A1160034ADA
:105450001180018070470000940100209801002015
:105460002DE9FF5F0446884691461D4600200190C5
:1054700000BF00BFFAF726FF019000BF00BF04F194
:105480000807388900284FD10420012804D00228B9
:1054900014D0042834D123E0206AFF280DD100BFA6
:1054A00000BF0198FAF712FF00BF00BF46F6C550D3
:1054B0002880002004B0BDE8F09F22E04FF6FF7185
:1054C000206A88420BD100BF00BF0198FAF7FEFEA8
:1054D00000BF00BF46F6C55028800020EAE710E074
:1054E000206A401C58B900BF00BF0198FAF7EEFED1
:1054F00000BF00BF46F6C55028800020DAE700E074
:1055000000BF00BF206A401C2062D4F820A0C4F86D
:10551000249000BF00BF0198FAF7D8FE00BF00BF7B
:10552000002028805046C5E700BF25480078401C71
:105530002349087000BF00BF0198FAF7C7FE00BFFB
:1055400000BF00BF08F4007008B13E8900E00126EA
:10555000D7F800B011E0DBF808000290DBF8040097
:10556000039000231A46CDF8009020460299FFF7D9
:105570008BFCDDF80CB0701E86B2002EEBD1D4F897
:1055800020A000BF00BF00BFFAF79CFE019000BF43
:1055900000BF0B480078401E0949087000BF00BFDB
:1055A0000198FAF793FE00BF00BF00BF08F4004067
:1055B00008B9FDF71FFC0020288050467AE700005C
:1055C0008801002086B00020009000BF06E0C3499B
:1055D0000968480001AA0021FEF7ECFBC0480078EA
:1055E0000128F4D101A8FDF73FFD0027BD48006860
:1055F000BA490968884205D9BA480068B7490968B4
:10560000B0FBF1F727B9B74800680A21B0FBF1F702
:1056100062E1FCF797F8804600BF00BFFAF752FE40
:10562000009000BF00BFB0480068B049086000208B
:10563000AD49086000BF00BF0098FAF747FE00BF01
:1056400000BFAB480068A9490968884248D9A84802
:105650000068A849884205D242F2107003900120E8
:10566000029023E0A2480068A349884205D24FF483
:105670007A7003900A20029018E09D4800689F49C4
:10568000884203D26420039002900FE0984800689B
:105690009B49884205D20A2003904FF47A70029009
:1056A00004E00120039042F21070029090480168DB
:1056B0000298B1FBF0FA8D49039809684843B0FBA2
:1056C000FAF042F21071081A8E4908808E4800885C
:1056D0000988884208DA8B4800888B49088003E0F3
:1056E00042F2107087490880FDF7D2FD002500BF07
:1056F00000BFFAF7E7FD009000BF00BF83480468D1
:1057000000BF00BF0098FAF7E1FD00BF00BF5AE0FC
:1057100000BF00BF00BFFAF7D5FD009000BF00BF7B
:105720007B480078401C7A49087000BF00BF009891
:10573000FAF7CCFD00BF00BF00BF54F89C0F6060BB
:10574000002044F89C0900BF00BF00BFFAF7BAFD73
:10575000009000BF00BF6E480078401E6C49087082
:1057600008460078A0B96B480088002809DD00BF12
:1057700000BF0098FAF7AAFD00BF00BFFFF7A6FD23
:105780000DE000BF00BF0098FAF7A0FD00BF06E0E3
:1057900000BF00BF0098FAF799FD00BF00BF00BF2F
:1057A000D4F8A000054400BF00BFFAF78BFD0090BD
:1057B00000BF00BFD4F8BC4000BF00BF0098FAF79C
:1057C00085FD00BF00BF002CA2D145B349488542EA
:1057D00005D242F2107005904FF0010B1BE04648D5
:1057E000854205D24FF47A7005904FF00A0B12E013
:1057F0004248854203D26420059083460BE040482E
:10580000854204D20A2005904FF47A7B03E0012000
:10581000059042F2107BB5FBFBF0049003E0002002
:1058200005900120049000BF00BFFAF74BFD0090E7
:1058300000BF00BF3548046800BF00BF0098FAF7FA
:1058400045FD00BF00BF2BE0D4F8A00005994843F8
:105850000499B0FBF1F086B242F21070864200D992
:105860000646A4F88C60B4F88E00B04201DAA4F8C1
:105870008E6001AB04F1AC02111D2046FEF78EF8DC
:1058800000BF00BFFAF71EFD009000BF00BFD4F8B4
:10589000BC4000BF00BF0098FAF718FD00BF00BF72
:1058A000002CD1D11C480078012805D100201A49CC
:1058B000087001A8FDF7D8FBFBF744FFA0EB08092F
:1058C00016480068484502D21448C0F8009001AA62
:1058D00000213846FEF76EFA9BE60000DCB00008B7
:1058E000AC010020F4B00008A0010020A8010020B5
:1058F000A4010020801A060000093D00005A62023F
:105900000084D7179C0100209E010020B8010020D0
:10591000880100204C0100209A010020B0010020E5
:1059200010B58AB0044600201F4908601F4908606E
:105930001F4908601F4908701F4908701F48006808
:1059400020B946F62B6020800AB010BD1C480068C4
:105950001C490968884203D246F62C602080F3E790
:10596000194800783F2803D346F62A602080EBE7E9
:10597000032000210591CDE907040691084610494E
:105980000968124A12680D4B1B68CDE90132CDE956
:1059900003100D48007800230D4A0EA10090124814
:1059A000FDF780FC00BFCFE7A0010020A801002088
:1059B000A4010020AC0100209A010020E0B0000802
:1059C000E8B00008F0B00008D8B00008E4B0000863
:1059D000C555000875432F4F532D4949492053742D
:1059E0006174205461736B00DCA0002038B504465C
:1059F0000D4685B16B4602222946204600F09EFDE9
:105A0000BDF8000018B9032084F8360006E0022033
:105A100084F8360002E0022084F836002046FFF7C2
:105A200027FC38BD0021C0F8B8100949096819B928
:105A30000021C0F8BC1007E005490968C0F8BC1097
:105A400003490968C1F8B8000149086070470000BF
:105A5000B8010020D0F8B820D0F8BC104AB90D4BDE
:105A6000196011B10023C1F8B8300023C0F8BC3070
:105A70000FE029B90023C2F8BC30C0F8B83008E004
:105A8000C2F8BC10C1F8B8200023C0F8BC30C0F880
:105A9000B8307047B80100200021044A1160044A60
:105AA0001180044A1160018070470000B801002095
:105AB000BC010020B401002070B504460020206025
:105AC000A0606060E06020616061A061E06129A089
:105AD000206200206062A062E0622064E065A4F8B9
