:020000040800F2
:1000000040E1002069020008352800086D2300083F
:10001000CB27000897070008918500080000000022
:10002000000000000000000000000000117800083F
:100030007922000800000000830300085D790008B1
:10004000830200088302000883020008830200087C
:10005000830200088302000883020008830200086C
:10006000830200088302000883020008830200085C
:100070008302000883020008F11A0008211B00080F
:1000800083020008591B000883020008830200084D
:100090009D0800088302000883020008830200080C
:1000A000E179000883020008830200088302000847
:1000B000297A0008957A0008830200088302000864
:1000C00083020008830200088302000883020008FC
:1000D0008302000883020008398000086581000857
:1000E00083020008830200088302000883020008DC
:1000F00083020008830200088302000883020008CC
:1001000083020008830200088302000883020008BB
:10011000257E00088302000883020008830200088D
:10012000811B000883020008830200088302000884
:10013000830200088302000883020008830200088B
:10014000E10B000883020008830200088302000814
:100150008302000883020008ED1B000825830008C5
:10016000830200088302000883020008830200085B
:10017000830200088302000883020008830200084B
:10018000830200088302000800F002F800F05CF827
:100190000AA090E8000C82448344AAF10107DA45E2
:1001A00001D100F051F8AFF2090EBAE80F0013F0D8
:1001B000010F18BFFB1A43F0010318478892000093
:1001C000A89200000A444FF0000C10F8013B13F015
:1001D000070408BF10F8014B1D1108BF10F8015BA0
:1001E000641E05D010F8016B641E01F8016BF9D193
:1001F00013F0080F1EBF10F8014BAD1C0C1B09D1EA
:100200006D1E58BF01F801CBFAD505E014F8016B5B
:1002100001F8016B6D1EF9D59142D6D370470000ED
:100220000023002400250026103A28BF78C1FBD8FF
:10023000520728BF30C148BF0B6070471FB508F098
:10024000F4FF1FBD10B510BD00F04DF81146FFF7CB
:10025000F5FF08F0F1FC00F06BF803B4FFF7F2FFD4
:1002600003BC08F0C7FB0000094880470948004765
:10027000FEE7FEE7FEE7FEE7FEE7FEE7FEE7FEE756
:10028000FEE7FEE704480549054A064B70470000B3
:10029000797900088901000840D3002040E100205E
:1002A00040D5002040D5002072B6704762B6704736
:1002B000EFF3108072B6704780F31088704730BF3C
:1002C000704720BF7047B0FA80F0704790FAA0F0F6
:1002D000B0FA80F0704790FAA0F07047704770470E
:1002E000704770477047754600F02CF8AE46050021
:1002F0006946534620F00700854618B020B5FFF741
:10030000C1FFBDE820404FF000064FF000074FF05E
:1003100000084FF0000B21F00701AC46ACE8C00923
:10032000ACE8C009ACE8C009ACE8C0098D4670472C
:1003300010B50446AFF300802046BDE81040FFF73B
:100340008CBF000000487047E0D2002022484FF6E2
:10035000FF710170002080F309882048016881F353
:1003600008881F484FF08051016062B6FEE71C48C4
:100370004FF080510160704719484FF08051016083
:10038000704772B6EFF3098050B11EF0100F08BF2E
:1003900020ED108A203880E8F00F124909680860C3
:1003A00000B5114880475DF804EB104810490A7801
:1003B00002700C480F490A680260106890E8F00F5C
:1003C00020301EF0100F08BFB0EC108A80F30988AF
:1003D0004EF0040E62B6704722ED00E07801002076
:1003E00004ED00E070010020C13C0008FE00002088
:1003F000FF0000207401002000B58DB00121042011
:1004000006F098FD0121080206F0C4FD0E200B90B5
:1004100003208DF8300000208DF833000BA9204810
:1004200001F02BFF002007900A9009904FF48030D4
:10043000089007A800F044F80020019001208DF8F2
:1004400008008DF8090000200390059003208DF826
:10045000180001A9134800F061F8072301220B21BD
:10046000104800F085F8072302220C210D4800F007
:100470007FF8072303220D210A4800F079F80121B3
:10048000084800F040F80121064800F031F8012149
:10049000044800F009F8034800F0C6F80DB000BDAC
:1004A000000802400020014021B1826842F00102B0
:1004B000826003E0826822F00102826070470000DF
:1004C0000021084A1168084A1140D0E900231A4364
:1004D00083681A43C3681A431143044AC2F80413D9
:1004E0007047000004230140E030FCFF0020014081
:1004F00021B1826842F48072826003E0826822F453
:1005000080728260704721B1826842F4007282601A
:1005100003E0826822F400728260704730B50246C0
:10052000002000235068104C20400D790C6844EAEC
:1005300005242043506090680C4C2040D1E90354BE
:100540002C438D682C434D7944EA45042043906048
:10055000D06A20F470000C7D641EE4B2234340EAAC
:100560000350D06230BD0000FFFEFFFCFDF7FFC06E
:10057000F0B504460D4600200021092D11DDE0688C
:10058000A5F10A0606EB4607072606FA07F1884397
:10059000A5F10A0606EB460603FA06F10843E060F9
:1005A0000CE0206905EB4507072606FA07F18843AA
:1005B00005EB450603FA06F108432061072A0FDA26
:1005C000606B561E06EB86071F2606FA07F1884366
:1005D000561E06EB860605FA06F10843606322E024
:1005E0000D2A0FDA206BD61F06EB86071F2606FAA8
:1005F00007F18843D61F06EB860605FA06F1084385
:10060000206310E0E06AA2F10D0606EB86071F26C4
:1006100006FA07F18843A2F10D0606EB860605FAF5
:1006200006F10843E062F0BD816841F080418160DD
:100630007047000070B53F480078801E81B23E4888
:1006400000F016FE0446E5B2260A3A480078801EFD
:100650003949085CA84234D136480078401E085C0D
:10066000B0422ED108464078042817D006DC012875
:100670000BD002280CD003281CD10CE0052810D088
:10068000062811D0102815D111E006F007FD17E05B
:1006900006F082FD14E006F01DFE11E006F078FE83
:1006A0000EE006F0F1FE0BE006F032FF08E006F087
:1006B0007DFF05E020494878042108F053FA00BF87
:1006C00036E01D48407804281DD006DC01280BD0F8
:1006D00002280ED003282AD110E0052818D00628B9
:1006E0001BD0102823D11DE00821012008F03AFA80
:1006F0001DE00821022008F035FA18E00821032047
:1007000008F030FA13E00821042008F02BFA0EE07C
:100710000821052008F026FA09E00821062008F043
:1007200021FA04E00821102008F01CFA00BF00BFE5
:1007300070BD0000150000203A75002000BF1CE0CD
:100740000E48C0790E4908600C48407A78B90B48C9
:10075000807960B90948807A48B908480079012849
:1007600005D100200749A1F8C60007F063F80A2365
:1007700000221146104608F03FF9E1E74A00002048
:10078000A0024042A49C00201FB5684606F012FC5F
:10079000019804B010BD00BFFEE700002DE9F04154
:1007A0008AB004460D4616461F46DDF840800121FA
:1007B000084606F0BFFB0121480606F0CBFB4FF4CC
:1007C000C050089002208DF8240000208DF82600EB
:1007D00003208DF8250001208DF8270008A92D4859
:1007E00001F04BFD09220B212A4801F08EFD092260
:1007F0000C21284801F089FD00208DF81A008DF8A1
:100800001B008DF81C0001208DF81D0000208DF8C4
:100810001E008DF81F008DF816808DF817408DF89A
:1008200018608DF81950ADF8147005A91A4800F039
:10083000E8FA00208DF80E008DF80F0001208DF8E9
:1008400010000020ADF80400ADF80600ADF8080077
:10085000ADF80A00ADF80C0001208DF8110001A8D8
:1008600000F042FA012202210B4800F0C1FA1420E4
:100870008DF8000002208DF8010000208DF80200A4
:1008800001208DF80300684601F0D6FF00200AB071
:10089000BDE8F081000002400064004010B502F0A5
:1008A000EFF96B4A00216B4800F035FB684800689F
:1008B0000A2819D16648C07A674908706448007BE5
:1008C00048706348407B88706148807BC87060488E
:1008D000C07B08715E48007C48715D48407C88712F
:1008E0005B48807CC871AFE0594800680B2819D17B
:1008F0005748C07A584908725548007B4872544896
:10090000407B88725248807BC8725148C07B087314
:100910004F48007C48734E48407C88734C48807C2C
:10092000C87391E04A4800680128DCD14848407B00
:10093000D228D8D14648007B02281ED14448C07B2B
:1009400000F05F0020B94248007C00F0030088B14D
:100950000120424988700020414908600120414936
:10096000C1F88C0200203E490C3908603D49C1F8AD
:10097000800202E00020394988703548007B032856
:100980001DD13348C07B00F05F0020B93048007CA7
:1009900000F0030080B101203049C87000203049C8
:1009A00008603049C1F88C0201202D490C390860DB
:1009B0002C49C1F8800202E000202849C870244870
:1009C000007B04281ED12248C07B00F05F0020B9C4
:1009D0001F48007C00F0030088B101201F49087106
:1009E00000201F4908601F49C1F88C0201201C49E2
:1009F0000C39086000201B49C1F8800202E0002089
:100A0000164908711248007B05281DD11048C07B8B
:100A100000F05F0020B90E48007C00F0030080B1B8
:100A200001200E49487100200D4908600D49C1F8A8
:100A30008C020B490C39086001200A49C1F8800278
:100A400002E000200549487102F030F910BD0000B5
:100A5000D09A002000640040C09A00206E00002060
:100A600090824142008041422DE9F04186B0074624
:100A70000D4690460024CDF80480002002908DF8A9
:100A80000C008DF80D008DF80E5000BF05E0395DAB
:100A90000DF10F000155601C84B2AC42F7DB01A9D7
:100AA0000D4800F0B0FA0646002401E0601C84B254
:100AB0003146094800F03AFB18B940F6FF7084420D
:100AC000F4DB40F6FF70844203DB012006B0BDE892
:100AD000F0810020FAE70000006400402DE9F041B9
:100AE0008AB004460D4616461F46DDF840800121B7
:100AF000022006F01FFA01214FF0C06006F02AFA2A
:100B00006020089002208DF8240000208DF8260037
:100B100003208DF8250001208DF8270008A92E4814
:100B200001F0ABFB092205212B4801F0EEFB092265
:100B30000621294801F0E9FB00208DF81A008DF804
:100B40001B008DF81C0001208DF81D0000208DF881
:100B50001E008DF81F008DF816808DF817408DF857
:100B600018608DF81950ADF8147005A91B4800F0F5
:100B700048F90E208DF80E0000208DF80F0001209E
:100B80008DF810000020ADF80400ADF80600ADF8B7
:100B90000800ADF80A00ADF80C0001208DF8110036
:100BA00001A800F0A1F8012202210C4800F020F970
:100BB00040208DF8000003208DF8010000208DF802
:100BC000020001208DF80300684601F035FE002088
:100BD0000AB0BDE8F0810000000402400068004057
:100BE00010B502F04DF81F4A00211F4800F093F99C
:100BF0001C480068022832D11A48C07A1B49087084
:100C00001848007B48801748407B00F001000871BD
:100C10001448407BC0F3400048711248407BC0F349
:100C2000800088710F48407BC0F3C000C8710D4838
:100C3000407BC0F3001008720A48407BC0F34010AC
:100C400048720848407BC0F3801088720548407B9A
:100C5000087307480068C0430649C1F8A40202F0BF
:100C600025F810BDD09A0020006800404A000020FE
:100C7000A482404200804042F0B585B007460D4650
:100C80000024102000901320019000208DF808000F
:100C90008DF809008DF80A5000BF05E0395D0DF1AF
:100CA0000B000155601C84B2AC42F7DB69460D486D
:100CB00000F0A9F90646002401E0601C84B2314628
:100CC000084800F033FA18B940F6FF708442F4DBAC
:100CD00040F6FF70844202DB012005B0F0BD002029
:100CE000FBE700000068004010B50021837A012274
:100CF00002FA03F13D4A126842F001023B4B1A60CE
:100D00003A4A1C3212688A43384B1C331A60027B01
:100D1000CAB9364A0C3212688A43344B0C331A6013
:100D20004288C38842EA0343304A4032847A42F818
:100D300034300288838842EA03432C4A4032847A62
:100D400002EBC4025360027B012A19D1274A0C32FC
:100D500012680A43254B0C331A604288038842EA22
:100D60000343224A4032847A42F83430C28883886E
:100D700042EA03431D4A4032847A02EBC4025360C4
:100D8000C27A3AB9194A121D12688A43174B1B1DC1
:100D90001A6006E0154A121D12680A43134B1B1D08
:100DA0001A60028932B9114A143212688A430F4B11
:100DB00014331A600289012A06D10C4A14321268CF
:100DC0000A430A4B14331A60427B012A06D1074AB0
:100DD0001C3212680A43054B1C331A60034A12681E
:100DE00022F00102014B1A6010BD000000660040B5
:100DF0001AB143690B43436102E043698B4343618A
:100E0000704730B5024600200023146824F0020425
:100E10001460146844F00104146000E05B1C546822
:100E200004F001041CB94FF6FF74A342F6D15468D4
:100E300004F001040CB900206CE08C79012C04D181
:100E4000146844F08004146003E0146824F0800403
:100E50001460CC79012C04D1146844F0400414606F
:100E600003E0146824F0400414600C7A012C04D1CF
:100E7000146844F02004146003E0146824F0200493
:100E800014604C7A012C04D1146844F010041460EE
:100E900003E0146824F0100414608C7A012C04D14F
:100EA000146844F00804146003E0146824F0080493
:100EB0001460CC7A012C04D1146844F0040414604A
:100EC00003E0146824F0040414608C78A407CD783F
:100ED00044EA05640D7944EA05444D7944EA055431
:100EE0000D886D1E2C43D461146824F00104146035
:100EF000002300E05B1C546804F001041CB14FF6B1
:100F0000FF74A342F6D1546804F001040CB1002030
:100F100000E0012030BD10B500F5D87303EB0113DC
:100F20001B6803F004031372137A53B900F5D873E6
:100F300003EB01131B6840F2FF7404EA5353136080
:100F400009E000F5D87303EB01131B686FF06044F0
:100F500004EAD303536000F5D87303EB01131B6855
:100F600003F00203537200F5D87303EB01135B68BF
:100F700003F00F03937200F5D87303EB01135B6862
:100F80001B0AD37400F5D87303EB01139B68D3726B
:100F900000F5D87303EB01139B681C0A147300F56A
:100FA000D87303EB01139B681C0C547300F5D873C2
:100FB00003EB01139B681B0E937300F5D87303EBCF
:100FC0000113DB68D37300F5D87303EB0113DB68FF
:100FD0001C0A147400F5D87303EB0113DB681C0CB6
:100FE000547400F5D87303EB0113DB681B0E937484
:100FF00021B9C36843F02003C36003E0036943F0F1
:101000002003036110BD10B502460020936803F071
:101010008063B3F1806F00D110E0936803F0006348
:10102000B3F1006F01D1012008E0936803F0805311
:10103000B3F1805F01D1022000E00420042874D0C5
:1010400002F5C07303EB00131B6803F0010402F503
:10105000C07303EB00131C600B7A7BB94B7A0C88CE
:1010600043EA445302F5C07404EB0014246823439C
:1010700002F5C07404EB0014236010E00B7A4C6896
:1010800043EAC4034C7A234302F5C07404EB001412
:101090002468234302F5C07404EB001423608B7AA8
:1010A00003F00F038B7202F5C07303EB00135B6850
:1010B00023F00F0402F5C07303EB00135C6002F52C
:1010C000C07303EB00135B688C7A234302F5C07492
:1010D00004EB001463608B7B1C064B7B44EA0344E7
:1010E0000B7B44EA0323CC7A234302F5C07404EB60
:1010F0000014A3608B7C1C064B7C44EA03440B7CED
:1011000044EA0323CC7B234302F5C07404EB0014B0
:10111000E36002F5C07303EB00131B6843F00104A6
:1011200002F5C07303EB00131C6010BD10B502463E
:10113000002321B1012907D002290FD109E09068CD
:101140001D4C00EA04030BE090681C4C00EA040309
:1011500006E090681A4C00EA040301E0002300BF97
:1011600000BF184C181BA34216D007DC83B16FF0E8
:101170008060184470B1022818D111E0B0F5007FEA
:1011800010D0114C204448B1B0F5003F0ED10BE017
:1011900002230DE000230BE0002309E0002307E019
:1011A000012305E0012303E0012301E0002300BF48
:1011B00000BFD8B210BD0000030000040003000807
:1011C00000000310000100080001FFF710B500F057
:1011D0001FF800F019F810BD10B5002400BF00BFC3
:1011E000FFF766F8044600BF00BF1021054801F074
:1011F000EEFA00BF00BF2046FFF75EF800BF00BF59
:1012000010BD00005EB7002010B5FFF7E5FF10BD70
:1012100010B500200249086000F00AF810BD000077
:10122000A40000200149086070470000A4000020CD
:1012300010B5FFF7A9FA04460848006840F080702E
:10124000064908600020064948600846006840F0EA
:10125000010008602046FFF7E5FF10BDFCED00E04F
:10126000001000E00149486870470000001000E0ED
:1012700030B502460B464FF6FF70002112E0555C78
:10128000684000240AE000F0010525B140104AF250
:101290000105684000E04010651CACB2082CF2DB90
:1012A0004D1CA9B29942EADB30BD0000B8E33C20F6
:1012B000F74908706E20F749087043E0F648007857
:1012C000F4490978884215DDF3484078F1490978F6
:1012D00088420FDDF0488078EE490978884209DDC0
:1012E000ED48C078EB490978884203DD0120EB49DD
:1012F000086021E00020E9490860E7480078E449F7
:101300000978884215DDE4484078E1490978884247
:101310000FDDE1488078DE490978884209DDDE4842
:10132000C078DB490978884203DD0020DC49487039
:1013300002E00120DA4948700523002211461046D8
:1013400007F05AFBD74800780128B7D043E0D248CD
:101350000079D0490978884215DDCF484079CD49D8
:10136000097888420FDDCC488079CA4909788842DB
:1013700009DDC948C079C7490978884203DD0120E1
:10138000C649086021E00020C4490860C2480079CD
:10139000BF490978884215DDBF484079BC490978C2
:1013A00088420FDDBC488079B9490978884209DD57
:1013B000B948C079B6490978884203DD0020B849A8
:1013C000487002E00120B64948700523002211460A
:1013D000104607F011FBB34800780228B7D043E06D
:1013E000AD48007BAB490978884215DDAA48407BAF
:1013F000A849097888420FDDA748807BA54909786C
:10140000884209DDA448C07BA2490978884203DDEF
:101410000120A249086021E00020A04908609E4800
:10142000007B9B490978884215DD9B48407B9849A1
:10143000097888420FDD9848807B95490978884271
:1014400009DD9548C07B92490978884203DD002078
:101450009349487002E00120914948700523002219
:101460001146104607F0C8FA8E4800780328B7D016
:1014700043E08948007A87490978884215DD864823
:10148000407A8449097888420FDD8348807A81490F
:101490000978884209DD8048C07A7E490978884207
:1014A00003DD01207D49086021E000207B490860C0
:1014B0007948007A76490978884215DD7648407A7D
:1014C0007349097888420FDD7348807A704909783A
:1014D000884209DD7048C07A6D490978884203DD89
:1014E00000206F49487002E001206D4948700523D3
:1014F00000221146104607F07FFA6A480078042857
:10150000B7D043E06448007B62490978884215DD22
:101510006148407B5F49097888420FDD5E48807BE7
:101520005C490978884209DD5B48C07B59490978E4
:10153000884203DD01205949086021E00020574915
:1015400008605548007B52490978884215DD5248A9
:10155000407B4F49097888420FDD4F48807B4C49DA
:101560000978884209DD4C48C07B4949097888429E
:1015700003DD00204A49487002E0012048494870D4
:10158000052300221146104607F036FA4548007838
:101590000928B7D043E04048007A3E49097888429C
:1015A00015DD3D48407A3B49097888420FDD3A48CD
:1015B000807A38490978884209DD3748C07A354948
:1015C0000978884203DD01203449086021E00020C9
:1015D000324908603048007A2D490978884215DD83
:1015E0002D48407A2A49097888420FDD2A48807AB6
:1015F00027490978884209DD2748C07A24490978B3
:10160000884203DD00202649487002E00120244979
:101610004870052300221146104607F0EDF92148D5
:1016200000780A28B7D07FE01B48007B1949097869
:10163000884239DD1848407B16490978884233DDF5
:101640001548807B1349097888422DDD1248C07BFC
:1016500010490978884227DD0F4800780D4909783C
:10166000884221DD0C4840780A49097888421BDD10
:101670000948807807490978884215DD0648C0780E
:101680000449097888420FDD01200449086045E0DB
:101690006C0000206D000020C09A0020BC02404277
:1016A0006E0000204A0000200020DE490860DE486D
:1016B000007BDE49097888422DDDDB48407BDB4931
:1016C0000978884227DDD848807BD8490978884244
:1016D00021DDD548C07BD549097888421BDDD24839
:1016E0000078D2490978884215DDCF484078CF4943
:1016F000097888420FDDCC488078CC490978884247
:1017000009DDC948C078C9490978884203DD00204D
:10171000C749487002E00120C549487005230022EE
:101720001146104607F068F9C248007805283FF4D2
:101730007BAF73E0BC48007BBF49097888422DDD50
:10174000B948407BBC490978884227DDB648807B90
:10175000B9490978884221DDB348C07BB649097888
:1017600088421BDDB0480079B3490978884215DD0D
:10177000AD484079B049097888420FDDAA488079A0
:10178000AD490978884209DDA748C079AA49097896
:10179000884203DD0120A349086039E00020A14907
:1017A0000860A148007BA149097888422DDD9E4848
:1017B000407B9E490978884227DD9B48807B9B4976
:1017C0000978884221DD9848C07B98490978884289
:1017D0001BDD9548007995490978884215DD9248C6
:1017E00040799249097888420FDD8F4880798F4986
:1017F0000978884209DD8C48C0798C49097888428B
:1018000003DD00208A49487002E0012088494870C1
:10181000052300221146104607F0EEF885480078AF
:10182000072887D073E08048007A83490978884286
:101830002DDD7D48407A80490978884227DD7A4845
:10184000807A7D490978884221DD7748C07A7A49D3
:10185000097888421BDD7448007877490978884206
:1018600015DD714840787449097888420FDD6E486B
:10187000807871490978884209DD6B48C0786E49E3
:101880000978884203DD01206649086039E00020BC
:10189000644908606448007A6449097888422DDD0B
:1018A0006148407A61490978884227DD5E48807A3C
:1018B0005E490978884221DD5B48C07A5B49097836
:1018C00088421BDD5848007858490978884215DD60
:1018D000554840785549097888420FDD524880784C
:1018E00052490978884209DD4F48C0784F49097844
:1018F000884203DD00204E49487002E001204C4937
:101900004870052300221146104607F075F8494833
:101910000078062887D073E04348007A4649097862
:1019200088422DDD4048407A43490978884227DDC6
:101930003D48807A40490978884221DD3A48C07A9A
:101940003D49097888421BDD374800793A490978D2
:10195000884215DD344840793749097888420FDDDF
:101960003148807934490978884209DD2E48C079A8
:1019700031490978884203DD01202A49086039E0AD
:101980000020284908602848007A284909788842B8
:101990002DDD2548407A25490978884227DD2248EF
:1019A000807A22490978884221DD1F48C07A1F4980
:1019B000097888421BDD1C4800791C490978884257
:1019C00015DD194840791949097888420FDD164814
:1019D000807916490978884209DD1348C07913498E
:1019E0000978884203DD00201149487002E0012097
:1019F0000F494870052300221146104606F0FCFFEF
:101A00000C480078082887D0002009494870012038
:101A100004490860052300221146104606F0ECFF39
:101A200045E40000BC024042C09A00206C00002047
:101A30006E0000204A0000206D0000200EE0012012
:101A40000749087048708870032006F07FFD4FF446
:101A5000FA7300221146104606F0CEFFEFE70000B1
:101A60009E7A002000240CE0601C84B2142C02D169
:101A7000002400F023FD0A2300221146104606F040
:101A8000BBFFF1E72BE0022204211548FEF7ECFF33
:101A9000142300221146104606F0AEFF0322042153
:101AA0001048FEF7E1FF142300221146104606F00D
:101AB000A3FF042211460C48FEF7D6FF1423002290
:101AC0001146104606F098FF052204210748FEF74C
:101AD000CBFF002301221946184606F08DFFD2E7FE
:101AE00005000020090000200D000020110000204A
:101AF00010B501F0C5F80849084800F065F938B19B
:101B00000549064800F08AF80021044800F0A0F8D2
:101B100001F0CCF810BD00000080001858600240B1
:101B200010B50A490A4800F04FF968B1012240F2A5
:101B30002661084806F07BFC0449054800F06EF871
:101B40000021034800F084F810BD00002080002030
:101B500070600240004C004010B50749074800F093
:101B600033F938B10449054800F058F8002103481A
:101B700000F06EF810BD000000802020A060024040
:101B80002DE9F04100261549154800F01DF910B364
:101B900000241AE0002509E005EB4500114901EB9E
:101BA000400030F814000644681CC5B21E2DF3DB5B
:101BB0001E2096FBF0F7384607F020FB0A4A02EB9E
:101BC000C40203C20026601CC4B2032CE2DB03493A
:101BD000034800F023F8BDE8F081000020800010E9
:101BE00010640240707300202874002010B508496A
:101BF000084800F0E9F850B10549064800F00EF831
:101C00000021044800F024F801200349087010BDA9
:101C100000800028B8640240740000200246094B8E
:101C20009A4201D2084801E00648103801F00053FA
:101C30001BB1064B0B40C36002E0044B0B408360BA
:101C40007047000010640240006002407D0F7D0F6D
:101C500021B1026842F00102026003E0026822F052
:101C60000102026070470000016821F0010101607B
:101C70000021016041608160C160016121214161F9
:101C80004A49884204D13D21484A103A91608CE08B
:101C900046491831884205D14FF47461434A103ADD
:101CA000916082E041493031884205D14FF474118E
:101CB0003E4A103A916078E03C494831884205D16B
:101CC0004FF07461394A103A91606EE037496031E3
:101CD000884204D13649354A103AD16065E033492B
:101CE0007831884204D13349304A103AD1605CE0FF
:101CF0002E499031884204D12F492C4A103AD160A4
:101D000053E02A49A831884205D14FF03D51274A76
:101D1000103AD16049E02949884204D13D21274A3F
:101D2000083A116041E025491831884205D14FF445
:101D30007461224A083A116037E020493031884204
:101D400005D14FF474111D4A083A11602DE01B496A
:101D50004831884205D14FF07461184A083A116041
:101D600023E016496031884204D11149134A121FF9
:101D700011601AE011497831884204D10D490F4AA7
:101D8000121F116011E00D499031884204D10A49B7
:101D90000A4A121F116008E00849A831884204D19C
:101DA0004FF03D51054A121F11607047106002400C
:101DB0003D000020400F002000003D201064024044
:101DC0000146486880B2704770B502460020002482
:101DD0000025124EB24201D2114B01E00F4B103BD5
:101DE000104E0E4036B11E2606EAD124166806EAC9
:101DF000040502E0566906F0800501F000560EB1B8
:101E00005C6800E01C68084E344004EA010616B124
:101E10000DB1012000E0002070BD00001064024000
:101E2000006002403C0F3C0F7D0F7D0F10B501F0AC
:101E300080034BB122B1436943F08003436103E067
:101E4000436923F08003436180290BD02AB10368E2
:101E500001F01E042343036004E0036801F01E0444
:101E6000A343036010BD000010B500220268134BAD
:101E70001A40CC680B6823434C6923438C69234385
:101E8000CC6923430C6A23434C6A23438C6A234363
:101E90004C6B23438C6B23431A430260426922F04C
:101EA0000702D1E90B3423431A4342610B694360B3
:101EB0004B6883608B68C36010BD00003F801CF0DE
:101EC0004160704700B591B00121480505F032F836
:101ED00000213A48FFF7BCFE3848FFF7C5FE4FF037
:101EE00000600190364802903648039040200490EC
:101EF000FA200590002006904FF4806007900020A3
:101F0000089009904FF480700A9000200C900320F4
:101F10000D9000040B9000200E900F9001A927480F
:101F2000FFF7A2FF00212548FFF792FE01221021B2
:101F30002248FFF77BFF002120481838FFF788FE72
:101F40001E481838FFF790FE4FF0006001901C48C3
:101F500002901D48039000200490FA200590002074
:101F600006904FF4806007900020089009904FF48D
:101F700080700A9000200C9003200D9000040B90BC
:101F800000200E900F9001A90C481838FFF76CFF45
:101F900001210A481838FFF75BFE11208DF8400038
:101FA00002208DF8410005208DF8420001208DF8B7
:101FB000430010A800F040FC11B000BDA06002403A
:101FC000044400402E7700203476002000B591B004
:101FD0000121480504F0AEFF00213A48FFF738FE22
:101FE0003848FFF741FE4FF00060019036480290FC
:101FF00036480390402004908220059000200690EF
:102000004FF4806007900020089009904FF4807092
:102010000A9000200C9003200D9000040B900020EB
:102020000E900F9001A92748FFF71EFF00212548B9
:10203000FFF70EFE012210212248FFF7F7FE0021D4
:1020400020483038FFF704FE1E483038FFF70CFEFA
:102050004FF0006001901C4802901D480390002042
:10206000049082200590002006904FF48060079035
:102070000020089009904FF480700A9000200C9086
:1020800003200D9000040B9000200E900F9001A9EA
:102090000C483038FFF7E8FE01210A483038FFF7D6
:1020A000D7FD0E208DF8400002208DF8410005205C
:1020B0008DF8420001208DF8430010A800F0BCFB11
:1020C00011B000BD58600240044800409E7A0020D4
:1020D0001C7A002000B591B00121480504F02AFFC8
:1020E00000213A48FFF7B4FD3848FFF7BDFD4FF037
:1020F00000600190364802903648039040200490DA
:10210000FA200590002006904FF480600790002090
:10211000089009904FF480700A9000200C900320E2
:102120000D9000040B9000200E900F9001A92748FD
:10213000FFF79AFE00212548FFF78AFD01221021B2
:102140002248FFF773FE002120483038FFF780FD5A
:102150001E483038FFF788FD4FF0006001901C48A2
:1021600002901D48039000200490FA200590002062
:1021700006904FF4806007900020089009904FF47B
:1021800080700A9000200C9003200D9000040B90AA
:1021900000200E900F9001A90C483038FFF764FE24
:1021A00001210A483038FFF753FD0F208DF8400019
:1021B00002208DF8410004208DF8420001208DF8A6
:1021C000430010A800F038FB11B000BD7060024061
:1021D000044C0040407400203A75002000B591B0D6
:1021E0000121880504F0A6FE00212048FFF730FDFC
:1021F0001E48FFF739FD002001901D4802901D4840
:102200000390002004905A200590002006904FF47F
:1022100080600790400008900990C0100A9000204C
:102220000C9003200D9000040B9000200E900F9056
:1022300001A90E48FFF718FE012210210B48FFF7F5
:10224000F5FD01210948FFF703FD38208DF8400016
:1022500002208DF8410003208DF8420001208DF806
:10226000430010A800F0E8FA11B000BD106402406D
:102270004C200140707300207047F0B50A460021E1
:102280000023002400BF3DE0012505FA01F3156895
:1022900005EA03049C4234D105684F000326BE4082
:1022A000B543056015794E00B540066835430560B5
:1022B0001579012D02D01579022D16D185684F00B0
:1022C0000326BE40B543856055794E00B54086680B
:1022D00035438560456801268E40B54345604568B5
:1022E00096798E40B6B235434560C5684F000326E7
:1022F000BE40B543C560D5794E00B540C66835438C
:10230000C560491C1029BFD3F0BDF0B500230024DF
:102310004D07ED0E02FA05F3CE1000F1200555F839
:1023200026504E07F70E0F26BE40B543CF1000F1E2
:10233000200646F82750CE1000F1200555F826500B
:1023400045EA0304CE1000F1200545F82640F0BD13
:10235000418370470183704710B565220021024810
:1023600006F006FA10BD0000A49C002000BFFEE7A6
:1023700000B50120054908600549C1F8980206F03A
:10238000ABFB00200149091F086000BD9C024142CF
:102390000000414200B501200649086000200649BE
:1023A000C1F89802012006F097FB01200149091F9E
:1023B000086000BD9C024142000041427CB50446D9
:1023C0004020009001208DF8040000208DF80600C8
:1023D00003208DF8050001208DF807006946184894
:1023E000FFF74BFF002017490860012006F074FB3F
:1023F00000251EE004F0800020B101201149091FD2
:10240000086003E000200F49091F08606006040E01
:1024100000200C490860012006F05EFB01200A49FB
:10242000C1F89C0206F058FB002006490860681CB1
:10243000C5B2082DDEDB012006F04EFB7CBD00009E
:10244000000802409C024142000041421CB50124A8
:102450004020009000208DF8040003208DF8050036
:1024600001208DF8070069460D48FFF706FF01209F
:102470000C49086006F030FB00200B49C1F89C02B3
:1024800001E0601CC4B207488438006808B1642CBD
:10249000F7DD012006F020FB0020024908601CBD8A
:1024A000000802409C024142000041424CF6CC40F0
:1024B00001490860704700000030004010B500F08E
:1024C00013F810BD70B505460C4645F2555000F0A6
:1024D0001FF8284600F010F8204600F013F800F02E
:1024E00003F8FFF7E3FF70BD4AF6AA200149086030
:1024F000704700000030004001494860704700000C
:102500000030004001498860704700000030004002
:102510000149086070470000003000401CB50121EF
:10252000202004F007FD0121022004F003FD012119
:10253000402004F0FFFC0121084604F0FBFC0121CF
:10254000042004F0F7FC0121082004F0F3FC012131
:10255000102004F0EFFC2020009000208DF80400F3
:1025600003208DF8050001208DF8070069467D489D
:10257000FFF783FE48F21040009000208DF8040021
:1025800003208DF8050001208DF807006946764884
:10259000FFF773FE44F2F070009000208DF8040005
:1025A00003208DF8050001208DF8070069466F486B
:1025B000FFF763FE48F20810009001208DF8040038
:1025C00000208DF8060003208DF8050001208DF80D
:1025D000070069466348FFF750FE00206449086021
:1025E00001206449C1F8A00261493031086040F21D
:1025F000F970009001208DF8040000208DF806008D
:1026000003208DF8050001208DF8070069465A481F
:10261000FFF733FE01205949086058490C31086022
:10262000091D0860091D0860091D0860091D086072
:10263000091D0860091D08605149C1F8A802F02071
:10264000009001208DF8040000208DF80600032082
:102650008DF8050001208DF8070069464948FFF70D
:102660000CFE0120484908604849C1F894024FF225
:102670001B00009001208DF8040000208DF806005A
:1026800003208DF8050001208DF8070069464048B9
:10269000FFF7F3FD01203F490860091D08603D492F
:1026A0000C310860091D08603A4930310860091D85
:1026B0000860091D08603849C1F8BC020320009079
:1026C00001208DF8040000208DF8060003208DF80D
:1026D000050001208DF8070069462348FFF7CDFD6E
:1026E00001202E4908602E49C1F884020F20009075
:1026F00001208DF8040000208DF8060003208DF8DD
:10270000050001208DF8070069461848FFF7B5FD60
:10271000012024490860091D0860091D086022493C
:10272000C1F88C024FF46C40009001208DF8040039
:1027300000208DF8060003208DF8050001208DF89B
:10274000070069461948FFF798FD012018490860FD
:10275000174914390860091D08601649C1F8B40208
:102760001CBD0000000002400010024000140240A6
:102770008C024042000040420004024080824042FD
:102780000080404200080240900241420000414265
:10279000000C02408082414200804142800242425D
:1027A00000004242808242420080424200180240C1
:1027B000BC0243420000434200BF05E00A2300225E
:1027C0001146104606F018F9F8E700BFFEE730B5ED
:1027D00005460C4622460021284600F001F830BD8F
:1027E0002DE9F04105460B4694460027002402E0FF
:1027F0003F021F43641C042CFAD3604605F0030615
:10280000294646B1344603E001F8013B401E641CF2
:1028100008B1042CF8D30A4601E080C2001F042846
:10282000FBD2114602E001F8013B401E0028FAD11C
:10283000BDE8F0817047000070B5002100230F2231
:10284000C4781CB3174C246804F4E064C4F5E06455
:10285000C4F30721C1F10404E3B20A4144789C4067
:10286000E1B28478144021430C07210E0E4C057808
:102870006155047804F01F050124AC4005786D1102
:10288000AD0005F1E025C5F8004109E0047804F049
:102890001F050124AC40054D0678761145F8264009
:1028A00070BD00000CED00E000E400E080E100E01D
:1028B00002490143024A1160704700000000FA0516
:1028C0000CED00E010B5002000F001F810BD70B56F
:1028D0000646002415E004F1B001C8B206F05EF827
:1028E000002006F05BF8102006F058F8002504E000
:1028F000304606F069F8681CC5B2802DF8DB601C14
:10290000C4B2082CE7DB70BD10B5642006F0BCF83B
:10291000AE2006F043F8202006F040F8102006F024
:102920003DF8B02006F03AF8C82006F037F800204D
:1029300006F034F8102006F031F8402006F02EF8AA
:10294000812006F02BF8FF2006F028F8A12006F0E1
:1029500025F8A62006F022F8A82006F01FF83F2050
:1029600006F01CF8A42006F019F8D32006F016F89B
:10297000002006F013F8D52006F010F8F02006F03D
:102980000DF8D92006F00AF8222006F007F8DA2020
:1029900006F004F8122006F001F8DB2005F0FEFF37
:1029A000202005F0FBFF8D2005F0F8FF142005F036
:1029B000F5FFAF2005F0F2FF10BD000015481648E6
:1029C00016481748174818481848194819481A4807
:1029D0001A481B481B481C481C481D481D481E48D7
:1029E0001E481F481F4820482048214821482248A7
:1029F0002248234823482448244825482548264877
:102A0000264827482748284828482948294800BFF9
:102A100070470000D49200083492000838920008F1
:102A20003C92000840920008449200084892000836
:102A30004C920008509200085492000858920008E6
:102A40005C92000860920008649200086892000896
:102A50006C92000870920008749200087892000846
:102A60007C920008809200088492000888920008F6
:102A70008C920008909200089492000898920008A6
:102A80009C920008A0920008A4920008A892000856
:102A9000AC920008B0920008B4920008B892000806
:102AA000BC920008C0920008C4920008C8920008B6
:102AB000CC920008D092000810B50348006810B10D
:102AC00001480068804710BDBC00002070B5044676
:102AD00000F0C2F800204849087048490870484989
:102AE00008704849086048490860484908704849E2
:102AF00008704849087048490860484908604849D2
:102B0000086048490870484800680A21B0FBF1F0A5
:102B1000464908604648006858B14648056845B1CE
:102B20004348066803E0761E002028602D1D002E15
:102B3000F9D10020404908604049086040490860D8
:102B400040490860404908604049086040490860C1
:102B50004049087002F0ECF902F0CCFA204601F08E
:102B60007BFB208800B170BD204601F05DFF20880E
:102B700000B1F8E7204601F07FFF208800B1F2E7BE
:102B8000204602F04BF8208800B1ECE7204602F026
:102B9000FFF9208800B1E6E7204602F01FFC2088FC
:102BA00000B1E0E7204602F041FF208800B1DAE7FB
:102BB000204601F0A5FE208800B1D4E7204601F0B0
:102BC000BDFC208800B1CEE7204603F09FFE2088A0
:102BD00000B1C8E7204602F06DFE208800B1C2E7D0
:102BE000204603F0EFFE208800B1BCE701F05CFA5C
:102BF000FFF7E4FE00BFB6E7D0000020D1000020C0
:102C0000180100207001002074010020FE00002047
:102C1000FF000020000100200C0100201001002016
:102C20001401002020010020949200081C010020C3
:102C30006492000860920008B0000020B4000020F8
:102C4000B8000020BC000020C0000020C40000200C
:102C5000C80000204E0100200648006806490968A7
:102C600000EB8100054908600846006820F0070075
:102C700008607047609200086492000878010020A4
:102C800008480078012800D0704707480078FA28E3
:102C900000DBF9E704480078401C0349087000BFD6
:102CA000F2E70000D1000020D000002010B5002481
:102CB0002D480078012800D010BD00BFFDF7F8FABC
:102CC000044600BF2948007828B900BF2046FDF718
:102CD000F3FA00BFF0E725480078401E234908704A
:102CE00008460078002805DD00BF2046FDF7E4FA1D
:102CF00000BFE1E71E480078002805DD00BF204640
:102D0000FDF7DAFA00BFD7E702F0FEF819490870BC
:102D10000846007800EB4000174951F82000174999
:102D200008600846006816490968884205D100BF56
:102D30002046FDF7C1FA00BFBEE710480068D0F892
:102D40009000401C0D490968C1F890000D480068CA
:102D5000401C0C490860FDF70FFB00BF2046FDF743
:102D6000ABFA00BF00BFA7E7D1000020D0000020D1
:102D700018010020FF00002094CD002074010020E5
:102D8000700100204401002010B500241F48007885
:102D9000002800DD10BD1E480078002800DDF9E79E
:102DA00000BFFDF785FA044600BF02F0ADF81949EF
:102DB00008700846007800EB4000174951F82000E1
:102DC000164908600846006815490968884205D117
:102DD00000BF2046FDF770FA00BFDBE70F48006830
:102DE000D0F89000401C0D490968C1F890000D48CA
:102DF0000068401C0B490860FDF7B9FA00BF204687
:102E0000FDF75AFA00BF00BFC4E70000D000002061
:102E100018010020FF00002094CD00207401002044
:102E2000700100204401002070B5044600251848B8
:102E30000078002803DD46F66250208070BD1548FA
:102E40000078012803D045F689602080F6E7124813
:102E50000078FA2803DB45F209202080EEE700BF66
:102E600000BFFDF725FA054600BF00BF0A480078FD
:102E7000401C0949087002F01DFA00BF00BF284637
:102E8000FDF71AFA00BF00BF0020208000BFD5E781
:102E9000D0000020D1000020180100202DE9F041D1
:102EA00005460C461646002700BF00BFFDF700FA96
:102EB000074600BF00BF012D03D000200D49087058
:102EC00002E001200B49087014B10B48046006E0D1
:102ED0000A4800680A21B0FBF1F00749086000BF0A
:102EE00000BF3846FDF7E8F900BF00BF0020308082
:102EF000BDE8F081200100201C0100209492000810
:102F000070B50446002520480078002803DD46F609
:102F10006550208070BD1D480078012803D045F61B
:102F200089602080F6E71A48007818B946F66450A0
:102F30002080EFE700BF00BFFDF7BAF9054600BFEC
:102F400000BF13480078401E1149087008460078F9
:102F500000280ADD00BF00BF2846FDF7ADF900BF1D
:102F600000BF46F663502080D4E702F0B1F900BFFD
:102F700000BF2846FDF7A0F900BF00BFFFF704FF20
:102F80000020208000BFC5E7D0000020D100002035
:102F90001801002010B5044612480078E8B901F085
:102FA000B3FF1149087008460078104908700E48B0
:102FB000007800EB40000E4951F820000D490860F0
:102FC000084600680C490860012006490870FDF7B2
:102FD000BDF943F69920208002E045F68A60208002
:102FE00010BD0000D1000020FF000020FE000020E6
:102FF00094CD002074010020700100202DE9F041E3
:1030000007464FF0000800BF00BFFDF751F98046AA
:1030100000BF00BF00203D4908603D4908803D4990
:1030200008803D4908603D4908603D4908603D49C8
:1030300008603D49088100BF00BF4046FDF73CF9EC
:1030400000BF00BF00BF00BFFDF732F9804600BFE0
:1030500000BF3648046800BF00BF4046FDF72CF9AA
:1030600000BF00BF21E000BF00BFFDF721F980468F
:1030700000BF00BF00207834E06320602063A061BF
:10308000A082E0826062A062FEF7ECF82062783CE9
:1030900004F164060020B081D4F8BC4000BF00BF3A
:1030A0004046FDF709F900BF00BF002CDBD100BF8F
:1030B00000BFFDF7FDF8804600BF00BF1C48056853
:1030C00000BF00BF4046FDF7F7F800BF00BF12E0A9
:1030D00000BF00BFFDF7ECF8804600BF00BF05F160
:1030E00020060020B081AD6900BF00BF4046FDF75B
:1030F000E3F800BF00BF002DEAD103F0E3FA03F0CC
:103100005DFD00203880BDE8F0810000E400002073
:10311000DE0000202E01002040010020540100208C
:10312000600100201001002088CD0020480100200F
:1031300004010020F8B5044600266946324800F034
:103140008FFDBDF8000018B1BDF800002080F8BD6B
:103150006A460021022000F0F7FDBDF8000018B11A
:10316000BDF800002080F2E700BF00BFFDF7A0F827
:10317000064600BF00BF00202449086000BF00BF12
:103180003046FDF799F800BF00BF002520480068D1
:1031900020490968884205D91D4800681D49096809
:1031A000B0FBF1F525B91A4800680A21B0FBF1F52A
:1031B0006A460021284600F0C7FD6946124800F023
:1031C00063FABDF8000018B1BDF800002080BEE72A
:1031D00000BF00BFFDF76CF8064600BF00BF00202F
:1031E0000D490860094800680C49086001200C4935
:1031F000087000BF00BF3046FDF75EF800BF00BF9B
:103200000020208000BFA2E71CD200203001002057
:10321000949200087C9200084001002034010020B4
:103220003C01002010B50348006810B10148006857
:10323000804710BDC00000202DE9FF4F87B0044635
:103240009046DDE91BA5DDE91496179F0020039049
:1032500087480078002805DD47F24A1028800BB027
:10326000BDE8F08F1CB947F2AD102880F7E7B8F140
:10327000000F03D147F24F102880F0E71EB946F641
:103280002F602880EBE77B480068874203D246F630
:1032900030602880E3E71698B84203D346F63160E1
:1032A0002880DCE7B9F1400F03D346F27320288071
:1032B000D5E7B9F1000F06D16F48844203D046F23A
:1032C00073202880CBE7B9F13F0F06D16B488442C9
:1032D00003D046F273202880C1E7204602F0B6FBF7
:1032E000002028800AF0010090B10AF0020078B1B5
:1032F00005960020069008E00021059801600598D9
:10330000001D05900698401C06900698B842F3D31D
:10331000169806EB80000490CDE9007A32464046CC
:10332000049B0A9900F06EFB0590C4F828800A9867
:10333000E0620898206284F837900598206004982D
:10334000A06019986065199818B94D480068A06583
:1033500001E01998A0651A9860606662A763A4F8F6
:103360003CA04FF0000B08E0002104F17C0040F885
:103370002B100BF1010000F0FF0BBBF1000FF3D09D
:1033800004F16400189901F0C3FB204600F082F8B4
:1033900000BF00BF00BFFCF78BFF039000BF00BF62
:1033A00038480078401C3749087000BF00BF0398B8
:1033B000FCF782FF00BF00BF00BF94F8370001F0A8
:1033C000C3FD204601F0DEFE204602F0F5FA2E484D
:1033D0000088401C2C4908802C48007801282DD0FA
:1033E00000BF00BF00BFFCF763FF039000BF00BF3A
:1033F00024480078401E2349087008460078A0B988
:1034000023480088002809DD00BF00BF0398FCF7AF
:1034100053FF00BF00BF01F023FF0DE000BF00BF5E
:103420000398FCF749FF00BF06E000BF00BF039808
:10343000FCF742FF00BF00BF00BF10E700BF00BFA6
:1034400000BFFCF735FF039000BF00BF0D480078B8
:10345000401E0C49087000BF00BF0398FCF72CFF0A
:1034600000BF00BF00BFFFF78FFC00BFF7E6000002
:10347000D000002090920008C4CC002000CC002096
:103480001C010020180100204C010020D100002068
:10349000DC00002010B504460348006818B120463F
:1034A00001490968884710BDB000002070B5044686
:1034B0000D46002667480078002803DD47F24E10CD
:1034C000288070BD6448844203D147F24C102880A4
:1034D000F7E76248844203D147F24D102880F0E7B5
:1034E0007CB900BF00BFFCF7E3FE064600BF00BF8B
:1034F0005B48046800BF00BF3046FCF7DDFE00BF3C
:1035000000BF00BF00BF00BFFCF7D2FE064600BFF1
:1035100000BF54480078401C5249087000BF00BFEB
:103520003046FCF7C9FE00BF00BF00BF94F836006C
:1035300008282DD2DFE800F004090E10080A0F1148
:10354000204601F05FFE54E053E000BF204603F048
:103550009DF84EE000BF00BF00BF204603F096F884
:1035600094F83400082810D2DFE800F004070508BA
:10357000090A0B0600BF00BF08E000BF00BF00BF84
:1035800000BF204601F011FC00E000BF00BF30E0AA
:1035900000BF00BF00BFFCF78BFE064600BF00BFA8
:1035A00030480078401E2F49087008460078A0B9BE
:1035B0002D480088002809DD00BF00BF3046FCF719
:1035C0007BFE00BF00BF01F04BFE0DE000BF00BF5F
:1035D0003046FCF771FE00BF06E000BF00BF30467A
:1035E000FCF76AFE00BF00BF00BF46F62D602880D2
:1035F00067E700BF04F1640001F068FA204600F0BC
:1036000037F8204602F0F0F918480088401E1749A4
:103610000880204602F01AFAFF2084F8360000BF26
:1036200000BF00BFFCF744FE064600BF00BF0D48C8
:103630000078401E0B49087000BF00BF3046FCF701
:103640003BFE00BF00BF00BF00202880FFF79CFBAF
:1036500000BF36E7D000002000CC0020C4CC002002
:103660007001002018010020DC0000204C01002027
:1036700010B504460348006818B12046014909689E
:10368000884710BDB40000207FB504460D460026D3
:1036900000BF00BFFCF70CFE064600BF00BF1CB118
:1036A0001548006884420AD100BF00BF3046FCF7CD
:1036B00003FE00BF00BF47F2571028807FBD00BF48
:1036C00000BF3046FCF7F8FD00BF00BF0B48007894
:1036D00000280BDD002000900190034602462146A1
:1036E000CDE90205064800F061FFE7E729462046DC
:1036F00002F024FB00BFE1E770010020D0000020B1
:103700005452455310B504460348006818B120468A
:1037100001490968884710BDB80000202DE9F0472D
:1037200080460E4614461D464FF000097D4800783D
:10373000002805DD46F2AE1028800020BDE8F087A5
:103740001EB1B6F5004F02D100E000BF04E045F61F
:10375000256028800020F1E700BF0CB10020206028
:1037600000BF00BFFCF7A4FD814600BF00BF6E484C
:103770000068406CA8B36C480068406C401E6A4901
:103780000968486468480068476C1CB1664800686E
:10379000006C2060FDF766FD63490968096C401AFA
:1037A00061490968C1F8A4005F480068D0F8A80022
:1037B0005D490968D1F8A410884207D25A480068C8
:1037C000D0F8A40058490968C1F8A80000BF00BF9C
:1037D0004846FCF771FD00BF00BF00202880384636
:1037E000ACE7FFE706F4004058B100BF00BF484611
:1037F000FCF762FD00BF00BF46F2B0102880002039
:103800009CE74A48007800280BDD00BF00BF48460F
:10381000FCF752FD00BF00BF46F663502880002031
:103820008CE700BF41480078401C4049087000BF49
:1038300000BF4846FCF740FD00BF00BF00BF434645
:1038400007220021084601F0F5F900BF00BF00BFC4
:10385000FCF72EFD814600BF00BF34480078401EB3
:103860003249087000BF00BF4846FCF725FD00BF85
:1038700000BF00BFFFF788FA00BF00BFFCF718FDCC
:10388000814600BF00BF2848006890F8350020B18D
:10389000012826D0032834D12CE0FCB1224800684E
:1038A000006C2060FDF7DEFC1F490968096C401AB6
:1038B0001D490968C1F8A4001B480068D0F8A80099
:1038C00019490968D1F8A410884207D2164800683F
:1038D000D0F8A40014490968C1F8A8000020288085
:1038E00013E01CB110480068006C206046F2A9107B
:1038F00028800AE00CB10020206047F2D9202880FF
:1039000003E046F62E60288000BF00BF064800682E
:10391000476C00BF00BF4846FCF7CEFC00BF00BFAD
:1039200038460BE7D000002070010020180100206D
:103930002DE9F04705460E4617461C464FF0000A93
:103940002E480078002804DD47F259102080BDE899
:10395000F0871EB946F2D5202080F8E71FB946F25D
:10396000D5202080F3E700BF00BFFCF7A1FC824612
:1039700000BF00BF0DB922480568286868B900BFBC
:1039800000BF5046FCF798FC00BF00BF002030602D
:10399000386047F252102080D9E795F83C0000F0DB
:1039A000010068B900BF00BF5046FCF785FC00BFAE
:1039B00000BF00203060386047F254102080C6E716
:1039C00000BF00BF5046FCF777FC00BF00BF4FF0C0
:1039D0000008D5F8249003E009F1040908F1010872
:1039E000D9F800000028F7D0C6F80080A86BA0EB3B
:1039F000080038600020208000BFA8E7D000002029
:103A000070010020F0B50446DDE9055602EB8500A3
:103A100020F007004FF0000C071F3846C7F800C021
:103A20004FF4805C071F3846C7F800C04FF0150CF4
:103A3000071F3846C7F800C04FF0140C071F384660
:103A4000C7F800C04FF0130C071F3846C7F800C076
:103A50004FF0120C071F3846C7F800C04FF0110C8A
:103A6000071F3846C7F800C04FF0100C071F384634
:103A7000C7F800C04FF0090C071F3846C7F800C050
:103A80004FF0080C071F3846C7F800C04FF0070C6E
:103A9000071F3846C7F800C04FF0060C071F38460E
:103AA000C7F800C04FF0050C071F3846C7F800C024
:103AB0004FF0040C071F3846C7F800C04FF0030C46
:103AC000071F3846C7F800C04FF0020C071F3846E2
:103AD000C7F800C04FF0010C071F3846C7F800C0F8
:103AE0004FF0000C071F3846C7F800C04FF0807C2D
:103AF000071F3846C7F800C0071F38463C60DFF88C
:103B00005CC1071F3846C7F800C04FF0123C071FC2
:103B10003846C7F800C04FF0033C071F3846C7F8C7
:103B200000C04FF0023C071F3846C7F800C0071F0F
:103B300038463B60071F384639604FF0310C071F8D
:103B40003846C7F800C04FF0300C071F3846C7F89A
:103B500000C04FF0290C071F3846C7F800C04FF0CF
:103B6000280C071F3846C7F800C04FF0270C071F66
:103B70003846C7F800C04FF0260C071F3846C7F874
:103B800000C04FF0250C071F3846C7F800C04FF0A3
:103B9000240C071F3846C7F800C04FF0230C071F3E
:103BA0003846C7F800C04FF0220C071F3846C7F848
:103BB00000C04FF0210C071F3846C7F800C04FF077
:103BC000200C071F3846C7F800C04FF0190C071F1C
:103BD0003846C7F800C04FF0180C071F3846C7F822
:103BE00000C04FF0170C071F3846C7F800C04FF051
:103BF000160C071F3846C7F800C04FF0113C071FCE
:103C00003846C7F800C04FF0103C071F3846C7F8C9
:103C100000C04FF0093C071F3846C7F800C04FF0FE
:103C2000083C071F3846C7F800C04FF0073C071F85
:103C30003846C7F800C04FF0063C071F3846C7F8A3
:103C400000C04FF0053C071F3846C7F800C04FF0D2
:103C5000043C071F3846C7F800C0F0BD7D5E000871
:103C60007FB505460C461248854203D147F25B10EA
:103C700020807FBD0F48854203D147F25C10208031
:103C8000F7E70D48007800280BDD00200090019038
:103C9000034602462946CDE90204084800F086FCA6
:103CA000E7E72146284602F057FB00BFE1E70000A6
:103CB00000CC0020C4CC0020D00000205453555329
:103CC00010B51D48006810B11B4800688047FDF71B
:103CD000C9FA04461948006819490968884215D08C
:103CE00016480068D0F89800201A14490968C1F8ED
:103CF000940012480068D0F89C0010490968D1F877
:103D0000941008440D490968C1F89C000C480068EB
:103D1000C0F8984009480068D0F8B400094909681B
:103D2000884205D20748006804490968C1F8B40010
:103D300000200449086010BDC4000020700100206C
:103D400074010020140100202DE9F04105460E46C3
:103D5000144600273F480078002804DD47F275200C
:103D60002080BDE8F0813C480078002803DD46F65D
:103D700063502080F5E736B1022E05D0042E0AD01C
:103D8000082E09D101E000BF00BF1DB947F27E2017
:103D90002080E6E704E003E045F625602080E0E7C8
:103DA00000BF00BF00BF00BFFCF782FA074600BF9C
:103DB00000BF29480078401C2749087000BF00BF99
:103DC0003846FCF779FA00BF00BF00BF0120234945
:103DD000096881F836002346324629461F480068A4
:103DE00002F076FB2088A8B100BF00BF00BFFCF73F
:103DF0005FFA074600BF00BF17480078401E16490B
:103E0000087000BF00BF3846FCF756FA00BF00BF7D
:103E100000BFA6E71148006801F0F4F900BF00BF39
:103E200000BFFCF745FA074600BF00BF0A4800780C
:103E3000401E0949087000BF00BF3846FCF73CFA35
:103E400000BF00BF00BFFEF79FFF0020208000BF23
:103E500087E70000D000002018010020700100203A
:103E60002DE9FF5F05460E4617469846DDE90EA48C
:103E70000020009072480078002804DD47F2752089
:103E80002080BDE8FF9F6F480078002803DD46F6DC
:103E900063502080F5E70AF00E0BBBF1000F09D04C
:103EA000BBF1020F07D0BBF1040F10D0BBF1080F1C
:103EB0000ED101E000BF00BFB8F1000F06D12FB94D
:103EC00026B91DB947F27E202080DAE704E003E03E
:103ED00045F625602080D4E700BF2AF01E0008B117
:103EE000012000E0002003900398012803D145F64B
:103EF00025602080C5E7CAF3001002900298C0B97F
:103F0000B8F57A7F03D347F27B202080B9E73B2FB7
:103F100003DD47F27A202080B3E73B2E03DD47F232
:103F200079202080ADE7632D12DD47F278202080D4
:103F3000A7E742F20F70864203DD47F27920208026
:103F40009FE7B5F57A7F03DB47F27820208098E77A
:103F50003D48D0F800904FF4FA70B0FBF9F04044BF
:103F600000FB09F04FF47A71B0FBF1F14FF461609E
:103F70006843C6EB061200EB8200384400FB0910D0
:103F800001900198002856D000BF00BF00BFFCF789
:103F90008FF9009000BF00BF2A480078401C2949D3
:103FA000087000BF00BF0098FCF786F900BF00BF93
:103FB00000BF01202549096881F8360023465A468A
:103FC00022480199006802F083FA2088A8B100BF56
:103FD00000BF00BFFCF76CF9009000BF00BF19489C
:103FE0000078401E1749087000BF00BF0098FCF71A
:103FF00063F900BF00BF00BF43E71448006801F049
:1040000001F900BF00BF00BFFCF752F9009000BFEC
:1040100000BF0C480078401E0A49087000BF00BF6E
:104020000098FCF749F900BF00BF00BFFEF7ACFEE7
:104030000020208002E047F27E20208000BF20E7A1
:10404000D000002018010020949200087001002088
:1040500010B586B000F01EF8FDF704F9044605A877
:1040600000210091CDE9011403900748007800EB8E
:104070004000064A02EB800100231A46044800F083
:1040800095FA06B010BD0000FE00002094CD00207F
:104090005449434B10B50348006810B1014800680B
:1040A000804710BDC80000202448254825482648E0
:1040B00026482748274828482848294829482A4880
:1040C0002A482B482B482C482C482D482D482E4850
:1040D0002E482F482F483048304831483148324820
:1040E00032483348334834483448354835483648F0
:1040F00036483748374838483848394839483A48C0
:104100003A483B483B483C483C483D483D483E488F
:104110003E483F483F48404840484148414842485F
:10412000424843484348444844484548454846482F
:1041300046484748474800BF70470000D8920008EB
:1041400040940008DA920008DB920008DC92000834
:10415000E0920008E4920008E19200080C93000845
:104160000D9300080E9300081093000812930008A6
:104170001493000816930008189300083893000859
:104180003A9300083C9300083E93000840930008CF
:10419000429300084493000870930008719300084C
:1041A00072930008749300087693000877930008D0
:1041B000789300087A9300087C9300087E930008A7
:1041C000809300088293000884930008B493000849
:1041D000B5930008B6930008B7930008B893000899
:1041E000BA930008BC930008E4930008E593000824
:1041F000E6930008E7930008E8930008EA930008B4
:10420000EC930008F0930008F1930008F293000883
:10421000F3930008F4930008F5930008F693000860
:10422000F7930008F8930008FA930008FB9300083E
:10423000FC930008FE930008009400080194000815
:104240000494000838940008399400083A9400084F
:104250003C9400083E9400080021034A1160034A80
:104260001180018070470000E8000020EC00002071
:104270002DE9F04F85B00446894692469B46DDF80D
:1042800038800020009000BF00BFFCF711F80090BC
:1042900000BF00BFBAF1000F0AD0BAF1010F0DD074
:1042A000BAF5004F05D06FF40040504460B906E005
:1042B00000BF206A40EA0900206214E000BF206AC3
:1042C00020EA090020620EE000BF00BF0098FBF763
:1042D000F3FF00BF00BF45F62560A8F800000020EE
:1042E00005B0BDE8F08F00BFC4F824B004F10800A9
:1042F00001900198008958B900BF00BF0098FBF7F2
:10430000DBFF00BF00BF0020A8F80000206AE7E73D
:1043100000BF61480078401C5F49087000BF00BFC3
:104320000098FBF7C9FF00BF00BF00BF01980768F6
:10433000BD687FE07868029095F8880000F00F0073
:1043400003900398012821D002282ED0042802D0FF
:10435000082836D10EE0206AD5F8801000EA010660
:10436000D5F88000B04204D15A463146284600F0C4
:1043700097F859E0206AD5F8801000EA010626B1C6
:104380005A463146284600F08BF84DE0D5F88000BB
:10439000216A20EA0106D5F88000B04204D15A46CD
:1043A0003146284600F07CF83EE0D5F88000216ACE
:1043B00020EA010626B15A463146284600F070F838
:1043C00032E000BF00BF00BFFBF772FF009000BFEC
:1043D00000BF31480078401E2F4908700846007819
:1043E000A0B92E480088002809DD00BF00BF009852
:1043F000FBF762FF00BF00BF00F032FF0DE000BF1F
:1044000000BF0098FBF758FF00BF06E000BF00BFE9
:104410000098FBF751FF00BF00BF00BF43F6FF202D
:10442000A8F8000000205BE700BF029F0FB1BD6845
:1044300000E00025002D7FF47DAF00BF00BF00BF6E
:10444000FBF736FF009000BF00BF13480078401E06
:104450001149087000BF00BF0098FBF72DFF00BF97
:1044600000BF00BF0AF4004008B9FEF78DFC00BF92
:1044700000BFFBF71DFF009000BF00BF206A049043
:1044800000BF00BF0098FBF717FF00BF00BF002070
:10449000A8F80000049823E718010020DC000020A1
:1044A00070B504460E46154634342665002060700B
:1044B0002070E560A078343C082816D2DFE800F0D0
:1044C000040508090706101100BF00BF00BF0DE07A
:1044D00000BF204601F024FC002084F8360005E0EF
:1044E00000BF042084F8360000E000BF00BF204673
:1044F00000F05BFC70BD0000002400BF19E000BFAD
:1045000000BFFBF7D5FE044600BF00BF09480068A6
:10451000401C0849086008480068401C06490860BB
:1045200000BF00BF2046FBF7C7FE00BF00BFFEF77D
:10453000C3FAE4E7CC0000203001002010B58AB0B7
:10454000044600200E4908600B2000210591CDE9AA
:104550000704069108460B4909680B4A12680B4B81
:104560001B68CDE90132CDE903103F200023084A42
:1045700008A100900C48FEF75FFE0AB010BD0000D5
:10458000CC0000203C9200083892000834920008C9
:10459000F944000875432F4F532D49494920496478
:1045A0006C65205461736B0000CC00202DE9F84F3E
:1045B00004460D4616461F46DDE90BABDDF8289094
:1045C000DDF834800020009000BF00BFFBF770FED4
:1045D000009000BF00BF2B4800882B490988884203
:1045E0003EDA28480088401C264908802748008871
:1045F0000988884203DA234800882449088024482F
:104600000068046022480068856021480068C66030
:104610001F48006807821E480068C0F814901C48B4
:104620000068A0F818A01A480068C0F81CB0184824
:10463000006840681649086001201649088116483C
:1046400008604860002000F07FFC1448007818B132
:1046500012480078124908700020A8F8000008E00D
:1046600010480088401C0F49088044F25360A8F8A5
:10467000000000BF00BF0098FBF71EFE00BF00BF98
:10468000BDE8F88FDC00002048920008DE00002022
:10469000D400002094CD0020C4CC0020FE000020D7
:1046A00000010020E00000203EB559480068006885
:1046B000584A811A904279D00FDC574908440028A3
:1046C0003ED056490844A8B155490844002860D056
:1046D0005449084400286AD13FE053480844002860
:1046E00050D052490844002862D05149084400285B
:1046F000F1D110E002A8464D00902D68EB69444DC1
:104700002D682A8B424D2D686969414D2D68A86836
:10471000FFF7AEFD7AE002A93D480068C0693C4D54
:10472000CDE900012D682B8B394D2D682A8A384D33
:104730002D68E968364D2D68A86800F035FC65E005
:10474000334B1B68DA69324B1B68198B304B1B6883
:10475000986802AB00F04EFE58E002A92C480068B1
:10476000C0692B4DCDE900012D682B8B284D2D689C
:104770002A8A274D2D68E968254D2D68A86801F023
:10478000C9F943E022490968886802A901F0D6FA0C
:104790003CE01F4B1B68DA691D4B1B68198B1C4BD7
:1047A0001B68986802AB01F075FB2FE007E02CE076
:1047B00017490968886802A901F0CEFD26E01D4965
:1047C000097801EB41011C4A02EB810000F09EFDDB
:1047D0000F48006802AB0021C269184801F05AFB7B
:1047E00017480068401E164908600846006858B916
:1047F000144800680860FCF735FD044602AB224609
:104800000021114801F046FB00E000BF00BF3EBDA3
:10481000D80000205449434BADBAB2BE0DF90BFA93
:10482000F2F8F7FF0006F6FF00F7FDF700FFEFFFD5
:1048300003FE0FFE0001002094CD002058D100207F
:104840006C010020680100201CD20020002700BF5E
:104850004CE0002648E000BF00BFFBF729FD0746FB
:1048600000BF00BF2248008888B900202149088184
:104870000860486000F07AFB00BF00BF3846FBF7D5
:104880001BFD00BF00BFFEF77FFA01262CE000BF32
:1048900000BF3846FBF710FD00BF00BFFCF7E2FC8D
:1048A0000546FFF701FFFCF7DDFC441B12480068DA
:1048B000A04201D21048046000BF00BFFBF7F8FC23
:1048C000074600BF00BF0D48006840680B490860FC
:1048D00007480088401E0649088000BF00BF3846D0
:1048E000FBF7EAFC00BF00BF002EB4D0B1E7000028
:1048F000DC00002094CD0020E4000020D80000203F
:10490000F0B589B00546002031490880314800687B
:1049100020B944F25260288009B0F0BD2E480088CA
:10492000022803DA44F254602880F5E700202B497E
:104930000860284804682646203600270CE02848EE
:1049400020600020A060E0602082606120836660BB
:1049500020342036781C87B21F4800888742EEDB5F
:10496000203C1C48066866601E4806601E480660BB
:1049700000201E4908801E4908801E48006818B99A
:1049800044F255602880C7E71B4800681B49096846
:10499000884203D244F256602880BDE703200021FC
:1049A0000591CDE90705069113480068144A12687D
:1049B000104B1B68CDE90301CDE9013200910B4694
:1049C000104A11A11748FEF737FC00BFA4E700000A
:1049D000E00000204492000848920008E400002013
:1049E0004E4F4E45D4000020D8000020DC000020AF
:1049F000DE000020509200085892000890920008B3
:104A0000549200084D48000875432F4F532D4949D3
:104A10004920495352205175657565205461736B67
:104A200000000000C4CC00200021034A1160034AAA
:104A30001180018070470000F0000020F400002089
:104A400070B502460B461046114610315E1EB5B2D7
:104A5000002408E00160002646600681C660103030
:104A60001031661CB4B2AC42F4DB0026066046602E
:104A70000681C66070BD000010B50446104800688D
:104A800018B945F21E70208010BD0E48008818B974
:104A900045F21D702080F7E70A4801880848006841
:104AA000FFF7CEFF06480068074908600548008800
:104AB00088800020C8800881208000BFE4E70000D3
:104AC000749200086C92000888CD002010B5014651
:104AD00048894B89002B17DD0A680C4B1B68136053
:104AE0000A4C4B6823602346DB884C891B1B074C10
:104AF000E38023469B884C892344044CA3800023F5
:104B00004B818B810B604B6010BD000088CD002075
:104B10000181002242818281026042607047000070
:104B20002DE9F0410D46DDE90674B0F80AC0B0F891
:104B30000880C44505DB46F2935CA4F800C0BDE8DC
:104B4000F081DFF8D4C0BCF804C0BCF1000F04D180
:104B500045F21D7CA4F800C0F1E7DFF8BCC0DCF82A
:104B60000010DFF8B480D1F800C0C8F800C0C44617
:104B7000BCF804C0ACF1010CA8F804C0C446BCF8F1
:104B800006C00CF1010CA8F806C0C446BCF808C069
:104B9000B8F80680C44507DADFF87CC0BCF806C068
:104BA000DFF87480A8F808C0B0F80AC0BCF1000FA4
:104BB00006D1016041604FF0010CA0F80AC017E077
:104BC00003F0100CBCF1000F07D1066831604FF004
:104BD000000CC1F800C0016004E0D0F804C0C1F8C6
:104BE00000C04160B0F80AC00CF1010CA0F80AC086
:104BF000B0F80CC0B0F80A80C44503DAB0F80AC0B7
:104C0000A0F80CC04D600A81CF604FF0000CA4F8F2
:104C100000C000BF93E7000088CD00200021034AB8
:104C20001160034A1180018070470000F8000020E5
:104C3000FC0000202DE9F04105460C4616461F46B3
:104C40001548006880F8346000201349096881F82D
:104C5000350039461048006800F092FE6CB104F14E
:104C60000808EC60012229460B48006800F016F89D
:104C70002946404600F066F806E00020064909682B
:104C8000C88705490968086303480168204600F0A1
:104C900019F8BDE8F08100007001002010B5C2874E
:104CA000016300230AE000244C600C600C614C613D
:104CB0000C83CC61886020315C1CA3B29342F2DB90
:104CC00010BD000030B548B14568C1F8C05000F1D2
:104CD0000804226893681D6AC56113E091F8345096
:104CE000022D02D0072D08D103E007A5C1F8C0505E
:104CF00007E007A5C1F8C05003E008A5C1F8C050FF
:104D000000BF00BF30BD00005461736B2051000034
:104D10005461736B2053656D00000000200000009B
:104D200030B507A5C1F8C05000F1080422681AB1D7
:104D300093681D6AC56101E001A5C56130BD000031
:104D400020000000F0B58E6896F8375007893FB90B
:104D50000127078100274F600F600160416023E059
:104D600007897F1C0781026806E0946894F8377011
:104D7000AF4200DD02E05268002AF6D100BF32B92E
:104D800000274F6043680B60596041600CE0176872
:104D90002FB9116000270F604A60016004E01368BA
:104DA0000B604A6059601160F0BD2DE9F041044686
:104DB000256BE68F0AE0D5F80C8008F10807294634
:104DC000384600F00AF82035701E86B2002EF2DC5C
:104DD0000020E0872063BDE8F08110B50489012C34
:104DE00003D100240460446011E00C6824B94A68CF
:104DF0000024146002600AE04C6824B90B680024A7
:104E00005C60436003E00B684A685A601360048981
:104E1000641E048100244C600C6010BD2DE9F84331
:104E200006460C4617469846089D94F83600082812
:104E300050D2DFE800F00405080906072B2C00BF5C
:104E400000BF00BF47E000BF94F83400032807D13B
:104E500043463A4621463046009500F03FF803E0CD
:104E6000E765A4F86080256436B12046FFF79DFF12
:104E700021463046FFF754FF204600F051FF002046
:104E80003434A070607004F8340924E000BF94F852
:104E90003400032807D143463A4621463046009560
:104EA00000F01CF803E0E765A4F860802564204664
:104EB00001F0ECFB36B12046FFF777FF2146304684
:104EC000FFF72EFF04203434A0700020607004F837
:104ED000340900E000BF00BFBDE8F883F0B5044628
:104EE000059E086BCD8F0AE0C768A74204D1046114
:104EF00042610383C66104E020306F1EBDB2002D05
:104F0000F2DC00BFF0BD000070B50025074C03E0E7
:104F100005F12000C5B2241D20680028F8D02068C3
:104F2000FBF7D1F92844C5B2284670BDA80000207F
:104F3000002004E00021034A42F82010401C02280F
:104F4000F8D37047A800002030B5420900F01F03D5
:104F50000121C3F11F04A140034C54F822400C432B
:104F6000014D45F8224030BDA800002030B542096F
:104F700000F01F030121C3F11F04A140034C54F8AA
:104F800022408C43014D45F8224030BDA80000204E
:104F90000021034A1160034A11800180704700001C
:104FA00004010020080100202DE9F04F85B00746DC
:104FB0008A4693461C460020029000BF00BF00BFF7
:104FC000FBF776F9029000BF00BF48480078401C0C
:104FD0004649087000BF00BF0298FBF76DF900BF9B
:104FE00000BF00BF07F108063089002842D104F055
:104FF000100010B94FF0000801E04FF01008DDE993
:105000000E0143465A46CDE90001514607F1200002
:10501000FFF786FD00BF00BF00BFFBF749F9029014
:1050200000BF00BF31480078401E30490870084674
:105030000078A0B92E480088002809DD00BF00BF15
:105040000298FBF739F900BF00BF00F009F90DE045
:1050500000BF00BF0298FBF72FF900BF06E000BFBA
:1050600000BF0298FBF728F900BF00BF00BF05B0E2
:10507000BDE8F08F04F4007008B1358900E0012527
:10508000D6F8009011E0D9F808000390D9F8040090
:1050900004900E985B465246009038460399FFF7FD
:1050A000BDFEDDF81090681E85B2002DEBD100BF6B
:1050B00000BF00BFFBF7FCF8029000BF00BF0B4829
:1050C0000078401E0949087000BF00BF0298FBF736
:1050D000F3F800BF00BF00BF04F4004008B9FDF7BB
:1050E00053FE00210F98018000BFC0E71801002087
:1050F000DC00002000210AE001EB4102054B03EB3C
:10510000820000220281026042604A1CD1B2402922
:10511000F2D3704794CD002010B5044694F83700C0
:10512000FFF712FF94F8370005490978884203D148
:10513000204600F027F802E0204600F003F810BDFA
:10514000FE00002010B590F8373003EB43030C4C01
:1051500004EB83010B893BB901230B810023C3605E
:1051600003610860486009E00B895B1C0B810B68D8
:10517000C360002303610A681061086010BD00006D
:1051800094CD002010B590F8373003EB43030B4C5F
:1051900004EB83010B893BB901230B810023C3601E
:1051A00003610860486008E00B895B1C0B810023E9
:1051B000C3604A680261D060486010BD94CD002091
:1051C00010B501460C8924B1012C03D0022C0CD15E
:1051D00001E000BF14E008684A6802610024C4606E
:1051E0001461D0600A6048600AE008684A68C368D1
:1051F00000241C61C4600261D0600B60486000BF85
:1052000000BF10BD2DE9F041054695F8370000EBD1
:105210004000124901EB80042F69EE6887B946B956
:10522000002020812060606095F83700FFF79EFE27
:105230000EE02089401E208100203061266007E0BA
:105240002089401E2081FE600EB9676000E0376152
:1052500000202861E860BDE8F081000094CD0020C6
:1052600010B5002400BFFBF723F8044600BF002060
:105270000C4908700C480D49086008460068D0F8D1
:105280009000401C0968C1F8900009480068401C63
:1052900007490860FBF76BF800BF2046FBF70CF8E6
:1052A00000BF10BDFF000020C4CC0020740100200E
:1052B0004401002010B504480078012803D1FBF711
:1052C000D1FF0249086010BD180100200C01002028
:1052D00010B50A48007880B9FBF7C4FF084909688F
:1052E000441A08480068A04201D2064804600648F3
:1052F0000068A04201D20448046010BD18010020DB
:105300000C010020100100201401002070B505469A
:1053100000262E480078012800D070BD00BF00BFD5
:10532000FAF7C6FF064600BF00BF2C683CB900BFB5
:1053300000BF3046FAF7C0FF00BF00BFEDE72448CA
:10534000844207D100BF00BF3046FAF7B5FF00BF67
:1053500000BFE2E7A06D10B1A06D401EA065A06D7A
:1053600038B100BF00BF3046FAF7A6FF00BF00BF4C
:10537000D3E72889022807DA00BF00BF3046FAF7D2
:105380009BFF00BF00BFC8E712480078002807DD78
:1053900000BF00BF3046FAF78FFF00BF00BFBCE779
:1053A0002846FFF70DFF2C68606D18B90A480068A1
:1053B000A06501E0606DA06500BF00BF3046FAF750
:1053C0007BFF00BF00BF00BFA7E700002001002057
:1053D00000CC0020180100201C0100200021034AFD
:1053E0001160034A118001807047000024010020F1
:1053F000280100202DE9FF5F0446884691461D469E
:105400000020019000BF00BFFAF752FF019000BFDB
:1054100000BF04F10807388900284FD10420012873
:1054200004D0022814D0042834D123E0206AFF28B5
:105430000DD100BF00BF0198FAF73EFF00BF00BFCB
:1054400046F6C5502880002004B0BDE8F09F22E059
:105450004FF6FF71206A88420BD100BF00BF019850
:10546000FAF72AFF00BF00BF46F6C550288000208B
:10547000EAE710E0206A401C58B900BF00BF01985D
:10548000FAF71AFF00BF00BF46F6C550288000207B
:10549000DAE700E000BF00BF206A401C2062D4F8B9
:1054A00020A0C4F8249000BF00BF0198FAF704FFC1
:1054B00000BF00BF002028805046C5E700BF254838
:1054C0000078401C2349087000BF00BF0198FAF71C
:1054D000F3FE00BF00BF00BF08F4007008B13E89B2
:1054E00000E00126D7F800B011E0DBF808000290D8
:1054F000DBF80400039000231A46CDF80090204604
:105500000299FFF78BFCDDF80CB0701E86B2002EFE
:10551000EBD1D4F820A000BF00BF00BFFAF7C8FE4F
:10552000019000BF00BF0B480078401E0949087079
:1055300000BF00BF0198FAF7BFFE00BF00BF00BF69
:1055400008F4004008B9FDF71FFC002028805046F1
:105550007AE700001801002086B00020009000BF0C
:1055600006E0C3490968480001AA0021FEF7ECFBE8
:10557000C04800780128F4D101A8FDF73FFD0027BD
:10558000BD480068BA490968884205D9BA48006828
:10559000B7490968B0FBF1F727B9B74800680A2195
:1055A000B0FBF1F762E1FBF75DFE804600BF00BF94
:1055B000FAF77EFE009000BF00BFB0480068B04917
:1055C00008600020AD49086000BF00BF0098FAF7EE
:1055D00073FE00BF00BFAB480068A9490968884254
:1055E00048D9A8480068A849884205D242F21070FC
:1055F00003900120029023E0A2480068A34988425A
:1056000005D24FF47A7003900A20029018E09D486A
:1056100000689F49884203D26420039002900FE003
:10562000984800689B49884205D20A2003904FF4AD
:105630007A70029004E00120039042F21070029010
:10564000904801680298B1FBF0FA8D490398096807
:105650004843B0FBFAF042F21071081A8E490880F4
:105660008E4800880988884208DA8B4800888B4970
:10567000088003E042F2107087490880FDF7D2FDF0
:10568000002500BF00BFFAF713FE009000BF00BF67
:105690008348046800BF00BF0098FAF70DFE00BF02
:1056A00000BF5AE000BF00BF00BFFAF701FE009044
:1056B00000BF00BF7B480078401C7A49087000BFDB
:1056C00000BF0098FAF7F8FD00BF00BF00BF54F814
:1056D0009C0F6060002044F89C0900BF00BF00BF21
:1056E000FAF7E6FD009000BF00BF6E480078401E4C
:1056F0006C49087008460078A0B96B4800880028FB
:1057000009DD00BF00BF0098FAF7D6FD00BF00BF5B
:10571000FFF7A6FD0DE000BF00BF0098FAF7CCFD33
:1057200000BF06E000BF00BF0098FAF7C5FD00BF4C
:1057300000BF00BFD4F8A000054400BF00BFFAF7C7
:10574000B7FD009000BF00BFD4F8BC4000BF00BF51
:105750000098FAF7B1FD00BF00BF002CA2D145B3FD
:105760004948854205D242F2107005904FF0010B76
:105770001BE04648854205D24FF47A7005904FF001
:105780000A0B12E04248854203D26420059083460A
:105790000BE04048854204D20A2005904FF47A7B02
:1057A00003E00120059042F2107BB5FBFBF0049072
:1057B00003E0002005900120049000BF00BFFAF72D
:1057C00077FD009000BF00BF3548046800BF00BFF0
:1057D0000098FAF771FD00BF00BF2BE0D4F8A000DD
:1057E000059948430499B0FBF1F086B242F210707B
:1057F000864200D90646A4F88C60B4F88E00B04208
:1058000001DAA4F88E6001AB04F1AC02111D204650
:10581000FEF78EF800BF00BFFAF74AFD009000BF08
:1058200000BFD4F8BC4000BF00BF0098FAF744FDA9
:1058300000BF00BF002CD1D11C480078012805D141
:1058400000201A49087001A8FDF7D8FBFBF70AFDF4
:10585000A0EB080916480068484502D21448C0F871
:10586000009001AA00213846FEF76EFA9BE6000080
:105870007C9200083C010020949200083001002036
:105880003801002034010020801A060000093D0084
:10589000005A62020084D7172C0100202E0100203C
:1058A0004801002018010020DC0000202A0100200F
:1058B0004001002010B58AB0044600201F4908604E
:1058C0001F4908601F4908601F4908701F49087078
:1058D0001F48006820B946F62B6020800AB010BD32
:1058E0001C4800681C490968884203D246F62C60AF
:1058F0002080F3E7194800783F2803D346F62A6052
:105900002080EBE7032000210591CDE907040691F3
:10591000084610490968124A12680D4B1B68CDE908
:105920000132CDE903100D48007800230D4A0EA185
:1059300000901248FDF780FC00BFCFE73001002047
:1059400038010020340100203C0100202A01002001
:1059500080920008889200089092000878920008CF
:10596000849200085955000875432F4F532D49491B
:10597000492053746174205461736B0094D00020EB
:1059800038B504460D4685B16B46022229462046AD
:1059900000F09EFDBDF8000018B9032084F8360021
:1059A00006E0022084F8360002E0022084F8360087
:1059B0002046FFF727FC38BD0021C0F8B810094980
:1059C000096819B90021C0F8BC1007E00549096849
:1059D000C0F8BC1003490968C1F8B8000149086063
:1059E0007047000048010020D0F8B820D0F8BC1063
:1059F0004AB90D4B196011B10023C1F8B83000232A
:105A0000C0F8BC300FE029B90023C2F8BC30C0F8A0
:105A1000B83008E0C2F8BC10C1F8B8200023C0F8C4
:105A2000BC30C0F8B8307047480100200021044A5B
:105A30001160044A1180044A11600180704700001F
:105A4000480100204C0100204401002070B50446AC
:105A500000202060A0606060E06020616061A06163
:105A6000E06129A0206200206062A062E062206400
:105A7000E065A4F86000002104F16400FFF748F835
:105A8000002044F8740F6060E060A0822061743CE4
:105A9000002506E0002104F17C0040F82510681C78
:105AA000C5B2002DF6D00020343420612067606735
:105AB000606084F85600E067A06720814FF00040E6
:105AC00060610020A061E06120626062A4F858007B
:105AD000A4F85A00E0652066FBF7C4FB064666663C
